:020000040800F2
:10000000E090002061020008C58900084D830008C7
:10001000C1890008B1080008859C00087302000827
:10002000000000000000000000000000718D0008CA
:10003000B508000800000000418A0008958D0008FE
:100040007D0200087D0200087D0200087D02000894
:100050007D0200087D0200087D0200087D02000884
:100060007D0200087D0200087D0200087D02000874
:10007000B90800087D0200087D0200087D02000822
:100080007D0200087D0200087D0200087D02000854
:100090007D0200087D0200087D0200087D02000844
:1000A0007D0200087D0200087D0200087D02000834
:1000B0007D0200087D0200087D0200087D02000824
:1000C0007D0200087D0200087D0200087D02000814
:1000D000000000007D0200087D0200087D0200088B
:1000E0007D0200087D0200087D0200087D020008F4
:1000F0007D020008C58F00087D0200087D0200080F
:100100007D0200087D0200087D0200087D020008D3
:100110007D0200087D0200087D0200087D020008C3
:100120007D0200087D020008759C00087D02000821
:100130007D0200087D0200087D0200087D020008A3
:100140007D0200087D0200087D0200087D02000893
:100150007D0200087D0200087D0200087D02000883
:100160007D0200087D0200087D0200087D02000873
:100170007D0200087D0200087D0200087D02000863
:100180007D0200087D0200087D0200087D02000853
:100190007D0200087D0200087D0200087D02000843
:1001A0007D0200087D0200087D0200087D02000833
:1001B0007D0200087D0200087D0200087D02000823
:1001C0007D0200087D0200087D0200087D02000813
:1001D0007D0200087D020008000000007D0200088A
:1001E0007D0200087D020008000000000000000001
:1001F0007D02000800000000000000007D020008F1
:100200007D0200087D0200087D0200080000000059
:10021000000000007D020008000000007D020008D0
:100220007D0200087D0200087D0200087D020008B2
:100230007D0200087D0200087D0200087D020008A2
:100240007D0200087D0200087D020008DFF80CD066
:1002500000F08AFA00480047D1AD0008E090002085
:100260000748804707480047FEE7FEE7FEE7FEE74E
:10027000FEE7FEE7FEE7FEE7FEE7FEE7FEE700003B
:100280008D8E00084D0200082DE9F05F0546002024
:1002900092469B4688460646814640241BE02846F7
:1002A00041464746224600F096F853465A46C01A41
:1002B000914110D311461846224600F07DF82D1AC0
:1002C00067EB01084F4622460120002100F074F838
:1002D00017EB00094E41201EA4F10104DFDC484663
:1002E00031462A464346BDE8F09F10B5441A0346FE
:1002F000944209D28318114403E011F8014D03F828
:10030000014D521EF9D210BD40EA0104A40703D0EA
:1003100009E010C9121F10C3042AFAD203E011F831
:10032000014B03F8014B521EF9D210BDD2B201E0CD
:1003300000F8012B491EFBD270470022F6E710B5EA
:1003400013460A4604461946FFF7F0FF204610BD43
:10035000421C10F8011B0029FBD1801A704710B510
:10036000002200E0521C835C8C5CA34201D1002B74
:10037000F8D1D8B2E1B2401A10BD034611F8012BF2
:1003800000F8012B002AF9D11846704730B50B460A
:10039000014600202022012409E021FA02F59D42B5
:1003A00005D303FA02F5491B04FA02F52844151E89
:1003B000A2F10102F1DC30BD202A04DB203A00FA70
:1003C00002F1002070479140C2F1200320FA03F3AC
:1003D000194390407047202A04DB203A21FA02F0AA
:1003E0000021704721FA02F3D040C2F1200291406F
:1003F0000843194670472DE9FE4F804681EA030005
:10040000C00F0C46009021F0004123F00045B8EBEE
:100410000200A94105D24046214690461C460B46A3
:10042000024623F00040104347D0270DC7F30A00CF
:10043000C3F30A510290401A019040286BDAC3F3CB
:10044000130040F4801B0098924620B10023D2EBA9
:10045000030A63EB0B0B01985946C0F1400250466A
:10046000FFF7AAFF06460D4650465946019A00F08E
:1004700093F910EB08006141002487EA115284EAE5
:10048000E7731A4340D0009A62B3019A012A4FEAF7
:10049000075215DC001B61EB02014FF0004202EA3B
:1004A0000752CDE90042001C41F5801132462B462F
:1004B00000F093F903B0BDE8F08F40462146F9E71C
:1004C000001B61EB0201001C41F5801300185B4129
:1004D0002018A2F5001747EB030140EAD570B619C2
:1004E0006D4111E06D084FEA360645EAC0754FEAE6
:1004F0000752001B61EB0201001C41F58011490805
:100500004FEA30000019514132462B4603B0BDE896
:10051000F04F00F053B90098012240000023D0EBC7
:10052000020263EBE073009821464FEAE074B8EBF7
:10053000000061EB0401E9E783F000435BE781F031
:10054000004158E72DE9FE4F81EA030404F000441E
:1005500021F0004100944FF0000B23F0004350EADB
:1005600001045ED052EA03045BD0C3F30A54C1F322
:100570000A552C44A4F2F3340194A0FB0254C1F3B5
:10058000130141F48011C3F3130343F4801301FBFF
:10059000024400FB034E840A970A44EA815447EA66
:1005A0008357A4FB076802958D0A05FB07854FEA70
:1005B000932C04FB0C542705029D4FEA065847EA8A
:1005C0001637B5EB08056EEB070C870E920E47EA5F
:1005D000811742EA8312A7FB0201B6EB0B0164EB21
:1005E00000042B0D43EA0C335E1844EB1C50DA4632
:1005F0005146E7FB0201C5F313044FEA0B3343EA0C
:1006000014534FEA0432019C43EA0603A4F10C049C
:100610000294009CCDE900B400F0DFF803B0BDE81F
:10062000F08F00200146F9E72DE9F04D81EA03043F
:1006300004F0004B21F0004514464FF0000A23F06F
:10064000004150EA050220D054EA01021DD0C5F352
:100650000A570246C5F31303C1F31300C1F30A5648
:1006600040F4801543F48013A7EB0608101BD64610
:1006700008F2FD3873EB050002D308F1010801E030
:1006800092185B41B8F1000F03DA00200146BDE883
:10069000F08D00204FF48011064684460EE0171BB3
:1006A00073EB050705D3121B63EB050306434CEA06
:1006B000010C49084FEA300092185B4150EA0107EB
:1006C000EDD152EA030012D082EA040083EA050168
:1006D000084305D0101BAB4106D20122002306E0DF
:1006E00000224FF0004302E06FF0010253101AEBBA
:1006F00006004CEB085110EB0A0041EB0B01BDE882
:10070000F04D00F05BB8C1F30A52C1F3130140F29F
:10071000FF3341F480119A4202DA0020014670470B
:1007200040F233439A42A2F2334202DC5242FFF7D4
:1007300052BEFFF741BE000030B5041E71F1000447
:1007400004DB4FF00044404264EB0101141E73F1DE
:10075000000405DB1C464FF00043524263EB0403E8
:10076000994208BF904230BD1CB509480090094825
:1007700001900546009C06E0E06840F0010394E823
:10078000070098471034AC42F6D3FFF763FD000032
:1007900090590108B0590108202A06DBCB17203AEE
:1007A00041FA02F043EAE07306E041FA02F3D04076
:1007B000C2F12002914008431946704710B5141E3B
:1007C00073F1000408DA401C41F1000192185B410A
:1007D0001A4301D120F0010010BD2DE9F04D9246E1
:1007E0009B4611B1B1FA81F202E0B0FA80F22032F8
:1007F0009046FFF7E1FD04460F4640EA0A0041EA51
:100800000B0153465A46084313D0114653EA0100E0
:1008100019D0C8F140025046FFF7DDFD05460E46EF
:10082000504659464246FFF7C7FD084305D0012010
:1008300004E020463946BDE8F08D0020054346EA35
:10084000E0762C4337430A986305E40AA0EB0800DE
:100850000022FD0A44EA47540A3002D5002001462E
:10086000E9E7010510196941DDE908450019694109
:10087000BDE8F04DA2E730B58C1810F8012B12F04E
:100880000F0301D110F8013B120906D110F8012B1A
:1008900003E010F8015B01F8015B5B1EF9D101E098
:1008A00001F8013B521EFBD1A142E6D3002030BD2E
:1008B000FFE7FEE77047000080B5022000F088FAED
:1008C00080BD000072B6FFE7FEE7000080B584B08F
:1008D00040F2EC30C2F200004FF4A0410DF0B2FE45
:1008E00045F2E070C0F6010044F6B861C0F60101BF
:1008F000002303931A460EF01DF8039880210191FE
:100900004022029210F0AAFA0199029A039810F07C
:10091000CFFA04B080BD000080B501200BF0DAFFF3
:1009200080BD000080B50CF0D7FF80BD704700008F
:1009300080B545F2F432C2F20002012108460CF003
:100940005FFA45F2F031C2F20001086080BD00009C
:1009500080B545F2F030C2F2000000684FF0FF3180
:100960000CF06EFD80BD000080B545F2F030C2F2A3
:1009700000000068002319461A460CF061FB80BD98
:1009800087B006900591049200208DF80F001F207B
:1009900002909DF81400C00720B9FFE701208DF8F0
:1009A0000F004BE0FFE70299481E029000200190E3
:1009B00051B1FFE70598029901F01F0120FA01F1FA
:1009C000012088430190FFE70198C00708B1FFE7C5
:1009D000E9E70498009018282BD80099DFE801F087
:1009E00028292929292929291F2929292929292982
:1009F00016292929292929290D000298072804D315
:100A0000FFE701208DF80F00FFE716E002980828A5
:100A100004D3FFE701208DF80F00FFE70DE00298F7
:100A2000102804D3FFE701208DF80F00FFE704E052
:100A300003E001208DF80F00FFE7FFE79DF80F00AE
:100A400078B9FFE705980699096848610698006833
:100A5000806820F0180004990843069909688860A6
:100A6000FFE79DF80F0007B07047000080B582B027
:100A70000090009820B9FFE701208DF8070057E0AB
:100A80000098407F38B9FFE7009900200877009868
:100A900000F052F8FFE700990220487700980079AB
:100AA00080B9FFE70098016841F6B750C0F2C14035
:100AB000486100980068806820F018000099096873
:100AC00088600BE000988168C268FFF759FF20B189
:100AD000FFE701208DF807002AE0FFE70098407942
:100AE00030B9FFE7009801684FF0FF30086104E07B
:100AF0000098016800690861FFE700980068806855
:100B000020F06000009A11685269104388600098D4
:100B10000068806820F08000009A11689269104394
:100B2000886000990120487700208DF80700FFE7D2
:100B30009DF8070002B080BD82B001900198006866
:100B400043F20001C4F20201884210D1FFE7FFE73F
:100B500040F68840C4F20240016841F480510160CF
:100B6000006800F4805000900098FFE7FFE702B0B3
:100B70007047000080B584B0029000F0EDFA01905B
:100B8000029820B9FFE701208DF80F0079E0029864
:100B900090F8540002280DD0FFE7029920208865C4
:100BA000FFE70299002081F84C00FFE701208DF853
:100BB0000F0066E002980168486940F0040048614F
:100BC0000299052081F85400FFE702980068006947
:100BD0008004002827D4FFE700F0BEFA0199401AEC
:100BE00006281FD3FFE70299886D40F01000886542
:100BF0000299032081F85400029890F850000006F2
:100C0000002805D5FFE70298416F01200873FFE730
:100C1000FFE70299002081F84C00FFE701208DF8E2
:100C20000F002EE0D1E702980168486940F0020009
:100C300048610299042081F85400029801684FF439
:100C4000FE40C8600299012081F85400029890F893
:100C500050000006002809D5FFE70298416F0120E7
:100C600008730298016800208864FFE7FFE7029993
:100C7000002081F84C00FFE7FFE700208DF80F000F
:100C8000FFE79DF80F0004B080BD000082B0009027
:100C9000009820B9FFE701208DF807001CE00098BC
:100CA00090F85400022807D0FFE7009920208865BB
:100CB00001208DF807000FE00099042081F854000E
:100CC00000980168486942F2040210434861FFE756
:100CD00000208DF80700FFE79DF8070002B070477D
:100CE00080B584B0039000F037FA02900398019029
:100CF0000198013048B1FFE740F2EC10C2F2000069
:100D00000178019808440190FFE7FFE700F024FA1A
:100D10000299401A0199884201D2FFE7F6E704B030
:100D200080BD000081B000208DF8030042F2280051
:100D3000C4F20200016841F0010101600068C007CF
:100D400020B9FFE701208DF80300FFE79DF80300BD
:100D500001B0704781B000208DF8030042F22800F6
:100D6000C4F202000068C007D8B1FFE742F20401F4
:100D7000C4F2020140F22310C4F26750086048F642
:100D8000AB10CCF6EF50086042F22800C4F202002B
:100D90000068C00720B1FFE701208DF80300FFE7DE
:100DA000FFE79DF8030001B07047000081B0ADF887
:100DB0000200BDF80200022807D1FFE745F6B01196
:100DC000C2F2000101200870FFE701B07047000087
:100DD00080B582B0ADF8060042F20C00C4F20240C9
:100DE0000068BDF8061008420CD0FFE7BDF8060009
:100DF00042F20C01C4F202410860BDF8060000F0A6
:100E000019F8FFE742F21000C4F202400068BDF892
:100E1000061008420CD0FFE7BDF8060042F21001B0
:100E2000C4F202410860BDF80600FFF7BFFFFFE70C
:100E300002B080BD81B0ADF8020001B07047000083
:100E400085B00490039100200090FFE703980068AC
:100E50000099C840002800F06681FFE70398006809
:100E6000009A01219140084001900198002800F06B
:100E70005681FFE703984068022805D0FFE70398F2
:100E80004068122828D1FFE7049800996FF0030208
:100E900002EA51010844006A0290009800F007003D
:100EA00081000F2000FA01F1029888430290039814
:100EB000006900F00F00009901F00701890000FAB5
:100EC00001F102980843029002980499009B02EAFB
:100ED000530211440862FFE70498006802900098EA
:100EE0004100032000FA01F1029888430290039820
:100EF000406800F003000099490000FA01F10298EF
:100F000008430290029804990860039840680128F9
:100F10000FD0FFE70398406802280AD0FFE7039844
:100F20004068112805D0FFE70398406812282FD1A8
:100F3000FFE704988068029000984100032000FABF
:100F400001F10298884302900398C0680099490013
:100F500000FA01F10298084302900298049988600F
:100F60000498406802900099012000FA01F102986B
:100F70008843029003984068C0F30010009900FA7B
:100F800001F1029808430290029804994860FFE733
:100F90000398406800F0030003280CD1FFE7039892
:100FA000406800F0030003281DD1FFE70398806824
:100FB000012818D0FFE70498C0680290009841000B
:100FC000032000FA01F10298884302900398806898
:100FD0000099490000FA01F1029808430290029832
:100FE0000499C860FFE70398C079C006002840F163
:100FF0009580FFE7009820F0030042F26002C4F2FF
:10100000024280580290009800F00300C1000F20B7
:1010100000FA01F102988843029004984FF60041CB
:10102000CBF6FD510840800A009901F00301C90088
:1010300000FA01F10298084302900298009921F009
:101040000301885042F20000C4F20240006802909E
:10105000019902988843029003988079C00600287D
:1010600005D5FFE70199029808430290FFE702982F
:1010700042F20001C4F20241086042F20400C4F2EC
:1010800002400068029001990298884302900398F8
:1010900080798006002805D5FFE70199029808436A
:1010A0000290FFE7029842F20401C4F20241086094
:1010B00042F28400C4F20240006802900199029852
:1010C00088430290039880798007002805D5FFE7C0
:1010D0000199029808430290FFE7029842F28401C6
:1010E000C4F20241086042F28000C4F2024000688B
:1010F0000290019902988843029003988079C00772
:1011000028B1FFE70199029808430290FFE702988F
:1011100042F28001C4F202410860FFE7FFE7009855
:101120000130009092E605B07047000082B0019057
:10113000ADF802108DF801209DF8010028B1FFE7FD
:10114000BDF802000199886104E0BDF80200019930
:101150008862FFE702B0704748F2FC40C2F200002C
:101160000068704780B584B00290029820B9FFE70C
:1011700001208DF80F0078E0029800F07BF80298CB
:1011800001684CF6CC4008600298016845F2555061
:1011900008600298016840684860029801688068A9
:1011A0008860FFF7D9FF0190FFE702980068C068E8
:1011B0008007002814D5FFE7FFF7CEFF0199401AFA
:1011C00022280CD3FFE702980068C0688007002837
:1011D00004D5FFE703208DF80F0046E0FFE7E4E7C2
:1011E0000298006930B9FFE7029801684FF4804027
:1011F000486106E002980168006940F44040486197
:10120000FFE7FFF7A9FF0190FFE702980068C068B9
:10121000000798B1FFE7FFF79FFF0199401A2228C6
:101220000BD3FFE702980068C068000720B1FFE712
:1012300003208DF80F0018E0FFE7E6E7029800684A
:1012400000690299C968884205D0FFE702980168E1
:10125000C068086105E0029801684AF6AA200860A3
:10126000FFE700208DF80F00FFE79DF80F0004B0A6
:1012700080BD000081B0009001B0704781B0009047
:10128000009801684AF6AA200860002001B0704763
:1012900040F2EC10C2F20000027848F2FC41C2F2C7
:1012A00000010868104408607047000080B582B0F3
:1012B000032000F0F7F905F0D5F940F62041C4F21B
:1012C0000241096801F00F0245F2C871C0F6010140
:1012D000895CC84040F2E011C2F2000108600420BD
:1012E000009006F023F8009800F010F820B1FFE716
:1012F00001208DF8070005E000F0B0F900208DF81E
:101300000700FFE79DF8070002B080BD80B58EB0F2
:101310000D90FFE740F69C40C4F20240016841F0A6
:1013200001010160006800F0010001900198FFE7F1
:1013300007A803A905F00AF90A980590059820B9AD
:10134000FFE705F053F9069004E005F04FF940007F
:101350000690FFE70698400945F6C521C0F67C21B6
:10136000A0FB01014FF0FF3000EBD110049045F6D7
:10137000D000C2F200004FF0804101606321C160E3
:101380000499416000210161816006F039F88DF80F
:101390000B009DF80B0010BBFFE745F6D000C2F232
:1013A000000006F085F88DF80B009DF80B00A8B939
:1013B000FFE70D980F280CD8FFE70D992D2000228C
:1013C00000F058F90D9840F2F011C2F200010860E7
:1013D00003E001208DF80B00FFE7FFE7FFE72D207A
:1013E00000F03EF99DF80B000EB080BD80B584B0D2
:1013F0000290029820B9FFE701208DF80F00FAE073
:1014000002984068012806D0FFE70298806AB0F58C
:10141000000F01D1FFE7FFE7029840694FF6FF7127
:10142000884201D0FFE7FFE7029890F84A0040B9F0
:10143000FFE70299002081F84900029800F0E0F8E7
:10144000FFE70299022081F84A00029801680869C2
:1014500040F001000861029800684FF4807141601B
:1014600002980268406B9062029807F01BF903280B
:1014700004D1FFE703208DF80F00BCE0029800685C
:101480001021416002980268006A9061029807F09A
:1014900009F9032804D1FFE703208DF80F00AAE023
:1014A000FFE702980068C06A800700280FD4FFE7B2
:1014B00002980068C06A8003002807D4FFE70298FA
:1014C0000168086920F001000861FFE7FFE7FFE716
:1014D00002980068C068019002984068012806D010
:1014E000FFE70298806AB0F5000F05D1FFE7019889
:1014F00020F01E000190FFE7029840694FF6FF714F
:10150000884206D0FFE701984EF2C001884301905F
:10151000FFE701984FF2FE11CFF6397108400190B4
:10152000029948688B684A6A896A184310430143E4
:101530000198084301900298406840B9FFE702987B
:101540000169C0690143019808430190FFE70298CF
:101550004068012806D0FFE70298806AB0F5000FC6
:1015600008D1FFE70299C868096901430198084357
:101570000190FFE7029840694FF6FF7188420AD058
:10158000FFE7029948698A69C969104301430198D4
:1015900008430190FFE7019802990968C860029822
:1015A0000068B0F1442F09D0FFE70298006849F2C3
:1015B0000041C4F20001884207D1FFE7029A116896
:1015C000D06A126B1043486204E002980168C06A56
:1015D0004862FFE7FFE70299012081F84B0002997A
:1015E00081F84C00FFE70299012081F84A000020B1
:1015F0008DF80F00FFE79DF80F0004B080BD0000DC
:1016000080B5C6B0459002A84FF48471FEF795FEF0
:1016100045980068B0F1442F1ED1FFE700200390E9
:101620004FF4003102912B9002A803F009F918B190
:10163000FFE7FFF747F9FFE7FFE740F6A840C4F2EE
:101640000240016841F400610160006800F400603C
:1016500001900198FFE7FFE746B080BD70470000AA
:1016600080B582B0ADF80600BDF9060009F062FA57
:1016700002B080BD80B586B0ADF81600049103922B
:1016800009F070FA0290BDF91600019002980499D1
:10169000039A07F099F90146019809F06BFA06B030
:1016A00080BD000080B582B00190019809F084FAF5
:1016B00002B080BD89B0089040F63440C4F20240C8
:1016C00000686FF35F20059040F62840C4F20240A6
:1016D000016801F0030107910168C1F3052106913A
:1016E0000068C0F300100490049840F63841C4F23A
:1016F0000241096889B2C90800FB01F000EE100A36
:10170000B8EE400A8DED020A0698002800F03D81EF
:10171000FFE707980090012808D0FFE7009802280B
:1017200030D0FFE70098032849D065E040F600403C
:10173000C4F202400068C0F3C10149F20000C0F2E7
:10174000D030C84003909DED030AB8EE400A9DEDED
:10175000061AB8EE411A80EE010A9DED051AB8EEA0
:10176000411A9DED022A9FED8F3A22EE032A31EEB7
:10177000021AB7EE002A31EE021A20EE010A8DEDB0
:10178000010A65E09DED060AB8EE401A9FED860A53
:1017900080EE010A9DED051AB8EE411A9DED022A70
:1017A0009FED803A22EE032A31EE021AB7EE002AAC
:1017B00031EE021A20EE010A8DED010A48E09DED9E
:1017C000060AB8EE401A9FED760A80EE010A9DEDFA
:1017D000051AB8EE411A9DED022A9FED723A22EEEB
:1017E000032A31EE021AB7EE002A31EE021A20EE79
:1017F000010A8DED010A2BE040F60040C4F20240E0
:101800000068C0F3C10149F20000C0F2D030C84006
:1018100003909DED030AB8EE400A9DED061AB8EE5E
:10182000411A80EE010A9DED051AB8EE411A9DEDB0
:10183000022A9FED5C3A22EE032A31EE021AB7EE3D
:10184000002A31EE021A20EE010A8DED010AFFE7AF
:1018500040F60040C4F2024000688001002827D50D
:10186000FFE740F62840C4F202400068C0030028A9
:1018700019D5FFE79DED010A40F63440C4F202405D
:10188000006880B2400A01EE100AB8EE411AB7EEC5
:10189000002A31EE021A80EE010A0898BCEEC00A56
:1018A00080ED000A03E0089900200860FFE703E0EC
:1018B000089900200860FFE740F60040C4F20240AB
:1018C00000688001002827D5FFE740F62840C4F2D1
:1018D000024000688003002819D5FFE79DED010A4A
:1018E00040F63440C4F202400068C0F3064001EE06
:1018F000100AB8EE411AB7EE002A31EE021A80EE55
:10190000010A0898BCEEC00A80ED010A03E00899BC
:1019100000204860FFE703E0089900204860FFE7E7
:1019200040F60040C4F2024000688001002827D53C
:10193000FFE740F62840C4F2024000684003002858
:1019400019D5FFE79DED010A40F63440C4F202408C
:101950000068C0F3066001EE100AB8EE411AB7EE57
:10196000002A31EE021A80EE010A0898BCEEC00A85
:1019700080ED020A03E0089900208860FFE703E099
:10198000089900208860FFE707E0089900200860B8
:101990000899486008998860FFE709B0704700BF60
:1019A00020BCBE4B000000390024744A89B0089066
:1019B00040F63C40C4F2024000686FF35F2005909F
:1019C00040F62C40C4F20240016801F00301079187
:1019D0000168C1F3052106910068C0F3001004906E
:1019E000049840F64041C4F20241096889B2C9082E
:1019F00000FB01F000EE100AB8EE400A8DED020A7D
:101A00000698002800F03D81FFE707980090012824
:101A100008D0FFE70098022830D0FFE7009803289D
:101A200049D065E040F60040C4F202400068C0F3CF
:101A3000C10149F20000C0F2D030C84003909DEDD2
:101A4000030AB8EE400A9DED061AB8EE411A80EE80
:101A5000010A9DED051AB8EE411A9DED022A9FED8F
:101A60008F3A22EE032A31EE021AB7EE002A31EE47
:101A7000021A20EE010A8DED010A65E09DED060ACD
:101A8000B8EE401A9FED860A80EE010A9DED051A18
:101A9000B8EE411A9DED022A9FED803A22EE032A0C
:101AA00031EE021AB7EE002A31EE021A20EE010AD8
:101AB0008DED010A48E09DED060AB8EE401A9FED53
:101AC000760A80EE010A9DED051AB8EE411A9DEDE9
:101AD000022A9FED723A22EE032A31EE021AB7EE85
:101AE000002A31EE021A20EE010A8DED010A2BE0E8
:101AF00040F60040C4F202400068C0F3C10149F260
:101B00000000C0F2D030C84003909DED030AB8EE4B
:101B1000400A9DED061AB8EE411A80EE010A9DEDCD
:101B2000051AB8EE411A9DED022A9FED5C3A22EEAD
:101B3000032A31EE021AB7EE002A31EE021A20EE25
:101B4000010A8DED010AFFE740F60040C4F20240B1
:101B500000680001002827D5FFE740F62C40C4F2BA
:101B600002400068C003002819D5FFE79DED010A77
:101B700040F63C40C4F20240006880B2400A01EEE8
:101B8000100AB8EE411AB7EE002A31EE021A80EEC2
:101B9000010A0898BCEEC00A80ED000A03E008992B
:101BA00000200860FFE703E0089900200860FFE7D5
:101BB00040F60040C4F2024000680001002827D52A
:101BC000FFE740F62C40C4F2024000688003002882
:101BD00019D5FFE79DED010A40F63C40C4F20240F2
:101BE0000068C0F3064001EE100AB8EE411AB7EEE5
:101BF000002A31EE021A80EE010A0898BCEEC00AF3
:101C000080ED010A03E0089900204860FFE703E047
:101C1000089900204860FFE740F60040C4F2024007
:101C200000680001002827D5FFE740F62C40C4F2E9
:101C3000024000684003002819D5FFE79DED010A26
:101C400040F63C40C4F202400068C0F3066001EE7A
:101C5000100AB8EE411AB7EE002A31EE021A80EEF1
:101C6000010A0898BCEEC00A80ED020A03E0089958
:101C700000208860FFE703E0089900208860FFE704
:101C800007E0089900200860089948600899886072
:101C9000FFE709B0704700BF20BCBE4B0000003911
:101CA0000024744A89B0089040F64440C4F20240CF
:101CB00000686FF35F20059040F63040C4F20240A8
:101CC000016801F0030107910168C1F30521069144
:101CD0000068C0F300100490049840F64841C4F234
:101CE0000241096889B2C90800FB01F000EE100A40
:101CF000B8EE400A8DED020A0698002800F03D81FA
:101D0000FFE707980090012808D0FFE70098022815
:101D100030D0FFE70098032849D065E040F6004046
:101D2000C4F202400068C0F3C10149F20000C0F2F1
:101D3000D030C84003909DED030AB8EE400A9DEDF7
:101D4000061AB8EE411A80EE010A9DED051AB8EEAA
:101D5000411A9DED022A9FED8F3A22EE032A31EEC1
:101D6000021AB7EE002A31EE021A20EE010A8DEDBA
:101D7000010A65E09DED060AB8EE401A9FED860A5D
:101D800080EE010A9DED051AB8EE411A9DED022A7A
:101D90009FED803A22EE032A31EE021AB7EE002AB6
:101DA00031EE021A20EE010A8DED010A48E09DEDA8
:101DB000060AB8EE401A9FED760A80EE010A9DED04
:101DC000051AB8EE411A9DED022A9FED723A22EEF5
:101DD000032A31EE021AB7EE002A31EE021A20EE83
:101DE000010A8DED010A2BE040F60040C4F20240EA
:101DF0000068C0F3C10149F20000C0F2D030C84011
:101E000003909DED030AB8EE400A9DED061AB8EE68
:101E1000411A80EE010A9DED051AB8EE411A9DEDBA
:101E2000022A9FED5C3A22EE032A31EE021AB7EE47
:101E3000002A31EE021A20EE010A8DED010AFFE7B9
:101E400040F60040C4F2024000688000002827D518
:101E5000FFE740F63040C4F202400068C0030028AB
:101E600019D5FFE79DED010A40F64440C4F2024057
:101E7000006880B2400A01EE100AB8EE411AB7EECF
:101E8000002A31EE021A80EE010A0898BCEEC00A60
:101E900080ED000A03E0089900200860FFE703E0F6
:101EA000089900200860FFE740F60040C4F20240B5
:101EB00000688000002827D5FFE740F63040C4F2D4
:101EC000024000688003002819D5FFE79DED010A54
:101ED00040F64440C4F202400068C0F3064001EE00
:101EE000100AB8EE411AB7EE002A31EE021A80EE5F
:101EF000010A0898BCEEC00A80ED010A03E00899C7
:101F000000204860FFE703E0089900204860FFE7F1
:101F100040F60040C4F2024000688000002827D547
:101F2000FFE740F63040C4F202400068400300285A
:101F300019D5FFE79DED010A40F64440C4F2024086
:101F40000068C0F3066001EE100AB8EE411AB7EE61
:101F5000002A31EE021A80EE010A0898BCEEC00A8F
:101F600080ED020A03E0089900208860FFE703E0A3
:101F7000089900208860FFE707E0089900200860C2
:101F80000899486008998860FFE709B0704700BF6A
:101F900020BCBE4B000000390024744A80B59CB0C0
:101FA0001B911A901A981B9980F000700843002822
:101FB0005BD1FFE740F6F040C4F20240016801F453
:101FC00040710E9100688007002809D5FFE70E9840
:101FD000B0F5807F04D1FFE74FF40040109042E05D
:101FE00040F6F040C4F2024000680001002809D524
:101FF000FFE70E98B0F5007F04D1FFE74FF4FA40F9
:1020000010902FE040F60040C4F2024000688003C8
:10201000002823D5FFE70E98B0F5407F1ED1FFE7DB
:1020200040F61C40C4F20240006800F47C50B0F559
:10203000007F0FD3FFE740F61C40C4F20240006867
:10204000C0F3052147F64000C0F27D10B0FBF1F06F
:10205000109002E000201090FFE702E000201090B6
:10206000FFE7FFE7FFE702F0E8BB1A980C901B9927
:102070000D9180F001000843002800F09C82FFE7EA
:102080000D990C9880F002000843002800F011839D
:10209000FFE70D990C9880F004000843002800F039
:1020A0007D83FFE70D990C9880F008000843002815
:1020B00000F0F483FFE70D990C9880F010000843BE
:1020C000002800F06E84FFE70D990C9880F0200046
:1020D0000843002800F0E884FFE70D990C9880F091
:1020E00040000843002800F06285FFE70D990C9836
:1020F00080F080000843002800F0DC85FFE70D99A0
:102100000C9880F480700843002800F05686FFE7A2
:102110000D990C9880F400700843002800F0D086D8
:10212000FFE70D990C9880F480600843002800F0C8
:102130004A87FFE70D990C9880F400600843002857
:1021400000F0BF87FFE70D990C9880F4805008439A
:10215000002801F03480FFE70D990C9880F40050BE
:102160000843002801F03781FFE70D990C9880F4AF
:1021700080400843002801F08081FFE70D990C980A
:1021800080F400400843002801F0C981FFE70D9961
:102190000C9880F480300843002801F06482FFE747
:1021A0000D990C9880F400300843002801F09882C3
:1021B000FFE70D990C9880F480200843002801F077
:1021C0003B83FFE70D990C9880F40020084300281A
:1021D00000F0B680FFE70D990C9880F4801008435A
:1021E000002800F03A81FFE70D990C9880F4001068
:1021F0000843002801F05480FFE70D990C9880F403
:1022000080000843002800F0B581FFE70D990C9885
:1022100080F080600843002802F07782FFE70D9984
:102220000C9880F000600843002801F09886FFE7D2
:102230000D990C9880F080500843002801F00E871B
:10224000FFE70D990C9880F000500843002801F03A
:102250009287FFE70D990C9880F080400843002892
:1022600002F01280FFE70D990C9880F000400843BF
:10227000002802F08D80FFE70C980D9981F0010194
:102280000843002802F00881FFE70C980D9981F0BF
:1022900002010843002802F08381FFE70C980D99A2
:1022A00081F004010843002801F02286FFE70C9822
:1022B0000D9981F008010843002802F0E681FFE74C
:1022C0000C980D9981F010010843002802F07382E8
:1022D000FFE70C980D9981F020010843002801F0D8
:1022E0005783FFE70C980D9981F0400108430028BF
:1022F00001F0FA83FFE70C980D9981F08001084303
:10230000002801F09D84FFE70C980D9981F48071FD
:102310000843002801F04085FFE70C980D9981F4EF
:1023200000710843002801F02780FFE70C980D9901
:1023300081F480610843002801F0438102F079BAFA
:1023400040F6E840C4F20240006800F4E0200E903D
:102350000E980B90A0B1FFE70B98B0F5803F15D019
:10236000FFE70B98B0F5003F16D0FFE70B98B0F5EC
:10237000403F17D0FFE70B98B0F5802F18D067E0EB
:1023800017A8FFF797F91898109064E014A8FFF7C2
:102390000DFB149810905EE011A8FFF783FC1198D4
:1023A000109058E048F20000C0F2BB00109052E0DC
:1023B00040F6E840C4F20240006800F040400F9050
:1023C00040F60040C4F2024000688007002811D5A2
:1023D000FFE70F9870B9FFE740F60040C4F20240F3
:1023E0000068C0F3C10149F20000C0F2D030C8401B
:1023F00010902CE040F60040C4F2024000688005D6
:1024000000280BD5FFE70F98B0F1804F06D1FFE70A
:1024100040F60010C0F23D00109017E040F600407A
:10242000C4F202400068800300280BD5FFE70F9834
:10243000B0F1004F06D1FFE747F64000C0F27D1033
:10244000109002E000201090FFE7FFE7FFE702E0B6
:1024500000201090FFE702F0EFB940F6E840C4F228
:102460000240006800F460100E900E980A90A0B12F
:10247000FFE70A98B0F5002F15D0FFE70A98B0F5EE
:10248000801F16D0FFE70A98B0F5C01F17D0FFE7EE
:102490000A98B0F5001F18D067E017A8FFF70AF9EF
:1024A0001898109064E014A8FFF780FA1498109020
:1024B0005EE011A8FFF7F6FB1198109058E048F283
:1024C0000000C0F2BB00109052E040F6E840C4F2B9
:1024D0000240006800F040400F9040F60040C4F217
:1024E000024000688007002811D5FFE70F9870B9F7
:1024F000FFE740F60040C4F202400068C0F3C101AB
:1025000049F20000C0F2D030C84010902CE040F6F4
:102510000040C4F202400068800500280BD5FFE7A8
:102520000F98B0F1804F06D1FFE740F60010C0F2DF
:102530003D00109017E040F60040C4F202400068F1
:10254000800300280BD5FFE70F98B0F1004F06D1AC
:10255000FFE747F64000C0F27D10109002E0002037
:102560001090FFE7FFE7FFE702E000201090FFE791
:1025700002F062B940F6E440C4F20240006800F0A4
:1025800040000E900E9830B9FFE717A8FFF792F8B9
:10259000189810900DE00E98402806D1FFE714A877
:1025A000FFF704FA1698109002E000201090FFE761
:1025B000FFE702F041B940F6D840C4F2024000689B
:1025C00000F007000E900E9820B9FFE704F022F803
:1025D00010906CE040F60040C4F202400068000138
:1025E00000280AD5FFE70E98012806D1FFE714A8B6
:1025F000FFF7DCF91598109058E040F60040C4F25F
:1026000002400068800000280AD5FFE70E980228E3
:1026100006D1FFE711A8FFF745FB1298109044E0A0
:1026200040F60040C4F2024000688007002812D53E
:10263000FFE70E9803280ED1FFE740F60040C4F2F2
:1026400002400068C0F3C10149F20000C0F2D0307E
:10265000C840109028E040F60040C4F202400068F4
:10266000800500280AD5FFE70E98042806D1FFE769
:1026700040F60010C0F23D00109014E040F6F0402B
:10268000C4F2024000688007002808D5FFE70E98D2
:10269000052804D1FFE74FF40040109002E000202D
:1026A0001090FFE7FFE7FFE7FFE7FFE7FFE702F034
:1026B000C3B840F6D840C4F20240006800F03800C9
:1026C0000E900E9820B9FFE703F090FF109063E0A2
:1026D00040F60040C4F202400068000100280AD51C
:1026E000FFE70E98082806D1FFE714A8FFF75EF968
:1026F000159810904FE00E98102806D1FFE711A80A
:10270000FFF7D0FA1298109044E040F60040C4F26F
:10271000024000688007002812D5FFE70E981828AD
:102720000ED1FFE740F60040C4F202400068C0F35B
:10273000C10149F20000C0F2D030C840109028E03A
:1027400040F60040C4F202400068800500280AD527
:10275000FFE70E98202806D1FFE740F60010C0F2F0
:102760003D00109014E040F6F040C4F202400068D2
:102770008007002808D5FFE70E98282804D1FFE736
:102780004FF40040109002E000201090FFE7FFE7B8
:10279000FFE7FFE7FFE7FFE702F04EB840F6D8405B
:1027A000C4F20240006800F4E0700E900E9820B968
:1027B000FFE703F01BFF10906EE040F60040C4F20C
:1027C00002400068000100280AD5FFE70E98402863
:1027D00006D1FFE714A8FFF7E9F8159810905AE022
:1027E00040F60040C4F202400068800000280AD58C
:1027F000FFE70E98802806D1FFE711A8FFF752FAED
:102800001298109046E040F60040C4F20240006882
:102810008007002812D5FFE70E98C0280ED1FFE7E9
:1028200040F60040C4F202400068C0F3C10149F222
:102830000000C0F2D030C84010902AE040F60040BE
:10284000C4F202400068800500280BD5FFE70E980F
:10285000B0F5807F06D1FFE740F60010C0F23D00E2
:10286000109015E040F6F040C4F202400068800786
:10287000002809D5FFE70E98B0F5A07F04D1FFE747
:102880004FF40040109002E000201090FFE7FFE7B7
:10289000FFE7FFE7FFE7FFE701F0CEBF40F6D840D4
:1028A000C4F20240006800F460600E900E9820B9F7
:1028B000FFE703F09BFE109071E040F60040C4F289
:1028C00002400068000100280BD5FFE70E98B0F524
:1028D000007F06D1FFE714A8FFF768F8159810905D
:1028E0005CE040F60040C4F202400068800000282E
:1028F0000BD5FFE70E98B0F5806F06D1FFE711A862
:10290000FFF7D0F91298109047E040F60040C4F26B
:10291000024000688007002813D5FFE70E98B0F545
:10292000C06F0ED1FFE740F60040C4F202400068DD
:10293000C0F3C10149F20000C0F2D030C84010908D
:102940002AE040F60040C4F20240006880050028FA
:102950000BD5FFE70E98B0F5006F06D1FFE740F604
:102960000010C0F23D00109015E040F6F040C4F2B7
:10297000024000688007002809D5FFE70E98B0F5EF
:10298000206F04D1FFE74FF40040109002E00020D8
:102990001090FFE7FFE7FFE7FFE7FFE7FFE701F042
:1029A0004BBF40F6D840C4F20240006800F4E0405B
:1029B0000E900E9820B9FFE703F018FE109071E01A
:1029C00040F60040C4F202400068000100280BD528
:1029D000FFE70E98B0F5805F06D1FFE714A8FEF779
:1029E000E5FF159810905CE040F60040C4F202400C
:1029F0000068800000280BD5FFE70E98B0F5005F57
:102A000006D1FFE711A8FFF74DF91298109047E0A3
:102A100040F60040C4F2024000688007002813D549
:102A2000FFE70E98B0F5405F0ED1FFE740F600409B
:102A3000C4F202400068C0F3C10149F20000C0F2D4
:102A4000D030C84010902AE040F60040C4F2024066
:102A50000068800500280BD5FFE70E98B0F5804F81
:102A600006D1FFE740F60010C0F23D00109015E0DF
:102A700040F6F040C4F2024000688007002809D503
:102A8000FFE70E98B0F5A04F04D1FFE74FF40040E8
:102A9000109002E000201090FFE7FFE7FFE7FFE75C
:102AA000FFE7FFE701F0C8BE40F6D840C4F202409D
:102AB000006800F460300E900E9820B9FFE703F034
:102AC00095FD109071E040F60040C4F202400068AD
:102AD000000100280BD5FFE70E98B0F5004F06D196
:102AE000FFE714A8FEF762FF159810905CE040F62F
:102AF0000040C4F202400068800000280BD5FFE7C8
:102B00000E98B0F5803F06D1FFE711A8FFF7CAF88D
:102B10001298109047E040F60040C4F2024000686E
:102B20008007002813D5FFE70E98B0F5C03F0ED1FF
:102B3000FFE740F60040C4F202400068C0F3C10164
:102B400049F20000C0F2D030C84010902AE040F6B0
:102B50000040C4F202400068800500280BD5FFE762
:102B60000E98B0F5003F06D1FFE740F60010C0F226
:102B70003D00109015E040F6F040C4F202400068BD
:102B80008007002809D5FFE70E98B0F5203F04D153
:102B9000FFE74FF40040109002E000201090FFE7A4
:102BA000FFE7FFE7FFE7FFE7FFE701F045BE40F67D
:102BB000D840C4F20240006800F4E0100E900E9875
:102BC00020B9FFE703F012FD109071E040F60040DD
:102BD000C4F202400068000100280BD5FFE70E9800
:102BE000B0F5802F06D1FFE714A8FEF7DFFE159899
:102BF00010905CE040F60040C4F2024000688000A3
:102C000000280BD5FFE70E98B0F5002F06D1FFE79F
:102C100011A8FFF747F81298109047E040F60040DF
:102C2000C4F2024000688007002813D5FFE70E9821
:102C3000B0F5402F0ED1FFE740F60040C4F202404D
:102C40000068C0F3C10149F20000C0F2D030C840B2
:102C500010902AE040F60040C4F20240006880056F
:102C600000280BD5FFE70E98B0F5801F06D1FFE7CF
:102C700040F60010C0F23D00109015E040F6F04024
:102C8000C4F2024000688007002809D5FFE70E98CB
:102C9000B0F5A01F04D1FFE74FF40040109002E010
:102CA00000201090FFE7FFE7FFE7FFE7FFE7FFE700
:102CB00001F0C2BD40F6D840C4F20240006800F402
:102CC00060000E900E9820B9FFE703F08FFC109083
:102CD00071E040F60040C4F20240006800010028A4
:102CE0000BD5FFE70E98B0F5001F06D1FFE714A83B
:102CF000FEF75CFE159810905CE040F60040C4F2D0
:102D000002400068800000280BD5FFE70E98B0F560
:102D1000800F06D1FFE711A8FEF7C4FF12981090AC
:102D200047E040F60040C4F20240006880070028F7
:102D300013D5FFE70E98B0F5C00F0ED1FFE740F6B0
:102D40000040C4F202400068C0F3C10149F2000033
:102D5000C0F2D030C84010902AE040F60040C4F2E3
:102D600002400068800500280BD5FFE70E98B0F5FB
:102D7000000F06D1FFE740F60010C0F23D001090B2
:102D800015E040F6F040C4F20240006880070028D9
:102D900009D5FFE70E98B0F5200F04D1FFE74FF4F7
:102DA0000040109002E000201090FFE7FFE7FFE7EF
:102DB000FFE7FFE7FFE701F03FBD40F6D840C4F270
:102DC0000240006800F0E0600E900E9820B9FFE726
:102DD00003F00CFC109071E040F60040C4F2024099
:102DE0000068000100280BD5FFE70E98B0F1807F46
:102DF00006D1FFE714A8FEF7D9FD159810905CE006
:102E000040F60040C4F202400068800000280BD564
:102E1000FFE70E98B0F1007F06D1FFE711A8FEF79B
:102E200041FF1298109047E040F60040C4F2024083
:102E300000688007002813D5FFE70E98B0F1407FA7
:102E40000ED1FFE740F60040C4F202400068C0F334
:102E5000C10149F20000C0F2D030C84010902AE011
:102E600040F60040C4F202400068800500280BD5FF
:102E7000FFE70E98B0F1806F06D1FFE740F6001033
:102E8000C0F23D00109015E040F6F040C4F2024060
:102E900000688007002809D5FFE70E98B0F1A06F01
:102EA00004D1FFE74FF40040109002E000201090A2
:102EB000FFE7FFE7FFE7FFE7FFE7FFE701F0BCBC45
:102EC00040F6D840C4F20240006800F060500E9016
:102ED0000E9820B9FFE703F089FB109071E040F6EF
:102EE0000040C4F202400068000100280BD5FFE753
:102EF0000E98B0F1006F06D1FFE714A8FEF756FD5B
:102F0000159810905CE040F60040C4F20240006862
:102F1000800000280BD5FFE70E98B0F1805F06D146
:102F2000FFE711A8FEF7BEFE1298109047E040F6AA
:102F30000040C4F2024000688007002813D5FFE774
:102F40000E98B0F1C05F0ED1FFE740F60040C4F22A
:102F500002400068C0F3C10149F20000C0F2D03065
:102F6000C84010902AE040F60040C4F202400068D9
:102F7000800500280BD5FFE70E98B0F1005F06D161
:102F8000FFE740F60010C0F23D00109015E040F65B
:102F9000F040C4F2024000688007002809D5FFE72E
:102FA0000E98B0F1205F04D1FFE74FF4004010907D
:102FB00002E000201090FFE7FFE7FFE7FFE7FFE7F1
:102FC000FFE701F039BC40F6DC40C4F20240006883
:102FD00000F007000E900E9820B9FFE703F006FB03
:102FE00010906CE040F60040C4F20240006800011E
:102FF00000280AD5FFE70E98012806D1FFE714A89C
:10300000FEF7D4FC1598109058E040F60040C4F24A
:1030100002400068800000280AD5FFE70E980228C9
:1030200006D1FFE711A8FEF73DFE1298109044E08C
:1030300040F60040C4F2024000688007002812D524
:10304000FFE70E9803280ED1FFE740F60040C4F2D8
:1030500002400068C0F3C10149F20000C0F2D03064
:10306000C840109028E040F60040C4F202400068DA
:10307000800500280AD5FFE70E98042806D1FFE74F
:1030800040F60010C0F23D00109014E040F6F04011
:10309000C4F2024000688007002808D5FFE70E98B8
:1030A000052804D1FFE74FF40040109002E0002013
:1030B0001090FFE7FFE7FFE7FFE7FFE7FFE701F01B
:1030C000BBBB40F6DC40C4F20240006800F0700078
:1030D0000E900E9820B9FFE703F088FA10906CE08C
:1030E00040F60040C4F202400068000100280AD502
:1030F000FFE70E98102806D1FFE714A8FEF756FC4C
:103100001598109058E040F60040C4F20240006864
:10311000800000280AD5FFE70E98202806D1FFE797
:1031200011A8FEF7BFFD1298109044E040F6004051
:10313000C4F2024000688007002812D5FFE70E980D
:1031400030280ED1FFE740F60040C4F2024000688C
:10315000C0F3C10149F20000C0F2D030C840109065
:1031600028E040F60040C4F20240006880050028D4
:103170000AD5FFE70E98402806D1FFE740F6001079
:10318000C0F23D00109014E040F6F040C4F202405E
:1031900000688007002808D5FFE70E98502804D162
:1031A000FFE74FF40040109002E000201090FFE78E
:1031B000FFE7FFE7FFE7FFE7FFE701F03DBB40F672
:1031C000E040C4F20240006800F0E0600E900E980B
:1031D00020B9FFE703F032FA10905FE00E98B0F1EB
:1031E000807F06D1FFE714A8FEF7E0FB159810904A
:1031F00053E00E98B0F1007F06D1FFE711A8FEF76B
:1032000051FD1298109047E040F60040C4F2024091
:1032100000688007002813D5FFE70E98B0F1407FC3
:103220000ED1FFE740F60040C4F202400068C0F350
:10323000C10149F20000C0F2D030C84010902AE02D
:1032400040F60040C4F202400068800500280BD51B
:10325000FFE70E98B0F1806F06D1FFE740F600104F
:10326000C0F23D00109015E040F6F040C4F202407C
:1032700000688007002809D5FFE70E98B0F1A06F1D
:1032800004D1FFE74FF40040109002E000201090BE
:10329000FFE7FFE7FFE7FFE7FFE7FFE701F0CCBA53
:1032A00040F6E840C4F20240006800F007000E90CB
:1032B0000E9820B9FFE703F07FF910905AE00E98BE
:1032C000012804D1FFE703F0CDF9109051E00E98EA
:1032D000022806D1FFE714A8FEF768FB16981090A5
:1032E00046E040F60040C4F2024000688003002837
:1032F0000AD5FFE70E98032806D1FFE747F64000FE
:10330000C0F27D10109032E040F60040C4F202405E
:1033100000688007002812D5FFE70E9804280ED118
:10332000FFE740F60040C4F202400068C0F3C1016C
:1033300049F20000C0F2D030C840109016E040F6CC
:103340000040C4F202400068800500280AD5FFE76B
:103350000E98052806D1FFE740F60010C0F23D00A8
:10336000109002E000201090FFE7FFE7FFE7FFE783
:10337000FFE7FFE701F060BA40F6E840C4F2024020
:10338000006800F008000E9040F6F040C4F20240E1
:1033900000688007002807D5FFE70E9820B9FFE7EF
:1033A0004FF40040109014E040F6F040C4F20240A8
:1033B00000680001002808D5FFE70E98082804D10E
:1033C000FFE74FF4FA40109002E000201090FFE772
:1033D000FFE701F031BA40F6E440C4F20240006871
:1033E00000F440300E900E9820B9FFE703F0FEF88D
:1033F000109040E00E98B0F5803F06D1FFE711A88D
:10340000FEF750FC1398109034E040F60040C4F2F0
:10341000024000688007002813D5FFE70E98B0F53A
:10342000003F0ED1FFE740F60040C4F202400068C2
:10343000C0F3C10149F20000C0F2D030C840109082
:1034400017E040F60040C4F2024000688005002802
:103450000BD5FFE70E98B0F5403F06D1FFE740F6E9
:103460000010C0F23D00109002E000201090FFE735
:10347000FFE7FFE7FFE701F0DFB940F6E440C4F201
:103480000240006800F440200E900E9820B9FFE73B
:1034900003F0ACF8109040E00E98B0F5802F06D104
:1034A000FFE711A8FEF7FEFB1398109034E040F6FA
:1034B0000040C4F2024000688007002813D5FFE7EF
:1034C0000E98B0F5002F0ED1FFE740F60040C4F291
:1034D00002400068C0F3C10149F20000C0F2D030E0
:1034E000C840109017E040F60040C4F20240006867
:1034F000800500280BD5FFE70E98B0F5402F06D1C8
:10350000FFE740F60010C0F23D00109002E00020FE
:103510001090FFE7FFE7FFE7FFE701F08DB940F606
:10352000E440C4F20240006800F440100E900E988F
:1035300020B9FFE703F082F8109040E00E98B0F554
:10354000801F06D1FFE711A8FEF7ACFB139810907F
:1035500034E040F60040C4F20240006880070028D2
:1035600013D5FFE70E98B0F5001F0ED1FFE740F628
:103570000040C4F202400068C0F3C10149F20000FB
:10358000C0F2D030C840109017E040F60040C4F2BE
:1035900002400068800500280BD5FFE70E98B0F5C3
:1035A000401F06D1FFE740F60010C0F23D0010902A
:1035B00002E000201090FFE7FFE7FFE7FFE701F0E0
:1035C0003BB940F6E440C4F20240006800F4400019
:1035D0000E900E9820B9FFE703F030F8109040E00D
:1035E0000E98B0F5800F06D1FFE711A8FEF75AFB41
:1035F0001398109034E040F60040C4F20240006896
:103600008007002813D5FFE70E98B0F5000F0ED104
:10361000FFE740F60040C4F202400068C0F3C10179
:1036200049F20000C0F2D030C840109017E040F6D8
:103630000040C4F202400068800500280BD5FFE777
:103640000E98B0F5400F06D1FFE740F60010C0F22B
:103650003D00109002E000201090FFE7FFE7FFE739
:10366000FFE701F0E9B840F6E440C4F20240006828
:1036700000F040700E900E9820B9FFE702F0B6FF00
:1036800010902BE00E98B0F1807F06D1FFE711A8D3
:10369000FEF708FB139810901FE040F60040C4F2BC
:1036A000024000688007002813D5FFE70E98B0F1AC
:1036B000007F0ED1FFE740F60040C4F202400068F0
:1036C000C0F3C10149F20000C0F2D030C8401090F0
:1036D00002E000201090FFE7FFE7FFE701F0ACB841
:1036E00040F6DC40C4F20240006800F4E0600E9056
:1036F0000E980990C8B1FFE70998B0F5807F18D0FF
:10370000FFE70998B0F5007F19D0FFE70998B0F5F9
:10371000407F1AD0FFE70998B0F5806F26D0FFE709
:103720000998B0F5A06F32D081E002F087FF1090C9
:1037300080E014A8FEF73AF9149810907AE011A8E6
:10374000FEF7B0FA1398109074E040F6F040C4F21F
:10375000024000688007002804D5FFE74FF40040CE
:10376000109002E000201090FFE763E040F6F04088
:10377000C4F2024000680001002804D5FFE74FF4BE
:10378000FA40109002E000201090FFE752E040F66F
:10379000E840C4F20240006800F040400F9040F65C
:1037A0000040C4F2024000688007002811D5FFE7FE
:1037B0000F9870B9FFE740F60040C4F2024000687D
:1037C000C0F3C10149F20000C0F2D030C8401090EF
:1037D0002CE040F60040C4F202400068800500285A
:1037E0000BD5FFE70F98B0F1804F06D1FFE740F609
:1037F0000010C0F23D00109017E040F60040C4F207
:1038000002400068800300280BD5FFE70F98B0F155
:10381000004F06D1FFE747F64000C0F27D10109040
:1038200002E000201090FFE7FFE7FFE702E0002042
:103830001090FFE701F000B840F6DC40C4F202400F
:10384000006800F4E0400E900E980890C8B1FFE7C1
:103850000898B0F5805F18D0FFE70898B0F5005FD2
:1038600019D0FFE70898B0F5405F1AD0FFE7089835
:10387000B0F5804F26D0FFE70898B0F5A04F32D0C2
:1038800081E002F0B3FE109080E014A8FEF78EF8FD
:10389000149810907AE011A8FEF704FA139810908B
:1038A00074E040F6F040C4F202400068800700284F
:1038B00004D5FFE74FF40040109002E00020109084
:1038C000FFE763E040F6F040C4F202400068000108
:1038D000002804D5FFE74FF4FA40109002E00020E2
:1038E0001090FFE752E040F6E840C4F20240006862
:1038F00000F040400F9040F60040C4F202400068E3
:103900008007002811D5FFE70F9870B9FFE740F650
:103910000040C4F202400068C0F3C10149F2000057
:10392000C0F2D030C84010902CE040F60040C4F205
:1039300002400068800500280BD5FFE70F98B0F122
:10394000804F06D1FFE740F60010C0F23D00109016
:1039500017E040F60040C4F20240006880030028EF
:103960000BD5FFE70F98B0F1004F06D1FFE747F600
:103970004000C0F27D10109002E000201090FFE7A0
:10398000FFE7FFE702E000201090FFE700F054BFE0
:1039900040F6DC40C4F20240006800F4E0200E90E3
:1039A0000E980790C8B1FFE70798B0F5803F18D090
:1039B000FFE70798B0F5003F19D0FFE70798B0F58B
:1039C000403F1AD0FFE70798B0F5802F26D0FFE7D9
:1039D0000798B0F5A02F32D081E002F02FFE1090B2
:1039E00080E014A8FDF7E2FF149810907AE011A887
:1039F000FEF758F91398109074E040F6F040C4F2C6
:103A0000024000688007002804D5FFE74FF400401B
:103A1000109002E000201090FFE763E040F6F040D5
:103A2000C4F2024000680001002804D5FFE74FF40B
:103A3000FA40109002E000201090FFE752E040F6BC
:103A4000E840C4F20240006800F040400F9040F6A9
:103A50000040C4F2024000688007002811D5FFE74B
:103A60000F9870B9FFE740F60040C4F202400068CA
:103A7000C0F3C10149F20000C0F2D030C84010903C
:103A80002CE040F60040C4F20240006880050028A7
:103A90000BD5FFE70F98B0F1804F06D1FFE740F656
:103AA0000010C0F23D00109017E040F60040C4F254
:103AB00002400068800300280BD5FFE70F98B0F1A3
:103AC000004F06D1FFE747F64000C0F27D1010908E
:103AD00002E000201090FFE7FFE7FFE702E0002090
:103AE0001090FFE700F0A8BE40F6DC40C4F20240B0
:103AF000006800F4E0000E900E980690C8B1FFE751
:103B00000698B0F5801F18D0FFE70698B0F5001FA3
:103B100019D0FFE70698B0F5401F1AD0FFE70698C6
:103B2000B0F5800F26D0FFE70698B0F5A00F32D091
:103B300081E002F083FD109080E014A8FDF736FFCD
:103B4000149810907AE011A8FEF7ACF81398109032
:103B500074E040F6F040C4F202400068800700289C
:103B600004D5FFE74FF40040109002E000201090D1
:103B7000FFE763E040F6F040C4F202400068000155
:103B8000002804D5FFE74FF4FA40109002E000202F
:103B90001090FFE752E040F6E840C4F202400068AF
:103BA00000F040400F9040F60040C4F20240006830
:103BB0008007002811D5FFE70F9870B9FFE740F69E
:103BC0000040C4F202400068C0F3C10149F20000A5
:103BD000C0F2D030C84010902CE040F60040C4F253
:103BE00002400068800500280BD5FFE70F98B0F170
:103BF000804F06D1FFE740F60010C0F23D00109064
:103C000017E040F60040C4F202400068800300283C
:103C10000BD5FFE70F98B0F1004F06D1FFE747F64D
:103C20004000C0F27D10109002E000201090FFE7ED
:103C3000FFE7FFE702E000201090FFE700F0FCBD87
:103C400040F6DC40C4F20240006800F0E0600E90F4
:103C50000E980590C8B1FFE70598B0F1807F18D0A5
:103C6000FFE70598B0F1007F19D0FFE70598B0F1A4
:103C7000407F1AD0FFE70598B0F1806F26D0FFE7AC
:103C80000598B0F1A06F32D081E002F0D7FC10901F
:103C900080E014A8FDF78AFE149810907AE011A82D
:103CA000FEF700F81398109074E040F6F040C4F26C
:103CB000024000688007002804D5FFE74FF4004069
:103CC000109002E000201090FFE763E040F6F04023
:103CD000C4F2024000680001002804D5FFE74FF459
:103CE000FA40109002E000201090FFE752E040F60A
:103CF000E840C4F20240006800F040400F9040F6F7
:103D00000040C4F2024000688007002811D5FFE798
:103D10000F9870B9FFE740F60040C4F20240006817
:103D2000C0F3C10149F20000C0F2D030C840109089
:103D30002CE040F60040C4F20240006880050028F4
:103D40000BD5FFE70F98B0F1804F06D1FFE740F6A3
:103D50000010C0F23D00109017E040F60040C4F2A1
:103D600002400068800300280BD5FFE70F98B0F1F0
:103D7000004F06D1FFE747F64000C0F27D101090DB
:103D800002E000201090FFE7FFE7FFE702E00020DD
:103D90001090FFE700F050BD40F6DC40C4F2024056
:103DA000006800F0E0400E900E980490C8B1FFE764
:103DB0000498B0F1805F18D0FFE70498B0F1005F7D
:103DC00019D0FFE70498B0F1405F1AD0FFE70498DC
:103DD000B0F1804F26D0FFE70498B0F1A04F32D069
:103DE00081E002F02BFC109080E014A8FDF7DEFDCE
:103DF000149810907AE011A8FDF754FF13981090D2
:103E000074E040F6F040C4F20240006880070028E9
:103E100004D5FFE74FF40040109002E0002010901E
:103E2000FFE763E040F6F040C4F2024000680001A2
:103E3000002804D5FFE74FF4FA40109002E000207C
:103E40001090FFE752E040F6E840C4F202400068FC
:103E500000F040400F9040F60040C4F2024000687D
:103E60008007002811D5FFE70F9870B9FFE740F6EB
:103E70000040C4F202400068C0F3C10149F20000F2
:103E8000C0F2D030C84010902CE040F60040C4F2A0
:103E900002400068800500280BD5FFE70F98B0F1BD
:103EA000804F06D1FFE740F60010C0F23D001090B1
:103EB00017E040F60040C4F202400068800300288A
:103EC0000BD5FFE70F98B0F1004F06D1FFE747F69B
:103ED0004000C0F27D10109002E000201090FFE73B
:103EE000FFE7FFE702E000201090FFE700F0A4BC2E
:103EF00040F6E840C4F20240006800F440700E90C2
:103F000040F60040C4F2024000688003002809D552
:103F1000FFE70E9830B9FFE747F64000C0F27D108A
:103F200010901AE00E98B0F5807F06D1FFE717A831
:103F3000FDF7C0FB189810900EE00E98B0F5007FCA
:103F400006D1FFE714A8FDF731FD1598109002E0A7
:103F500000201090FFE7FFE7FFE700F06DBC40F6A0
:103F6000E040C4F20240006800F007000E900E9896
:103F7000039004286DD80399DFE801F003090F15B9
:103F80001B0017A8FDF796FB1898109064E014A882
:103F9000FDF70CFD149810905EE011A8FDF782FE6D
:103FA0001198109058E048F20000C0F2BB00109049
:103FB00052E040F6E840C4F20240006800F04040A1
:103FC0000F9040F60040C4F20240006880070028CD
:103FD00011D5FFE70F9870B9FFE740F60040C4F233
:103FE00002400068C0F3C10149F20000C0F2D030C5
:103FF000C84010902CE040F60040C4F20240006837
:10400000800500280BD5FFE70F98B0F1804F06D14F
:10401000FFE740F60010C0F23D00109017E040F6B8
:104020000040C4F202400068800300280BD5FFE77F
:104030000F98B0F1004F06D1FFE747F64000C0F2FD
:104040007D10109002E000201090FFE7FFE7FFE7EF
:1040500002E000201090FFE700F0EEBB40F6E040E9
:10406000C4F20240006800F038000E900E980290F2
:10407000202800F27C800299DFE801F0117979793B
:104080007979797917797979797979791D7979795E
:10409000797979792379797979797979290017A8E2
:1040A000FDF708FB1898109064E014A8FDF77EFC5B
:1040B000149810905EE011A8FDF7F4FD119810908F
:1040C00058E048F20000C0F2BB00109052E040F609
:1040D000E840C4F20240006800F040400F9040F613
:1040E0000040C4F2024000688007002811D5FFE7B5
:1040F0000F9870B9FFE740F60040C4F20240006834
:10410000C0F3C10149F20000C0F2D030C8401090A5
:104110002CE040F60040C4F2024000688005002810
:104120000BD5FFE70F98B0F1804F06D1FFE740F6BF
:104130000010C0F23D00109017E040F60040C4F2BD
:1041400002400068800300280BD5FFE70F98B0F10C
:10415000004F06D1FFE747F64000C0F27D101090F7
:1041600002E000201090FFE7FFE7FFE702E00020F9
:104170001090FFE760E340F6E040C4F202400068C0
:1041800000F4E0700E900E98019088B1FFE701985E
:10419000402813D0FFE70198802815D0FFE7019849
:1041A000C02817D0FFE70198B0F5807F18D067E0EE
:1041B00017A8FDF77FFA1898109064E014A8FDF78F
:1041C000F5FB149810905EE011A8FDF76BFD1198B7
:1041D000109058E048F20000C0F2BB00109052E08E
:1041E00040F6E840C4F20240006800F040400F9002
:1041F00040F60040C4F2024000688007002811D554
:10420000FFE70F9870B9FFE740F60040C4F20240A4
:104210000068C0F3C10149F20000C0F2D030C840CC
:1042200010902CE040F60040C4F202400068800587
:1042300000280BD5FFE70F98B0F1804F06D1FFE7BC
:1042400040F60010C0F23D00109017E040F600402C
:10425000C4F202400068800300280BD5FFE70F98E6
:10426000B0F1004F06D1FFE747F64000C0F27D10E5
:10427000109002E000201090FFE7FFE7FFE702E068
:1042800000201090FFE7D7E240F6E040C4F2024081
:10429000006800F460600E900E9820B9FFE702F00D
:1042A000B9F9109073E040F60040C4F20240006893
:1042B000000100280BD5FFE70E98B0F5007F06D16E
:1042C000FFE714A8FDF772FB159810905EE040F62A
:1042D0000040C4F202400068800000280BD5FFE7D0
:1042E0000E98B0F5806F06D1FFE711A8FDF7DAFC54
:1042F0001298109049E040F60040C4F20240006875
:104300008007002813D5FFE70E98B0F5C06F0ED1D7
:10431000FFE740F60040C4F202400068C0F3C1016C
:1043200049F20000C0F2D030C84010902CE040F6B6
:104330000040C4F202400068800500280BD5FFE76A
:104340000E98B0F5006F06D1FFE740F60010C0F2FE
:104350003D00109017E040F60040C4F202400068B3
:10436000800300280BD5FFE70E98B0F5206F06D12B
:10437000FFE747F64000C0F27D10109002E00020F9
:104380001090FFE7FFE7FFE7FFE7FFE7FFE753E2F4
:1043900040F6E040C4F20240006800F4E0400E90B5
:1043A0000E9820B9FFE702F049F9109073E040F64B
:1043B0000040C4F202400068000100280BD5FFE76E
:1043C0000E98B0F5805F06D1FFE714A8FDF7EEFA6E
:1043D000159810905EE040F60040C4F2024000687C
:1043E000800000280BD5FFE70E98B0F5005F06D1DE
:1043F000FFE711A8FDF756FC1298109049E040F62F
:104400000040C4F2024000688007002813D5FFE78F
:104410000E98B0F5405F0ED1FFE740F60040C4F2C1
:1044200002400068C0F3C10149F20000C0F2D03080
:10443000C84010902CE040F60040C4F202400068F2
:10444000800500280BD5FFE70E98B0F5804F06D108
:10445000FFE740F60010C0F23D00109017E040F674
:104460000040C4F202400068800300280BD5FFE73B
:104470000E98B0F5A04F06D1FFE747F64000C0F216
:104480007D10109002E000201090FFE7FFE7FFE7AB
:10449000FFE7FFE7FFE7CFE140F6E040C4F202406C
:1044A000006800F460300E900E9820B9FFE702F02B
:1044B000B1F8109073E040F60040C4F2024000688A
:1044C000000100280BD5FFE70E98B0F5004F06D18C
:1044D000FFE714A8FDF76AFA159810905EE040F621
:1044E0000040C4F202400068800000280BD5FFE7BE
:1044F0000E98B0F5803F06D1FFE711A8FDF7D2FB7B
:104500001298109049E040F60040C4F20240006862
:104510008007002813D5FFE70E98B0F5C03F0ED1F5
:10452000FFE740F60040C4F202400068C0F3C1015A
:1045300049F20000C0F2D030C84010902CE040F6A4
:104540000040C4F202400068800500280BD5FFE758
:104550000E98B0F5003F06D1FFE740F60010C0F21C
:104560003D00109017E040F60040C4F202400068A1
:10457000800300280BD5FFE70E98B0F5203F06D149
:10458000FFE747F64000C0F27D10109002E00020E7
:104590001090FFE7FFE7FFE7FFE7FFE7FFE74BE1EB
:1045A00040F6E440C4F20240006800F003000E90C0
:1045B0000E980090032864D80099DFE801F0020605
:1045C0000C1201F0F9FF10905EE017A8FDF772F8E9
:1045D0001898109058E014A8FDF7E8F91698109074
:1045E00052E040F6E840C4F20240006800F040406B
:1045F0000F9040F60040C4F2024000688007002897
:1046000011D5FFE70F9870B9FFE740F60040C4F2FC
:1046100002400068C0F3C10149F20000C0F2D0308E
:10462000C84010902CE040F60040C4F20240006800
:10463000800500280BD5FFE70F98B0F1804F06D119
:10464000FFE740F60010C0F23D00109017E040F682
:104650000040C4F202400068800300280BD5FFE749
:104660000F98B0F1004F06D1FFE747F64000C0F2C7
:104670007D10109002E000201090FFE7FFE7FFE7B9
:1046800002E000201090FFE7D6E040F6E840C4F2D8
:104690000240006800F0C0000E9040F6F040C4F206
:1046A000024000688007002807D5FFE70E9820B970
:1046B000FFE74FF40040109026E040F6F040C4F2CF
:1046C000024000680001002808D5FFE70E98402846
:1046D00004D1FFE74FF4FA40109014E040F6004098
:1046E000C4F2024000688005002808D5FFE70E9854
:1046F000802804D1FFE748F21200109002E0002069
:104700001090FFE7FFE7FFE796E040F6E840C4F2CD
:104710000240006800F030000E9040F60040C4F205
:10472000024000688004002809D5FFE70E9830B9E0
:10473000FFE746F60040C0F2DC2010903AE040F679
:104740000040C4F202400068800100280AD5FFE75B
:104750000E98102806D1FFE717A8FCF7ABFF1898B2
:10476000109026E040F6F040C4F202400068800756
:10477000002808D5FFE70E98202804D1FFE74FF462
:104780000040109014E040F6F040C4F2024000688F
:104790000001002808D5FFE70E98302804D1FFE774
:1047A0004FF4FA40109002E000201090FFE7FFE77E
:1047B000FFE7FFE740E040F6E440C4F20240006853
:1047C00000F030000E900E98102806D1FFE717A8D1
:1047D000FCF770FF189810902EE040F60040C4F2ED
:1047E00002400068800000280AD5FFE70E982028C4
:1047F00006D1FFE711A8FDF755FA1298109016E0C0
:1048000040F60040C4F202400068800400280AD547
:10481000FFE70E98302806D1FFE746F60040C0F2C9
:10482000DC20109002E000201090FFE7FFE7FFE798
:1048300002E000201090FFE7FFE710981CB080BD59
:1048400080B5ACB02B9000208DF8A3008DF8A200AD
:104850002B98C078C00760B1FFE740F6E841C4F28A
:104860000241086820F040402B9A926D1043086086
:10487000FFE72B980068C007002837D0FFE72B9888
:10488000C06D2790052817D82799DFE801F00304A9
:104890000B12131414E02B98083004F0FBF88DF879
:1048A000A3000DE02B98303004F0AAF98DF8A30096
:1048B00006E005E004E003E001208DF8A300FFE737
:1048C0009DF8A30060B9FFE740F6D841C4F2024169
:1048D000086820F007002B9AD26D1043086004E0AE
:1048E0009DF8A3008DF8A200FFE7FFE72B98007862
:1048F0008007002840F14A80FFE72B98006E269041
:10490000282829D82699DFE801F015272727272707
:10491000272716272727272727271D272727272742
:10492000272724272727272727272527272727271C
:104930002727260014E02B98083004F0ABF88DF8F8
:10494000A3000DE02B98303004F05AF98DF8A30045
:1049500006E005E004E003E001208DF8A300FFE796
:104960009DF8A30060B9FFE740F6D841C4F20241C8
:10497000086820F038002B9A126E1043086004E09B
:104980009DF8A3008DF8A200FFE7FFE72B980078C1
:104990004007002847D5FFE72B98406E2590B0B11F
:1049A000FFE72598402813D0FFE72598802816D0E8
:1049B000FFE72598C02819D0FFE72598B0F5807F3C
:1049C00015D0FFE72598B0F5A07F11D011E014E0D5
:1049D0002B98083004F05EF88DF8A3000DE02B98BA
:1049E000303004F00DF98DF8A30006E005E004E096
:1049F00003E001208DF8A300FFE79DF8A30060B954
:104A0000FFE740F6D841C4F20241086820F4E070A4
:104A10002B9A526E1043086004E09DF8A3008DF8B5
:104A2000A200FFE7FFE72B980078000700284AD58F
:104A3000FFE72B98806E2490C8B1FFE72498B0F56B
:104A4000007F15D0FFE72498B0F5806F17D0FFE7FF
:104A50002498B0F5C06F19D0FFE72498B0F5006F27
:104A600015D0FFE72498B0F5206F11D011E014E0C5
:104A70002B98083004F00EF88DF8A3000DE02B9869
:104A8000303004F0BDF88DF8A30006E005E004E046
:104A900003E001208DF8A300FFE79DF8A30060B9B3
:104AA000FFE740F6D841C4F20241086820F4606094
:104AB0002B9A926E1043086004E09DF8A3008DF8D5
:104AC000A200FFE7FFE72B980078C00600284AD530
:104AD000FFE72B98C06E2390C8B1FFE72398B0F58D
:104AE000805F15D0FFE72398B0F5005F17D0FFE790
:104AF0002398B0F5405F19D0FFE72398B0F5804FB9
:104B000015D0FFE72398B0F5A04F11D011E014E0C5
:104B10002B98083003F0BEFF8DF8A3000DE02B9812
:104B2000303004F06DF88DF8A30006E005E004E0F5
:104B300003E001208DF8A300FFE79DF8A30060B912
:104B4000FFE740F6D841C4F20241086820F4E04093
:104B50002B9AD26E1043086004E09DF8A3008DF8F4
:104B6000A200FFE7FFE72B980078800600284AD5CF
:104B7000FFE72B98006F2290C8B1FFE72298B0F5AD
:104B8000004F15D0FFE72298B0F5803F17D0FFE720
:104B90002298B0F5C03F19D0FFE72298B0F5003F4A
:104BA00015D0FFE72298B0F5203F11D011E014E0B6
:104BB0002B98083003F06EFF8DF8A3000DE02B98C2
:104BC000303004F01DF88DF8A30006E005E004E0A5
:104BD00003E001208DF8A300FFE79DF8A30060B972
:104BE000FFE740F6D841C4F20241086820F4603083
:104BF0002B9A126F1043086004E09DF8A3008DF813
:104C0000A200FFE7FFE72B980078400600284AD56E
:104C1000FFE72B98406F2190C8B1FFE72198B0F5CE
:104C2000802F15D0FFE72198B0F5002F17D0FFE7B0
:104C30002198B0F5402F19D0FFE72198B0F5801FDB
:104C400015D0FFE72198B0F5A01F11D011E014E0B6
:104C50002B98083003F01EFF8DF8A3000DE02B9871
:104C6000303003F0CDFF8DF8A30006E005E004E04E
:104C700003E001208DF8A300FFE79DF8A30060B9D1
:104C8000FFE740F6D841C4F20241086820F4E01082
:104C90002B9A526F1043086004E09DF8A3008DF832
:104CA000A200FFE7FFE72B980078000600284AD50E
:104CB000FFE72B98806F2090C8B1FFE72098B0F5F0
:104CC000001F15D0FFE72098B0F5800F17D0FFE741
:104CD0002098B0F5C00F19D0FFE72098B0F5000F6D
:104CE00015D0FFE72098B0F5200F11D011E014E0A7
:104CF0002B98083003F0CEFE8DF8A3000DE02B9822
:104D0000303003F07DFF8DF8A30006E005E004E0FD
:104D100003E001208DF8A300FFE79DF8A30060B930
:104D2000FFE740F6D841C4F20241086820F4600071
:104D30002B9A926F1043086004E09DF8A3008DF851
:104D4000A200FFE7FFE72B984078C00700284AD071
:104D5000FFE72B98C06F1F90C8B1FFE71F98B0F115
:104D6000807F15D0FFE71F98B0F1007F17D0FFE7D5
:104D70001F98B0F1407F19D0FFE71F98B0F1806F06
:104D800015D0FFE71F98B0F1A06F11D011E014E02B
:104D90002B98083003F07EFE8DF8A3000DE02B98D1
:104DA000303003F02DFF8DF8A30006E005E004E0AD
:104DB00003E001208DF8A300FFE79DF8A30060B990
:104DC000FFE740F6D841C4F20241086820F0E060F5
:104DD0002B9AD26F1043086004E09DF8A3008DF871
:104DE000A200FFE7FFE72B984078800700284CD50A
:104DF000FFE72B98D0F880001E90C8B1FFE71E98FF
:104E0000B0F1006F15D0FFE71E98B0F1805F17D0AA
:104E1000FFE71E98B0F1C05F19D0FFE71E98B0F110
:104E2000005F15D0FFE71E98B0F1205F11D011E0B0
:104E300014E02B98083003F02DFE8DF8A3000DE050
:104E40002B98303003F0DCFE8DF8A30006E005E07F
:104E500004E003E001208DF8A300FFE79DF8A30024
:104E600068B9FFE740F6D841C4F20241086820F073
:104E700060502B9AD2F880201043086004E09DF81F
:104E8000A3008DF8A200FFE7FFE72B9840784007CA
:104E9000002839D5FFE72B98D0F884001D9005280D
:104EA00017D81D99DFE801F003040B12131414E066
:104EB0002B98083003F0EEFD8DF8A3000DE02B9841
:104EC000303003F09DFE8DF8A30006E005E004E01D
:104ED00003E001208DF8A300FFE79DF8A30068B967
:104EE000FFE740F6DC41C4F20241086820F0070009
:104EF0002B9AD2F884201043086004E09DF8A300A8
:104F00008DF8A200FFE7FFE72B9840780007002804
:104F100047D5FFE72B98D0F888001C90A0B1FFE799
:104F20001C98102811D0FFE71C98202814D0FFE708
:104F30001C98302817D0FFE71C98402814D0FFE7B2
:104F40001C98502811D011E014E02B98083003F081
:104F5000A1FD8DF8A3000DE02B98303003F050FE3A
:104F60008DF8A30006E005E004E003E001208DF8E1
:104F7000A300FFE79DF8A30068B9FFE740F6DC4116
:104F8000C4F20241086820F070002B9AD2F8882001
:104F90001043086004E09DF8A3008DF8A200FFE72D
:104FA000FFE72B984078C00600284CD5FFE72B98E8
:104FB000D0F88C001B90C8B1FFE71B98B0F1807F40
:104FC00015D0FFE71B98B0F1007F17D0FFE71B98C3
:104FD000B0F1407F19D0FFE71B98B0F1806F15D07A
:104FE000FFE71B98B0F1A06F11D011E014E02B98EF
:104FF000083003F04FFD8DF8A3000DE02B98303002
:1050000003F0FEFD8DF8A30006E005E004E003E0F8
:1050100001208DF8A300FFE79DF8A30068B9FFE722
:1050200040F6E041C4F20241086820F0E0602B9AAB
:10503000D2F88C201043086004E09DF8A3008DF89E
:10504000A200FFE7FFE72B984078800600283AD5BA
:10505000FFE72B98D0F890001A9078B1FFE71A98E4
:10506000B0F5803F0BD0FFE71A98B0F5003F0DD0A8
:10507000FFE71A98B0F5403F09D009E00CE02B9803
:10508000303003F0BDFD8DF8A30005E004E003E03F
:1050900001208DF8A300FFE79DF8A30068B9FFE7A2
:1050A00040F6E441C4F20241086820F440302B9AF3
:1050B000D2F890201043086004E09DF8A3008DF81A
:1050C000A200FFE7FFE72B984078400600283AD57A
:1050D000FFE72B98D0F89400199078B1FFE7199862
:1050E000B0F5802F0BD0FFE71998B0F5002F0DD049
:1050F000FFE71998B0F5402F09D009E00CE02B9894
:10510000303003F07DFD8DF8A30005E004E003E0FE
:1051100001208DF8A300FFE79DF8A30068B9FFE721
:1051200040F6E441C4F20241086820F440202B9A82
:10513000D2F894201043086004E09DF8A3008DF895
:10514000A200FFE7FFE72B984078000600283AD539
:10515000FFE72B98D0F89800189078B1FFE71898DF
:10516000B0F5801F0BD0FFE71898B0F5001F0DD0E9
:10517000FFE71898B0F5401F09D009E00CE02B9824
:10518000303003F03DFD8DF8A30005E004E003E0BE
:1051900001208DF8A300FFE79DF8A30068B9FFE7A1
:1051A00040F6E441C4F20241086820F440102B9A12
:1051B000D2F898201043086004E09DF8A3008DF811
:1051C000A200FFE7FFE72B984079400700283AD577
:1051D000FFE72B98D0F89C00179078B1FFE717985D
:1051E000B0F5800F0BD0FFE71798B0F5000F0DD08A
:1051F000FFE71798B0F5400F09D009E00CE02B98B5
:10520000303003F0FDFC8DF8A30005E004E003E07E
:1052100001208DF8A300FFE79DF8A30068B9FFE720
:1052200040F6E441C4F20241086820F440002B9AA1
:10523000D2F89C201043086004E09DF8A3008DF88C
:10524000A200FFE7FFE72B988078C007A0B3FFE735
:105250002B98D0F8A000169050B1FFE71698B0F147
:10526000807F06D0FFE71698B0F1007F08D008E0F5
:105270000BE02B98303003F0C3FC8DF8A30004E062
:1052800003E001208DF8A300FFE79DF8A30068B9B3
:10529000FFE740F6E441C4F20241086820F04070A4
:1052A0002B9AD2F8A0201043086004E09DF8A300D8
:1052B0008DF8A200FFE7FFE72B9840790007002850
:1052C00011D5FFE7FFE740F61C41C4F20241086830
:1052D00020F4004008602B98D0F8002108681043A3
:1052E0000860FFE7FFE72B988078800700284CD5FF
:1052F000FFE72B98D0F8A4001590C8B1FFE71598E8
:10530000B0F5807F15D0FFE71598B0F5007F17D076
:10531000FFE71598B0F5407F19D0FFE71598B0F575
:10532000806F15D0FFE71598B0F5A06F11D011E090
:1053300014E02B98083003F0ADFB8DF8A3000DE0CE
:105340002B98303003F05CFC8DF8A30006E005E0FC
:1053500004E003E001208DF8A300FFE79DF8A3001F
:1053600068B9FFE740F6DC41C4F20241086820F466
:10537000E0602B9AD2F8A4201043086004E09DF866
:10538000A3008DF8A200FFE7FFE72B988078400785
:1053900000284CD5FFE72B98D0F8A8001490C8B18E
:1053A000FFE71498B0F5805F15D0FFE71498B0F5CB
:1053B000005F17D0FFE71498B0F5405F19D0FFE702
:1053C0001498B0F5804F15D0FFE71498B0F5A04FB2
:1053D00011D011E014E02B98083003F05BFB8DF83E
:1053E000A3000DE02B98303003F00AFC8DF8A300E9
:1053F00006E005E004E003E001208DF8A300FFE7EC
:105400009DF8A30068B9FFE740F6DC41C4F2024111
:10541000086820F4E0402B9AD2F8A82010430860D6
:1054200004E09DF8A3008DF8A200FFE7FFE72B98AA
:105430000079800600284CD5FFE72B98D0F8AC0007
:105440001390C8B1FFE71398B0F5803F15D0FFE780
:105450001398B0F5003F17D0FFE71398B0F5403F21
:1054600019D0FFE71398B0F5802F15D0FFE71398F8
:10547000B0F5A02F11D011E014E02B98083003F004
:1054800009FB8DF8A3000DE02B98303003F0B8FB3A
:105490008DF8A30006E005E004E003E001208DF8AC
:1054A000A300FFE79DF8A30068B9FFE740F6DC41E1
:1054B000C4F20241086820F4E0202B9AD2F8AC2014
:1054C0001043086004E09DF8A3008DF8A200FFE7F8
:1054D000FFE72B980079400600284CD5FFE72B9872
:1054E000D0F8B0001290C8B1FFE71298B0F5801F55
:1054F00015D0FFE71298B0F5001F17D0FFE71298FC
:10550000B0F5401F19D0FFE71298B0F5800F15D005
:10551000FFE71298B0F5A00F11D011E014E02B981E
:10552000083003F0B7FA8DF8A3000DE02B98303067
:1055300003F066FB8DF8A30006E005E004E003E05D
:1055400001208DF8A300FFE79DF8A30068B9FFE7ED
:1055500040F6DC41C4F20241086820F4E0002B9AD6
:10556000D2F8B0201043086004E09DF8A3008DF845
:10557000A200FFE7FFE72B980079000600284CD532
:10558000FFE72B98D0F8B4001190C8B1FFE711984D
:10559000B0F1807F15D0FFE71198B0F1007F17D0F0
:1055A000FFE71198B0F1407F19D0FFE71198B0F1F3
:1055B000806F15D0FFE71198B0F1A06F11D011E006
:1055C00014E02B98083003F065FA8DF8A3000DE085
:1055D0002B98303003F014FB8DF8A30006E005E0B3
:1055E00004E003E001208DF8A300FFE79DF8A3008D
:1055F00068B9FFE740F6DC41C4F20241086820F0D8
:10560000E0602B9AD2F8B4201043086004E09DF8C3
:10561000A3008DF8A200FFE7FFE72B984079C007B1
:1056200000284CD0FFE72B98D0F8B8001090C8B1F4
:10563000FFE71098B0F1805F15D0FFE71098B0F148
:10564000005F17D0FFE71098B0F1405F19D0FFE777
:105650001098B0F1804F15D0FFE71098B0F1A04F2F
:1056600011D011E014E02B98083003F013FA8DF8F4
:10567000A3000DE02B98303003F0C2FA8DF8A300A0
:1056800006E005E004E003E001208DF8A300FFE759
:105690009DF8A30068B9FFE740F6DC41C4F202417F
:1056A000086820F0E0402B9AD2F8B8201043086038
:1056B00004E09DF8A3008DF8A200FFE7FFE72B9818
:1056C0008078000700284ED5FFE72B98D0F8C0005F
:1056D0000F90A0B1FFE70F98B0F5803F18D0FFE71B
:1056E0000F98B0F5003F1AD0FFE70F98B0F5403F94
:1056F0001CD0FFE70F98B0F5802F18D018E040F6C7
:105700002841C4F20241086840F40030086013E008
:105710002B98083003F0BEF98DF8A3000CE02B980D
:10572000303003F06DFA8DF8A30005E004E003E0EB
:1057300001208DF8A300FFE79DF8A30068B9FFE7FB
:1057400040F6E841C4F20241086820F4E0202B9AB8
:10575000D2F8C0201043086004E09DF8A3008DF843
:10576000A200FFE7FFE72B988078C00600284DD500
:10577000FFE72B98D0F8C4000E90A0B1FFE70E9879
:10578000B0F5002F18D0FFE70E98B0F5801F1AD0A3
:10579000FFE70E98B0F5C01F1CD0FFE70E98B0F5DC
:1057A000001F17D017E040F62841C4F202410868F4
:1057B00040F40030086012E02B98083003F06AF9DA
:1057C0008DF8A3000BE02B98303003F019FA8DF818
:1057D000A30004E003E001208DF8A300FFE79DF89B
:1057E000A30068B9FFE740F6E841C4F20241086847
:1057F00020F460102B9AD2F8C4201043086004E013
:105800009DF8A3008DF8A200FFE7FFE72B988078B2
:105810008006002834D5FFE72B98D0F8D0000D90F3
:10582000022809D3FFE70D98022806D0FFE70D985C
:105830000338032808D308E00BE02B98083003F066
:1058400029F98DF8A30004E003E001208DF8A300FE
:10585000FFE79DF8A30068B9FFE740F6E841C4F20E
:105860000241086820F007002B9AD2F8D02010439C
:10587000086004E09DF8A3008DF8A200FFE7FFE7B1
:105880002B9840798007002827D5FFE72B98D0F880
:10589000D4000C9020B1FFE70C98082801D001E05B
:1058A00004E003E001208DF8A300FFE79DF8A300CA
:1058B00068B9FFE740F6E841C4F20241086820F009
:1058C00008002B9AD2F8D4201043086004E09DF819
:1058D000A3008DF8A200FFE7FFE72B98C0788007B0
:1058E000002840F1B580FFE740F62401C4F20241F0
:1058F000086840F001000860FBF72EFC2990FFE7E4
:1059000040F62400C4F202400068C00760B9FFE717
:10591000FBF722FC2999401A032804D3FFE7032050
:105920008DF8A30000E0EBE79DF8A300002840F00D
:105930008980FFE740F6F040C4F20240006800F4BE
:1059400040702A902A98D0B1FFE72A982B99D1F875
:10595000F410884213D0FFE740F6F041C4F2024150
:10596000086820F440702A90086840F4803008608D
:10597000086820F4803008602A980860FFE79DF8E6
:10598000A800C007E0B1FFE7FBF7E6FB2990FFE7BF
:1059900040F6F040C4F202400068800700280ED4B0
:1059A000FFE7FBF7D9FB2999401A41F28931884278
:1059B00004D3FFE703208DF8A30000E0E8E7FFE74A
:1059C0009DF8A300C0BBFFE7FFE72B98D0F8F400D9
:1059D00000F44070B0F5407F13D1FFE740F61C4162
:1059E000C4F20241086820F47C502B9AD2F8F420CB
:1059F0004FF6F043C0F6FF731A4040EA12100860F9
:105A000008E040F61C41C4F20241086820F47C50D2
:105A10000860FFE740F6F041C4F20241086820F454
:105A2000407008602B98D0F8F4206FF31F3208689C
:105A300010430860FFE704E09DF8A3008DF8A20082
:105A4000FFE704E09DF8A3008DF8A200FFE7FFE761
:105A50002B98C0784007002839D5FFE72B98D0F85D
:105A6000C8000B9060B1FFE70B98102809D0FFE742
:105A70000B9820280ED0FFE70B9830280BD00BE0B6
:105A80000EE040F62841C4F20241086840F40030BC
:105A9000086005E004E003E001208DF8A300FFE7C3
:105AA0009DF8A30068B9FFE740F6E841C4F202415F
:105AB000086820F030002B9AD2F8C8201043086004
:105AC00004E09DF8A3008DF8A200FFE7FFE72B9804
:105AD00080784006002835D5FFE72B98D0F8CC0019
