:020000040800F2
:10000000B82A05206102000849B20008E9A80008E2
:1000100045B20008B108000869D50008730200085D
:1000200000000000000000000000000081BB00088C
:10003000E50800080000000041B30008A5BB000867
:100040007D0200087D0200087D0200087D02000894
:100050007D0200087D0200087D0200087D02000884
:100060007D0200087D0200087D0200087D02000874
:10007000090900087D0200087D0200087D020008D1
:100080007D0200087D0200087D0200087D02000854
:100090007D0200087D0200087D0200087D02000844
:1000A000FD0800087D0200087D0200087D020008AE
:1000B0007D0200087D0200087D0200087D02000824
:1000C0007D0200087D0200087D0200087D02000814
:1000D000000000007D0200087D0200087D0200088B
:1000E0007D0200087D0200087D0200087D020008F4
:1000F0007D020008D9BD00087D0200087D020008CD
:100100007D0200087D0200087D0200087D020008D3
:100110007D0200087D0200087D0200087D020008C3
:100120006DB600087D02000859D500087D02000860
:100130007D0200087D0200087D0200087D020008A3
:100140007D0200087D0200087D0200087D02000893
:100150007D0200087D0200087D0200087D02000883
:100160007D0200087D0200087D0200087D02000873
:100170007D0200087D0200087D0200087D02000863
:100180007D0200087D0200087D0200087D02000853
:100190007D0200087D0200087D0200087D02000843
:1001A0007D0200087D0200087D0200087D02000833
:1001B0007D0200087D0200087D0200087D02000823
:1001C0007D0200087D0200087D0200087D02000813
:1001D0007D0200087D020008000000007D0200088A
:1001E0007D0200087D020008000000000000000001
:1001F0007D02000800000000000000007D020008F1
:100200007D0200087D0200087D0200080000000059
:10021000000000007D020008000000007D020008D0
:100220007D0200087D0200087D0200087D020008B2
:100230007D0200087D0200087D0200087D020008A2
:100240007D0200087D0200087D020008DFF80CD066
:1002500000F08AFA0048004745E60008B82A052061
:100260000748804707480047FEE7FEE7FEE7FEE74E
:10027000FEE7FEE7FEE7FEE7FEE7FEE7FEE700003B
:10028000A1BC00084D0200082DE9F05F05460020E2
:1002900092469B4688460646814640241BE02846F7
:1002A00041464746224600F096F853465A46C01A41
:1002B000914110D311461846224600F07DF82D1AC0
:1002C00067EB01084F4622460120002100F074F838
:1002D00017EB00094E41201EA4F10104DFDC484663
:1002E00031462A464346BDE8F09F10B5441A0346FE
:1002F000944209D28318114403E011F8014D03F828
:10030000014D521EF9D210BD40EA0104A40703D0EA
:1003100009E010C9121F10C3042AFAD203E011F831
:10032000014B03F8014B521EF9D210BDD2B201E0CD
:1003300000F8012B491EFBD270470022F6E710B5EA
:1003400013460A4604461946FFF7F0FF204610BD43
:10035000421C10F8011B0029FBD1801A704710B510
:10036000002200E0521C835C8C5CA34201D1002B74
:10037000F8D1D8B2E1B2401A10BD034611F8012BF2
:1003800000F8012B002AF9D11846704730B50B460A
:10039000014600202022012409E021FA02F59D42B5
:1003A00005D303FA02F5491B04FA02F52844151E89
:1003B000A2F10102F1DC30BD202A04DB203A00FA70
:1003C00002F1002070479140C2F1200320FA03F3AC
:1003D000194390407047202A04DB203A21FA02F0AA
:1003E0000021704721FA02F3D040C2F1200291406F
:1003F0000843194670472DE9FE4F804681EA030005
:10040000C00F0C46009021F0004123F00045B8EBEE
:100410000200A94105D24046214690461C460B46A3
:10042000024623F00040104347D0270DC7F30A00CF
:10043000C3F30A510290401A019040286BDAC3F3CB
:10044000130040F4801B0098924620B10023D2EBA9
:10045000030A63EB0B0B01985946C0F1400250466A
:10046000FFF7AAFF06460D4650465946019A00F08E
:1004700093F910EB08006141002487EA115284EAE5
:10048000E7731A4340D0009A62B3019A012A4FEAF7
:10049000075215DC001B61EB02014FF0004202EA3B
:1004A0000752CDE90042001C41F5801132462B462F
:1004B00000F093F903B0BDE8F08F40462146F9E71C
:1004C000001B61EB0201001C41F5801300185B4129
:1004D0002018A2F5001747EB030140EAD570B619C2
:1004E0006D4111E06D084FEA360645EAC0754FEAE6
:1004F0000752001B61EB0201001C41F58011490805
:100500004FEA30000019514132462B4603B0BDE896
:10051000F04F00F053B90098012240000023D0EBC7
:10052000020263EBE073009821464FEAE074B8EBF7
:10053000000061EB0401E9E783F000435BE781F031
:10054000004158E72DE9FE4F81EA030404F000441E
:1005500021F0004100944FF0000B23F0004350EADB
:1005600001045ED052EA03045BD0C3F30A54C1F322
:100570000A552C44A4F2F3340194A0FB0254C1F3B5
:10058000130141F48011C3F3130343F4801301FBFF
:10059000024400FB034E840A970A44EA815447EA66
:1005A0008357A4FB076802958D0A05FB07854FEA70
:1005B000932C04FB0C542705029D4FEA065847EA8A
:1005C0001637B5EB08056EEB070C870E920E47EA5F
:1005D000811742EA8312A7FB0201B6EB0B0164EB21
:1005E00000042B0D43EA0C335E1844EB1C50DA4632
:1005F0005146E7FB0201C5F313044FEA0B3343EA0C
:1006000014534FEA0432019C43EA0603A4F10C049C
:100610000294009CCDE900B400F0DFF803B0BDE81F
:10062000F08F00200146F9E72DE9F04D81EA03043F
:1006300004F0004B21F0004514464FF0000A23F06F
:10064000004150EA050220D054EA01021DD0C5F352
:100650000A570246C5F31303C1F31300C1F30A5648
:1006600040F4801543F48013A7EB0608101BD64610
:1006700008F2FD3873EB050002D308F1010801E030
:1006800092185B41B8F1000F03DA00200146BDE883
:10069000F08D00204FF48011064684460EE0171BB3
:1006A00073EB050705D3121B63EB050306434CEA06
:1006B000010C49084FEA300092185B4150EA0107EB
:1006C000EDD152EA030012D082EA040083EA050168
:1006D000084305D0101BAB4106D20122002306E0DF
:1006E00000224FF0004302E06FF0010253101AEBBA
:1006F00006004CEB085110EB0A0041EB0B01BDE882
:10070000F04D00F05BB8C1F30A52C1F3130140F29F
:10071000FF3341F480119A4202DA0020014670470B
:1007200040F233439A42A2F2334202DC5242FFF7D4
:1007300052BEFFF741BE000030B5041E71F1000447
:1007400004DB4FF00044404264EB0101141E73F1DE
:10075000000405DB1C464FF00043524263EB0403E8
:10076000994208BF904230BD1CB509480090094825
:1007700001900546009C06E0E06840F0010394E823
:10078000070098471034AC42F6D3FFF763FD000032
:10079000C8F30108E8F30108202A06DBCB17203A4A
:1007A00041FA02F043EAE07306E041FA02F3D04076
:1007B000C2F12002914008431946704710B5141E3B
:1007C00073F1000408DA401C41F1000192185B410A
:1007D0001A4301D120F0010010BD2DE9F04D9246E1
:1007E0009B4611B1B1FA81F202E0B0FA80F22032F8
:1007F0009046FFF7E1FD04460F4640EA0A0041EA51
:100800000B0153465A46084313D0114653EA0100E0
:1008100019D0C8F140025046FFF7DDFD05460E46EF
:10082000504659464246FFF7C7FD084305D0012010
:1008300004E020463946BDE8F08D0020054346EA35
:10084000E0762C4337430A986305E40AA0EB0800DE
:100850000022FD0A44EA47540A3002D5002001462E
:10086000E9E7010510196941DDE908450019694109
:10087000BDE8F04DA2E730B58C1810F8012B12F04E
:100880000F0301D110F8013B120906D110F8012B1A
:1008900003E010F8015B01F8015B5B1EF9D101E098
:1008A00001F8013B521EFBD1A142E6D3002030BD2E
:1008B000FFE7FEE74EF6FC51CEF20001086840F07B
:1008C0008070086041F20001CEF20001086840F03B
:1008D0000100086041F20401CEF20001002008602E
:1008E000704700007047000080B582B0ADF8060088
:1008F000BDF8060001F014FC02B080BD80B54FF4D5
:10090000005001F0B7FC80BD80B5022001F0B2FCC0
:1009100080BD000080B584B015F0D2FB039015F0C7
:10092000E3FB029016F014FF03466946002048607E
:1009300008604EF6FC70C0F601004EF21942C0F697
:100940000002032112F088FA04B080BD72B6FFE7FE
:10095000FEE7000080B584B000208DF80E00002076
:10096000C4F2022001904FF480510122029201F062
:1009700047FE0198029A4FF4006101F041FE032006
:100980000DF0E6FDFFE70020C4F202204FF4805195
:1009900001F01EFE012814D1FFE79DF80E00013082
:1009A0008DF80E009DF80E00FB2806DBFFE700F037
:1009B000E5F901208DF80F0010E002200DF0C8FDD0
:1009C000E1E70020C4F202204FF40061002200920F
:1009D00001F016FE00988DF80F00FFE79DF80F005C
:1009E00004B080BD80B586B00020C4F20220019022
:1009F0004FF4004100910022029201F001FE3220EA
:100A000001F08EFB009901980122049201F0F8FD9B
:100A1000642001F085FB0198049A4FF4805101F0A5
:100A2000EFFD0198049A4FF4006101F0E9FD0A20FE
:100A300001F076FB0298049A8DF817000DF117016A
:100A4000039100F0BFF90399049A16208DF817005E
:100A5000802000F0B7F90399049A0C208DF8170054
:100A6000882000F0AFF906B080BD000080B584B0EA
:100A70000020C4F2022001904FF400610291002294
:100A8000039201F0BDFD0198039A4FF4805101F0EB
:100A9000B7FD022000900DF05BFD01980299012244
:100AA00001F0AEFD00980DF053FD01980299039AF4
:100AB00001F0A6FD04B080BD80B584B0ADF80E0095
:100AC00002918DF8072000F02DF9702000F0BAF99E
:100AD000FFF740FF9DF80E0000F0B4F9FFF73AFF72
:100AE00000F020F9712000F0ADF9FFF733FF00208E
:100AF0008DF80600FFE79DF806009DF80710884274
:100B00000FDAFFE700F012F802994A1C029208700F
:100B1000FFF7ACFFFFE79DF8060001308DF80600F7
:100B2000E9E700F02BF904B080BD000080B584B087
:100B300000208DF80E000020C4F202204FF48051F6
:100B4000012201F05DFD02200DF002FD08208DF86C
:100B50000F00FFE79DF80F0001282FDBFFE70020C3
:100B6000C4F2022002904FF400610191002201F0D2
:100B700047FD02200DF0ECFC01990298012201F0E2
:100B80003FFD02989DF80E1049008DF80E104FF4AD
:100B9000805101F01DFD012806D1FFE79DF80E00F0
:100BA00001308DF80E00FFE702200DF0D1FCFFE7C9
:100BB0009DF80F0001388DF80F00CBE70020C4F23C
:100BC00002204FF48051012201F01AFD9DF80E0021
:100BD00004B080BD80B582B000208DF807008DF88C
:100BE0000600009002200DF106010122FFF764FFCC
:100BF0009DF806000007002873D0FFE79DF8060067
:100C000000F00F01FF208840C0434CF29C61C2F20B
:100C10000101087000208DF80700FFE79DF807002C
:100C2000042855DCFFE74CF29C60C2F2010000781A
:100C30009DF80710C840C007002842D0FFE79DF884
:100C400007104EF69470C0F6010030F811006946A6
:100C50000422FFF731FF9DF800109DF8010001F01C
:100C60000F0140EA01209DF807204CF29C61C2F27E
:100C7000010101EB420250809DF802209DF8030023
:100C800002F00F0240EA02209DF8072001EB42012A
:100C900088819DF8000000F0C000802810D0FFE798
:100CA0009DF807004CF29C61C2F2010101EB400289
:100CB000002090819DF8072001EB420148802FE041
:100CC000FFE7FFE79DF8070001308DF80700A5E773
:100CD0004CF29C61C2F20101087840F0800008707B
:100CE0001EE04CF29C60C2F2010000780006002871
:100CF00009D5FFE74CF29C61C2F20101087800F0CF
:100D00007F0008700BE04CF29C61C2F201010020F0
:100D100048808881087800F0E0000870FFE7FFE76E
:100D200002B080BD80B586B00020C4F202200390DE
:100D30004FF4805101910122009201F061FC009A70
:100D400003984FF40061049101F05AFC04200290D2
:100D50000DF0FEFB019903980022059201F050FC72
:100D600002980DF0F5FB03980499059A01F048FCF0
:100D700002200DF0EDFB06B080BD000080B584B010
:100D80000020C4F2022001904FF40061012203927E
:100D900001F036FC042000900DF0DAFB01984FF4CE
:100DA00080510291002201F02BFC00980DF0D0FB45
:100DB00001980299039A01F023FC02200DF0C8FB70
:100DC00004B080BD80B584B0ADF80E0002918DF8FE
:100DD0000720002000908DF80500FFF7A3FF70208A
:100DE00000F030F8FFF7B6FD9DF80E0000F02AF88D
:100DF000FFF7B0FD00988DF80600FFE79DF80600AC
:100E00009DF80710884216DAFFE702989DF8061051
:100E1000405C00F017F8FFF79DFD8DF805009DF888
:100E2000050008B1FFE706E0FFE79DF80600013086
:100E30008DF80600E2E7FFF7A1FF9DF8050004B07A
:100E400080BD000080B584B08DF80F000020C4F292
:100E500002204FF40061002201F0D2FB03200DF0CC
:100E600077FB08208DF80E00FFE79DF80E000128A3
:100E70003ADBFFE79DF80F000006002809D5FFE7E1
:100E80000020C4F202204FF48051012201F0B8FB8F
:100E900008E00020C4F202204FF48051002201F04B
:100EA000AFFBFFE70020C4F2022000904FF4006186
:100EB0000191012201F0A4FB022002900DF048FBF9
:100EC00000980199002201F09BFB02980DF040FB75
:100ED0009DF80F0040008DF80F00FFE79DF80E0011
:100EE00001388DF80E00C0E704B080BD80B582B037
:100EF00040F29440C2F200004FF4E13111F004FEE0
:100F00004EF6A070C0F601004DF23431C0F601017A
:100F1000002301931A4612F01DF80198F022009266
:100F2000114615F08BFC009A0198114615F0B0FCA3
:100F300002B080BD80B501200FF01CFA80BD00001A
:100F400080B510F025FB80BD80B510F047FB002078
:100F500080BD00007047000080B54CF2B862C2F25C
:100F60000102012108460FF0A7FD4CF2B461C2F264
:100F70000101086080BD000080B54CF2B460C2F28F
:100F8000010000684FF0FF3110F0B6F880BD00009E
:100F900080B54CF2B460C2F201000068002319462B
:100FA0001A460FF0A9FE80BD80B582B00190FFF710
:100FB00019FD48F60C11C2F20301002008704860C8
:100FC0008860C8600861486108760198C86102B00D
:100FD00080BD000080B590B08DF83F000E910D925D
:100FE00001F024FB0C900C9848F60C11C2F203019E
:100FF0004A68801A0B900E988A68801A0A900D9899
:10100000C968401A09909DF83F00C007D8B1FFE7B2
:1010100048F60C10C2F203000078C00798B9FFE749
:1010200048F60C11C2F20301012008700C984860C8
:101030000E9888600D98C8600E9808610D984861F8
:101040000020087606E19DF83F00C007002848D040
:10105000FFE748F60C10C2F203000078C007002832
:101060003FD0FFE70E9948F60C10C2F20300016171
:101070000D994161007EC00790BBFFE70B98B0F56A
:10108000487F2DD3FFE70A9805900028069002D5E7
:101090000598404206900698092820DCFFE7099849
:1010A00003900028049002D50398404204900498CD
:1010B000092814DCFFE748F60C10C2F203000121F6
:1010C0000176C06950B1FFE748F60C10C2F2030088
:1010D000C3690E990D9A02209847FFE7FFE7FFE7E3
:1010E000B8E09DF83F00C007002840F0B380FFE75C
:1010F00048F60C10C2F203000078C007002800F088
:10110000A980FFE748F60C10C2F20300002101702D
:10111000007EC00708B1FFE79CE00A98002803D4CE
:10112000FFE70A98029003E00A9840420290FFE726
:10113000029808900998002803D4FFE709980190C5
:1011400003E0099840420190FFE701980790089852
:1011500009281CDCFFE70798092818DCFFE70B9833
:101160000009182812D8FFE748F60C10C2F2030055
:10117000C06950B1FFE748F60C10C2F20300816865
:10118000C268C36901209847FFE7FFE762E008985B
:101190000799B0EB410F2ADDFFE70A98B0F1FF3F56
:1011A00012DCFFE748F60C10C2F20300C06950B130
:1011B000FFE748F60C10C2F203008168C268C369F9
:1011C00003209847FFE711E048F60C10C2F2030035
:1011D000C06950B1FFE748F60C10C2F20300816805
:1011E000C268C36904209847FFE7FFE731E007982A
:1011F0000899B0EB410F2ADDFFE70998B0F1FF3FF6
:1012000012DCFFE748F60C10C2F20300C06950B1CF
:10121000FFE748F60C10C2F203008168C268C36998
:1012200005209847FFE711E048F60C10C2F20300D2
:10123000C06950B1FFE748F60C10C2F203008168A4
:10124000C268C36906209847FFE7FFE700E0FFE7B1
:10125000FFE7FFE710B080BD80B5C0B020901F91C0
:1012600000208DF87B001B901F98C0680021C4F2FD
:101270007F01884201D0FFE700E0FFE7FFE7209809
:1012800090F85400012804D1FFE702208DF8870070
:10129000FDE32099012081F85400FFE7FFE7209843
:1012A000006809F061FC002840F0DD83FFE71F982B
:1012B0000068012810D0FFE71F9800680221C0F2E3
:1012C000304188420DD1FFE71F98C0680021C4F269
:1012D0007F01884205D1FFE72098006809F0E4FB10
:1012E000FFE7209800681F990A68496809F044FCE4
:1012F0002098006809F038FC1A902098006809F0DE
:1013000013FC19901A98002840F0B881FFE719984B
:10131000002840F0B381FFE71F988068B0F1004FCC
:101320000ED1FFE7209800681F990968002209F094
:1013300041FC209800684FF0004109F0E7FC0CE008
:10134000209800681F9A1168926809F033FC209871
:101350000068002109F0DAFCFFE71F984069209936
:101360000968C96801F01801890888401D901F9814
:10137000006904281CD0FFE7209800681F990A68BC
:1013800009691D9B09F068FC209800681F9A116983
:10139000926909F093FC209800681F9A1169127FE6
:1013A000013AB2FA82F25209520609F073FC64E182
:1013B00020980068002109F0A7FB000348B9FFE767
:1013C00020980068002109F09FFBC0F3846018900A
:1013D00018E020980068002109F096FB90FAA0F030
:1013E0003E903E9820B9FFE720208DF8FF0005E0F1
:1013F0003E98B0FA80F08DF8FF00FFE79DF8FF00FF
:101400001890FFE7189817901F980068000330B9EC
:10141000FFE71F980068C0F38460169015E01F98DE
:10142000006890FAA0F03C903C9820B9FFE720209B
:101430008DF8F70005E03C98B0FA80F08DF8F700E1
:10144000FFE79DF8F7001690FFE717981699884276
:1014500007D1FFE7209800680022114609F042FCFE
:10146000FFE720980068012109F04EFB000348B90E
:10147000FFE720980068012109F046FBC0F3846073
:10148000159018E020980068012109F03DFB90FAC2
:10149000A0F03A903A9820B9FFE720208DF8EF00AD
:1014A00005E03A98B0FA80F08DF8EF00FFE79DF87C
:1014B000EF001590FFE7159814901F98006800033F
:1014C00030B9FFE71F980068C0F38460139015E0FF
:1014D0001F98006890FAA0F03890389820B9FFE77C
:1014E00020208DF8E70005E03898B0FA80F08DF8FC
:1014F000E700FFE79DF8E7001390FFE714981399C2
:10150000884207D1FFE7209800680121002209F0F6
:10151000E9FBFFE720980068022109F0F5FA0003D3
:1015200048B9FFE720980068022109F0EDFAC0F3FE
:101530008460129018E020980068022109F0E4FA13
:1015400090FAA0F03690369820B9FFE720208DF869
:10155000DF0005E03698B0FA80F08DF8DF00FFE795
:101560009DF8DF001290FFE7129811901F98006815
:10157000000330B9FFE71F980068C0F38460109043
:1015800015E01F98006890FAA0F03490349820B9C4
:10159000FFE720208DF8D70005E03498B0FA80F0FE
:1015A0008DF8D700FFE79DF8D7001090FFE711985E
:1015B0001099884207D1FFE7209800680221002295
:1015C00009F090FBFFE720980068032109F09CFADE
:1015D000000348B9FFE720980068032109F094FA56
:1015E000C0F384600F9018E020980068032109F090
:1015F0008BFA90FAA0F03290329820B9FFE72020C1
:101600008DF8CF0005E03298B0FA80F08DF8CF0069
:10161000FFE79DF8CF000F90FFE70F980E901F98FF
:101620000068000330B9FFE71F980068C0F38460CA
:101630000D9015E01F98006890FAA0F03090309857
:1016400020B9FFE720208DF8C70005E03098B0FAF8
:1016500080F08DF8C700FFE79DF8C7000D90FFE709
:101660000E980D99884207D1FFE720980068032162
:10167000002209F037FBFFE7FFE7FFE7209800684B
:1016800009F062FA002840F04481FFE720980068E2
:101690001F9A1168D26809F0A9FA1F98C068002142
:1016A000C4F27F01884240F03381FFE72098006850
:1016B0000C901F980068000330B9FFE71F9800687E
:1016C000C0F384600B9015E01F98006890FAA0F0BA
:1016D0002E902E9820B9FFE720208DF8BF0005E05E
:1016E0002E98B0FA80F08DF8BF00FFE79DF8BF009C
:1016F0000B90FFE70B98013000F01F0009287DD800
:10170000FFE71F980068000330B9FFE71F980068E3
:10171000C0F384600A9015E01F98006890FAA0F06A
:101720002C902C9820B9FFE720208DF8B70005E019
:101730002C98B0FA80F08DF8B700FFE79DF8B7005D
:101740000A90FFE70A98013000F01F008006099018
:101750001F980068000330B9FFE71F980068C0F3C6
:101760008460089015E01F98006890FAA0F02A9015
:101770002A9820B9FFE720208DF8AF0005E02A98CD
:10178000B0FA80F08DF8AF00FFE79DF8AF00089049
:10179000FFE709980899013101F01F0201219140EA
:1017A000084307901F980068000330B9FFE71F98AF
:1017B0000068C0F38460069015E01F98006890FAF6
:1017C000A0F02890289820B9FFE720208DF8A700E6
:1017D00005E02898B0FA80F08DF8A700FFE79DF8A3
:1017E000A7000690FFE707980699013101F01F0155
:1017F00001EB410140EA0150059082E01F9800682A
:10180000000330B9FFE71F980068C0F384600490BC
:1018100015E01F98006890FAA0F02690269820B94D
:10182000FFE720208DF89F0005E02698B0FA80F0B1
:101830008DF89F00FFE79DF89F000490FFE7049854
:10184000013000F01F00800603901F98006800031D
:1018500030B9FFE71F980068C0F38460029015E07C
:101860001F98006890FAA0F02490249820B9FFE710
:1018700020208DF8970005E02498B0FA80F08DF8CC
:101880009700FFE79DF897000290FFE70398029901
:10189000013101F01F0201219140084301901F987E
:1018A0000068000330B9FFE71F980068C0F3846048
:1018B000009015E01F98006890FAA0F022902298FE
:1018C00020B9FFE720208DF88F0005E02298B0FABC
:1018D00080F08DF88F00FFE79DF88F000090FFE704
:1018E00001990098013000F01F0000EB4002002039
:1018F000CFF6206000EB0250084340F000700590E6
:10190000FFE70C9805991F9A926809F053F9FFE7D1
:10191000FFE71F98408848F20801084200F0A280C3
:10192000FFE748F20030C4F2022009F0E5F81C900D
:101930001F9800680021CCF22131884233D1FFE7A3
:101940009DF87200000600282DD4FFE7209800685B
:1019500048F20001C4F20221884223D1FFE71C981B
:1019600040F4000148F20030C4F2022009F066F9A8
:1019700040F28820C2F200000068800942F66351FC
:10198000C0F23E51A0FB01108109022000EB410092
:101990001B90FFE71B9820B1FFE71B9801381B90B5
:1019A000F8E7FFE75DE01F9800680021C4F22931E5
:1019B000884219D1FFE79DF87300C007A0B9FFE77F
:1019C0002098006848F20011C4F2022188420AD12E
:1019D000FFE71C9840F0807148F20030C4F202200A
:1019E00009F02CF9FFE73BE01F9800680021CCF2DA
:1019F000527188421AD1FFE79DF872004006002814
:101A000014D4FFE72098006848F20001C4F20221D4
:101A100088420AD1FFE71C9840F4800148F2003068
:101A2000C4F2022009F00AF9FFE718E01F980068E5
:101A30000021C4F25A7188420FD1FFE72098006854
:101A400048F20001C4F20221884205D0FFE7209845
:101A5000006809F035F8FFE700E0FFE7FFE7FFE780
:101A6000FFE7FFE708E02099886D40F020008865D7
:101A700001208DF87B00FFE7FFE72099002081F827
:101A80005400FFE79DF87B008DF88700FFE79DF885
:101A9000870040B080BD000080B588B0069000206F
:101AA0008DF817000190069820B9FFE701208DF806
:101AB0001F004FE10698006940B1FFE7069890F8D3
:101AC0002000012801D1FFE7FFE7FFE70698806DBE
:101AD00050B9FFE7069800F041F906990020C86563
:101AE000069981F85400FFE70698006809F024F889
:101AF00028B1FFE70698006808F0CAFFFFE70698DC
:101B0000006809F029F8F0B9FFE70698006808F0C6
:101B1000E3FF40F28820C2F200000068800942F62C
:101B20006351C0F23E51A0FB01108109022000EB7D
:101B300041000190FFE7019820B1FFE701980138CB
:101B40000190F8E7FFE70698006809F005F870B91A
:101B5000FFE70699886D40F0100088650699C86D0A
:101B600040F00100C86501208DF81700FFE70698D6
:101B7000006808F0F9FF03900698806DC006002801
:101B800000F1DA80FFE70398002840F0D580FFE7F6
:101B90000698806D40F0020020F4807006998865F8
:101BA0000698006808F0D0FFE0B9FFE748F20000AF
:101BB000C4F2022008F0C8FF009048F20010C4F2FE
:101BC000022008F0C1FF01460098084348B9FFE72A
:101BD0000698416848F20030C4F2022009F020F86B
:101BE000FFE7FFE706994A7E886B40EA42308A6841
:101BF000CB681843104391F8201040EA014004904C
:101C0000069890F8200001280BD1FFE70698416A5A
:101C10000020CFF6FE7000EB414104980843049089
:101C2000FFE70698806A50B1FFE70699886AC96A9B
:101C300000F478700143049808430490FFE7069885
:101C40000068C06844F20701CFF6F07108400499BB
:101C5000084306990968C86006980068006920F082
:101C60004060069A1168126B10430861069800687C
:101C700008F05AFF02900398E8BBFFE70298D0BB38
:101C8000FFE70699087E91F83410800340EA41008E
:101C9000049006980068C06844F2020188430499E1
:101CA000084306990968C860069890F83C00012826
:101CB00019D1FFE706980068006940F2FD7120EA3B
:101CC0000102069B1968186CD3F844E0D3F848C0A9
:101CD00040EA0E0040EA0C00DB6C1843104340F071
:101CE0000100086106E006980168086920F001001B
:101CF0000861FFE7FFE70698006901280CD1FFE7BC
:101D000006980068006B20F00F00069A1168D269EF
:101D1000013A1043086306E006980168086B20F05A
:101D20000F000863FFE70698806D40F0010020F087
:101D300002000699886508E00699886D40F0100059
:101D4000886501208DF81700FFE79DF817008DF8D2
:101D50001F00FFE79DF81F0008B080BD80B5C6B02A
:101D6000459002A84FF48471FEF7E7FA45980068A1
:101D700048F20001C4F2022188421ED1FFE7002090
:101D800003904FF400110291369002A803F08AFEEE
:101D900018B1FFE7FEF7DAFDFFE7FFE740F68C40FA
:101DA000C4F20240016841F480610160006800F4FF
:101DB000806001900198FFE7FFE746B080BD00001A
:101DC00087B006900591049200208DF80F001F2027
:101DD00002909DF81400C00720B9FFE701208DF89C
:101DE0000F004BE0FFE70299481E0290002001908F
:101DF00051B1FFE70598029901F01F0120FA01F1A6
:101E0000012088430190FFE70198C00708B1FFE770
:101E1000E9E70498009018282BD80099DFE801F032
:101E200028292929292929291F292929292929292D
:101E300016292929292929290D000298072804D3C0
:101E4000FFE701208DF80F00FFE716E00298082851
:101E500004D3FFE701208DF80F00FFE70DE00298A3
:101E6000102804D3FFE701208DF80F00FFE704E0FE
:101E700003E001208DF80F00FFE7FFE79DF80F005A
:101E800078B9FFE7059806990968486106980068DF
:101E9000806820F018000499084306990968886052
:101EA000FFE79DF80F0007B07047000080B582B0D3
:101EB0000090009820B9FFE701208DF8070057E057
:101EC0000098407F38B9FFE7009900200877009814
:101ED00000F052F8FFE70099022048770098007957
:101EE00080B9FFE70098016841F6B750C0F2C140E1
:101EF000486100980068806820F01800009909681F
:101F000088600BE000988168C268FFF759FF20B134
:101F1000FFE701208DF807002AE0FFE700984079ED
:101F200030B9FFE7009801684FF0FF30086104E026
:101F30000098016800690861FFE700980068806800
:101F400020F06000009A1168526910438860009880
:101F50000068806820F08000009A11689269104340
:101F6000886000990120487700208DF80700FFE77E
:101F70009DF8070002B080BD82B001900198006812
:101F800043F20001C4F20201884210D1FFE7FFE7EB
:101F900040F68840C4F20240016841F4805101607B
:101FA000006800F4805000900098FFE7FFE702B05F
:101FB0007047000080B584B0029000F037FB0190BC
:101FC000029820B9FFE701208DF80F0079E0029810
:101FD00090F8540002280DD0FFE702992020886570
:101FE000FFE70299002081F84C00FFE701208DF8FF
:101FF0000F0066E002980168486940F004004861FB
:102000000299052081F85400FFE7029800680069F2
:102010008004002827D4FFE700F008FB0199401A4C
:1020200006281FD3FFE70299886D40F010008865ED
:102030000299032081F85400029890F8500000069D
:10204000002805D5FFE70298416F01200873FFE7DC
:10205000FFE70299002081F84C00FFE701208DF88E
:102060000F002EE0D1E702980168486940F00200B5
:1020700048610299042081F85400029801684FF4E5
:10208000FE40C8600299012081F85400029890F83F
:1020900050000006002809D5FFE70298416F012093
:1020A00008730298016800208864FFE7FFE702993F
:1020B000002081F84C00FFE7FFE700208DF80F00BB
:1020C000FFE79DF80F0004B080BD000082B00090D3
:1020D000009820B9FFE701208DF807001CE0009868
:1020E00090F85400022807D0FFE700992020886567
:1020F00001208DF807000FE00099042081F85400BA
:1021000000980168486942F2040210434861FFE701
:1021100000208DF80700FFE79DF8070002B0704728
:1021200080B584B0039000F081FA0290039801908A
:102130000198013048B1FFE740F29420C2F200005C
:102140000178019808440190FFE7FFE700F06EFA7C
:102150000299401A0199884201D2FFE7F6E704B0DC
:1021600080BD000081B000208DF8030042F22800FD
:10217000C4F20200016841F0010101600068C0077B
:1021800020B9FFE701208DF80300FFE79DF8030069
:1021900001B0704781B000208DF8030042F22800A2
:1021A000C4F202000068C007D8B1FFE742F20401A0
:1021B000C4F2020140F22310C4F26750086048F6EE
:1021C000AB10CCF6EF50086042F22800C4F20200D7
:1021D0000068C00720B1FFE701208DF80300FFE78A
:1021E000FFE79DF8030001B07047000080B582B0A2
:1021F000ADF80600BDF80600022807D1FFE748F653
:102200008831C2F203010120087031E0BDF80600F8
:10221000B0F5005F2BD1FFE740F60000C4F20220CA
:102220004FF4005100F0D4F900BBFFE7002100910A
:102230004CF29C62C2F20102107840F04000107033
:102240004CF29860C2F2010000686A460EF0C2F8D3
:10225000FFE7009840B1FFE74EF60451CEF20001CF
:102260004FF080500860FFE7FFE7FFE7FFE7FFE779
:1022700002B080BD80B582B0ADF8060042F20C001D
:10228000C4F202400068BDF8061008420CD0FFE717
:10229000BDF8060042F20C01C4F202410860BDF82C
:1022A000060000F019F8FFE742F21000C4F2024005
:1022B0000068BDF8061008420CD0FFE7BDF8060024
:1022C00042F21001C4F202410860BDF80600FFF7B7
:1022D0008DFFFFE702B080BD81B0ADF8020001B014
:1022E0007047000085B00490039100200090FFE744
:1022F000039800680099C840002800F06681FFE755
:1023000003980068009A01219140084001900198CB
:10231000002800F05681FFE703984068022805D0A6
:10232000FFE703984068122828D1FFE70498009936
:102330006FF0030202EA51010844006A029000981B
:1023400000F0070081000F2000FA01F10298884395
:1023500002900398006900F00F00009901F0070156
:10236000890000FA01F1029808430290029804994A
:10237000009B02EA530211440862FFE704980068D8
:10238000029000984100032000FA01F1029888436E
:1023900002900398406800F003000099490000FA99
:1023A00001F102980843029002980499086003988A
:1023B000406801280FD0FFE70398406802280AD040
:1023C000FFE703984068112805D0FFE703984068AD
:1023D00012282FD1FFE704988068029000984100EE
:1023E000032000FA01F10298884302900398C06824
:1023F0000099490000FA01F10298084302900298FE
:10240000049988600498406802900099012000FABD
:1024100001F102988843029003984068C0F30010CD
:10242000009900FA01F10298084302900298049979
:102430004860FFE70398406800F0030003280CD1D0
:10244000FFE70398406800F0030003281DD1FFE771
:1024500003988068012818D0FFE70498C0680290AC
:1024600000984100032000FA01F10298884302908D
:10247000039880680099490000FA01F10298084326
:10248000029002980499C860FFE70398C079C006DB
:10249000002840F19580FFE7009820F0030042F209
:1024A0006002C4F2024280580290009800F00300DB
:1024B000C1000F2000FA01F10298884302900498AD
:1024C0004FF60041CBF6FD510840800A009901F01B
:1024D0000301C90000FA01F1029808430290029832
:1024E000009921F00301885042F20000C4F202403A
:1024F00000680290019902988843029003988079BD
:10250000C006002805D5FFE701990298084302900C
:10251000FFE7029842F20001C4F20241086042F271
:102520000400C4F2024000680290019902988843B6
:102530000290039880798006002805D5FFE701996D
:10254000029808430290FFE7029842F20401C4F2A5
:102550000241086042F28400C4F202400068029026
:102560000199029888430290039880798007002897
:1025700005D5FFE70199029808430290FFE702980A
:1025800042F28401C4F20241086042F28000C4F2C7
:1025900002400068029001990298884302900398D3
:1025A0008079C00728B1FFE701990298084302909B
:1025B000FFE7029842F28001C4F202410860FFE79F
:1025C000FFE700980130009092E605B070470000E8
:1025D00082B00190ADF8021001980069BDF80210B8
:1025E000084204D0FFE701208DF8010003E000203D
:1025F0008DF80100FFE79DF8010002B07047000070
:1026000082B00190ADF802108DF801209DF8010014
:1026100028B1FFE7BDF802000199886104E0BDF828
:10262000020001998862FFE702B0704741F6D4606A
:10263000C2F205000068704780B584B0029002982D
:1026400020B9FFE701208DF80F0078E0029800F034
:102650007BF8029801684CF6CC400860029801684B
:1026600045F2555008600298016840684860029839
:10267000016880688860FFF7D9FF0190FFE7029842
:102680000068C0688007002814D5FFE7FFF7CEFF79
:102690000199401A22280CD3FFE702980068C0680D
:1026A0008007002804D5FFE703208DF80F0046E0DF
:1026B000FFE7E4E70298006930B9FFE70298016894
:1026C0004FF48040486106E002980168006940F4D8
:1026D00040404861FFE7FFF7A9FF0190FFE702983C
:1026E0000068C068000798B1FFE7FFF79FFF0199F6
:1026F000401A22280BD3FFE702980068C068000741
:1027000020B1FFE703208DF80F0018E0FFE7E6E7B0
:102710000298006800690299C968884205D0FFE7FD
:1027200002980168C068086105E0029801684AF6ED
:10273000AA200860FFE700208DF80F00FFE79DF852
:102740000F0004B080BD000081B0009001B0704760
:1027500081B00090009801684AF6AA200860002025
:1027600001B0704740F29420C2F20000027841F6B6
:10277000D461C2F205010868104408607047000087
:1027800080B582B0032000F0BFF805F09DF840F658
:102790002041C4F20241096801F00F024EF67C713B
:1027A000C0F60101895CC84040F28821C2F20001F4
:1027B0000860042006F054FD012000F011F820B15B
:1027C000FFE701208DF8070005E000F079F8002010
:1027D0008DF80700FFE79DF8070002B080BD0000FC
:1027E00080B58EB00D90FFE740F69C40C4F20240E9
:1027F000016841F001010160006800F001000190F2
:102800000198FFE707A803A904F0D2FF0A980590F2
:10281000059820B9FFE705F01BF8069004E005F0E5
:1028200017F840000690FFE70698400945F6C521D5
:10283000C0F67C21A0FB01014FF0FF3000EBD1106E
:10284000049048F6A820C2F203004FF080410160D6
:102850006321C1600499416000210161816006F03B
:102860001DFF8DF80B009DF80B0010BBFFE748F62D
:10287000A820C2F2030006F069FF8DF80B009DF856
:102880000B00A8B9FFE70D980F280CD8FFE70D99AA
:102890002D20002200F020F80D9840F29821C2F27D
:1028A0000001086003E001208DF80B00FFE7FFE75F
:1028B000FFE72D2000F006F89DF80B000EB080BD5C
:1028C0007047000080B582B0ADF80600BDF9060083
:1028D0000BF042FD02B080BD80B586B0ADF81600A9
:1028E000049103920BF050FD0290BDF91600019087
:1028F00002980499039A08F0A9FC014601980BF08C
:102900004BFD06B080BD000080B582B001900198FB
:102910000BF064FD02B080BD89B0089040F63440F1
:10292000C4F2024000686FF35F20059040F6284033
:10293000C4F20240016801F0030107910168C1F38C
:10294000052106910068C0F300100490049840F639
:102950003841C4F20241096889B2C90800FB01F09C
:1029600000EE100AB8EE400A8DED020A0698002823
:1029700000F03D81FFE707980090012808D0FFE7AD
:102980000098022830D0FFE70098032849D065E07E
:1029900040F60040C4F202400068C0F3C10149F2B1
:1029A0000000C0F2D030C84003909DED030AB8EE9D
:1029B000400A9DED061AB8EE411A80EE010A9DED1F
:1029C000051AB8EE411A9DED022A9FED8F3A22EECC
:1029D000032A31EE021AB7EE002A31EE021A20EE77
:1029E000010A8DED010A65E09DED060AB8EE401A78
:1029F0009FED860A80EE010A9DED051AB8EE411A98
:102A00009DED022A9FED803A22EE032A31EE021A52
:102A1000B7EE002A31EE021A20EE010A8DED010A0E
:102A200048E09DED060AB8EE401A9FED760A80EE6A
:102A3000010A9DED051AB8EE411A9DED022A9FED9F
:102A4000723A22EE032A31EE021AB7EE002A31EE74
:102A5000021A20EE010A8DED010A2BE040F600403B
:102A6000C4F202400068C0F3C10149F20000C0F2A4
:102A7000D030C84003909DED030AB8EE400A9DEDAA
:102A8000061AB8EE411A80EE010A9DED051AB8EE5D
:102A9000411A9DED022A9FED5C3A22EE032A31EEA7
:102AA000021AB7EE002A31EE021A20EE010A8DED6D
:102AB000010AFFE740F60040C4F2024000688001CE
:102AC000002827D5FFE740F62840C4F202400068FE
:102AD000C003002819D5FFE79DED010A40F63440F8
:102AE000C4F20240006880B2400A01EE100AB8EE5B
:102AF000411AB7EE002A31EE021A80EE010A089858
:102B0000BCEEC00A80ED000A03E0089900200860CE
:102B1000FFE703E0089900200860FFE740F6004067
:102B2000C4F2024000688001002827D5FFE740F684
:102B30002840C4F2024000688003002819D5FFE74E
:102B40009DED010A40F63440C4F202400068C0F333
:102B5000064001EE100AB8EE411AB7EE002A31EE37
:102B6000021A80EE010A0898BCEEC00A80ED010A44
:102B700003E0089900204860FFE703E0089900207F
:102B80004860FFE740F60040C4F202400068800160
:102B9000002827D5FFE740F62840C4F2024000682D
:102BA0004003002819D5FFE79DED010A40F63440A7
:102BB000C4F202400068C0F3066001EE100AB8EEED
:102BC000411AB7EE002A31EE021A80EE010A089887
:102BD000BCEEC00A80ED020A03E00899002088607C
:102BE000FFE703E0089900208860FFE707E0089905
:102BF000002008600899486008998860FFE709B0DC
:102C0000704700BF20BCBE4B000000390024744A4E
:102C100089B0089040F63C40C4F2024000686FF36F
:102C20005F20059040F62C40C4F20240016801F09C
:102C3000030107910168C1F3052106910068C0F303
:102C400000100490049840F64041C4F20241096823
:102C500089B2C90800FB01F000EE100AB8EE400A84
:102C60008DED020A0698002800F03D81FFE70798E5
:102C70000090012808D0FFE70098022830D0FFE735
:102C80000098032849D065E040F60040C4F20240B5
:102C90000068C0F3C10149F20000C0F2D030C84062
:102CA00003909DED030AB8EE400A9DED061AB8EEBA
:102CB000411A80EE010A9DED051AB8EE411A9DED0C
:102CC000022A9FED8F3A22EE032A31EE021AB7EE66
:102CD000002A31EE021A20EE010A8DED010A65E0AC
:102CE0009DED060AB8EE401A9FED860A80EE010AB5
:102CF0009DED051AB8EE411A9DED022A9FED803A2E
:102D000022EE032A31EE021AB7EE002A31EE021A41
:102D100020EE010A8DED010A48E09DED060AB8EEAD
:102D2000401A9FED760A80EE010A9DED051AB8EE75
:102D3000411A9DED022A9FED723A22EE032A31EEEE
:102D4000021AB7EE002A31EE021A20EE010A8DEDCA
:102D5000010A2BE040F60040C4F202400068C0F3D4
:102D6000C10149F20000C0F2D030C84003909DED8F
:102D7000030AB8EE400A9DED061AB8EE411A80EE3D
:102D8000010A9DED051AB8EE411A9DED022A9FED4C
:102D90005C3A22EE032A31EE021AB7EE002A31EE37
:102DA000021A20EE010A8DED010AFFE740F600400D
:102DB000C4F2024000680001002827D5FFE740F672
:102DC0002C40C4F202400068C003002819D5FFE778
:102DD0009DED010A40F63C40C4F20240006880B21A
:102DE000400A01EE100AB8EE411AB7EE002A31EEA1
:102DF000021A80EE010A0898BCEEC00A80ED000AB3
:102E000003E0089900200860FFE703E0089900202C
:102E10000860FFE740F60040C4F20240006800018D
:102E2000002827D5FFE740F62C40C4F20240006896
:102E30008003002819D5FFE79DED010A40F63C40CC
:102E4000C4F202400068C0F3064001EE100AB8EE7A
:102E5000411AB7EE002A31EE021A80EE010A0898F4
:102E6000BCEEC00A80ED010A03E00899002048602A
:102E7000FFE703E0089900204860FFE740F60040C4
:102E8000C4F2024000680001002827D5FFE740F6A1
:102E90002C40C4F2024000684003002819D5FFE727
:102EA0009DED010A40F63C40C4F202400068C0F3C8
:102EB000066001EE100AB8EE411AB7EE002A31EEB4
:102EC000021A80EE010A0898BCEEC00A80ED020AE0
:102ED00003E0089900208860FFE703E008990020DC
:102EE0008860FFE707E008990020086008994860BB
:102EF00008998860FFE709B0704700BF20BCBE4B4F
:102F0000000000390024744A89B0089040F644401B
:102F1000C4F2024000686FF35F20059040F6304035
:102F2000C4F20240016801F0030107910168C1F396
:102F3000052106910068C0F300100490049840F643
:102F40004841C4F20241096889B2C90800FB01F096
:102F500000EE100AB8EE400A8DED020A069800282D
:102F600000F03D81FFE707980090012808D0FFE7B7
:102F70000098022830D0FFE70098032849D065E088
:102F800040F60040C4F202400068C0F3C10149F2BB
:102F90000000C0F2D030C84003909DED030AB8EEA7
:102FA000400A9DED061AB8EE411A80EE010A9DED29
:102FB000051AB8EE411A9DED022A9FED8F3A22EED6
:102FC000032A31EE021AB7EE002A31EE021A20EE81
:102FD000010A8DED010A65E09DED060AB8EE401A82
:102FE0009FED860A80EE010A9DED051AB8EE411AA2
:102FF0009DED022A9FED803A22EE032A31EE021A5D
:10300000B7EE002A31EE021A20EE010A8DED010A18
:1030100048E09DED060AB8EE401A9FED760A80EE74
:10302000010A9DED051AB8EE411A9DED022A9FEDA9
:10303000723A22EE032A31EE021AB7EE002A31EE7E
:10304000021A20EE010A8DED010A2BE040F6004045
:10305000C4F202400068C0F3C10149F20000C0F2AE
:10306000D030C84003909DED030AB8EE400A9DEDB4
:10307000061AB8EE411A80EE010A9DED051AB8EE67
:10308000411A9DED022A9FED5C3A22EE032A31EEB1
:10309000021AB7EE002A31EE021A20EE010A8DED77
:1030A000010AFFE740F60040C4F2024000688000D9
:1030B000002827D5FFE740F63040C4F20240006800
:1030C000C003002819D5FFE79DED010A40F64440F2
:1030D000C4F20240006880B2400A01EE100AB8EE65
:1030E000411AB7EE002A31EE021A80EE010A089862
:1030F000BCEEC00A80ED000A03E0089900200860D9
:10310000FFE703E0089900200860FFE740F6004071
:10311000C4F2024000688000002827D5FFE740F68F
:103120003040C4F2024000688003002819D5FFE750
:103130009DED010A40F64440C4F202400068C0F32D
:10314000064001EE100AB8EE411AB7EE002A31EE41
:10315000021A80EE010A0898BCEEC00A80ED010A4E
:1031600003E0089900204860FFE703E00899002089
:103170004860FFE740F60040C4F20240006880006B
:10318000002827D5FFE740F63040C4F2024000682F
:103190004003002819D5FFE79DED010A40F64440A1
:1031A000C4F202400068C0F3066001EE100AB8EEF7
:1031B000411AB7EE002A31EE021A80EE010A089891
:1031C000BCEEC00A80ED020A03E008990020886086
:1031D000FFE703E0089900208860FFE707E008990F
:1031E000002008600899486008998860FFE709B0E6
:1031F000704700BF20BCBE4B000000390024744A59
:1032000080B59CB01B911A901A981B9980F00070A1
:10321000084300285BD1FFE740F6F040C4F20240CB
:10322000016801F440710E9100688007002809D5FB
:10323000FFE70E98B0F5807F04D1FFE74FF4004020
:10324000109042E040F6F040C4F2024000680001F5
:10325000002809D5FFE70E98B0F5007F04D1FFE7FD
:103260004FF4FA4010902FE040F60040C4F20240C4
:1032700000688003002823D5FFE70E98B0F5407F53
:103280001ED1FFE740F61C40C4F20240006800F483
:103290007C50B0F5007F0FD3FFE740F61C40C4F22E
:1032A00002400068C0F3052147F64000C0F27D10DF
:1032B000B0FBF1F0109002E000201090FFE702E078
:1032C00000201090FFE7FFE7FFE702F0E8BB1A9845
:1032D0000C901B990D9180F001000843002800F02C
:1032E0009C82FFE70D990C9880F0020008430028AB
:1032F00000F01183FFE70D990C9880F0040008435B
:10330000002800F07D83FFE70D990C9880F00800FD
:103310000843002800F0F483FFE70D990C9880F033
:1033200010000843002800F06E84FFE70D990C9808
:1033300080F020000843002800F0E884FFE70D99A2
:103340000C9880F040000843002800F06285FFE7F9
:103350000D990C9880F080000843002800F0DC856F
:10336000FFE70D990C9880F480700843002800F066
:103370005686FFE70D990C9880F4007008430028EA
:1033800000F0D086FFE70D990C9880F48060084328
:10339000002800F04A87FFE70D990C9880F4006040
:1033A0000843002800F0BF87FFE70D990C9880F4D0
:1033B00080500843002801F03480FFE70D990C98F5
:1033C00080F400500843002801F03781FFE70D9991
:1033D0000C9880F480400843002801F08081FFE7CA
:1033E0000D990C9880F400400843002801F0C98131
:1033F000FFE70D990C9880F480300843002801F015
:103400006482FFE70D990C9880F40030084300288F
:1034100001F09882FFE70D990C9880F48020084312
:10342000002801F03B83FFE70D990C9880F4002001
:103430000843002800F0B680FFE70D990C9880F44F
:1034400080100843002800F03A81FFE70D990C989E
:1034500080F400100843002801F05480FFE70D9924
:103460000C9880F480000843002800F0B581FFE745
:103470000D990C9880F080600843002802F0778254
:10348000FFE70D990C9880F000600843002801F0D8
:103490009886FFE70D990C9880F08050084300282B
:1034A00001F00E87FFE70D990C9880F0005008435B
:1034B000002801F09287FFE70D990C9880F080407A
:1034C0000843002802F01280FFE70D990C9880F065
:1034D00000400843002802F08D80FFE70C980D990A
:1034E00081F001010843002802F00881FFE70C98F1
:1034F0000D9981F002010843002802F08381FFE763
:103500000C980D9981F004010843002801F02286EF
:10351000FFE70C980D9981F008010843002802F09C
:10352000E681FFE70C980D9981F01001084300280F
:1035300002F07382FFE70C980D9981F02001084397
:10354000002801F05783FFE70C980D9981F04001A6
:103550000843002801F0FA83FFE70C980D9981F0E9
:1035600080010843002801F09D84FFE70C980D9925
:1035700081F480710843002801F04085FFE70C9832
:103580000D9981F400710843002801F02780FFE7BE
:103590000C980D9981F480610843002801F0438163
:1035A00002F079BA40F6E840C4F20240006800F444
:1035B000E0200E900E980B90A0B1FFE70B98B0F5AD
:1035C000803F15D0FFE70B98B0F5003F16D0FFE71E
:1035D0000B98B0F5403F17D0FFE70B98B0F5802F60
:1035E00018D067E017A8FFF797F91898109064E0D3
:1035F00014A8FFF70DFB149810905EE011A8FFF7D8
:1036000083FC1198109058E048F20000C0F2BB0013
:10361000109052E040F6E840C4F20240006800F02A
:1036200040400F9040F60040C4F20240006880071E
:10363000002811D5FFE70F9870B9FFE740F600406A
:10364000C4F202400068C0F3C10149F20000C0F2B8
:10365000D030C84010902CE040F60040C4F2024048
:103660000068800500280BD5FFE70F98B0F1804F68
:1036700006D1FFE740F60010C0F23D00109017E0C1
:1036800040F60040C4F202400068800300280BD5D9
:10369000FFE70F98B0F1004F06D1FFE747F6400073
:1036A000C0F27D10109002E000201090FFE7FFE7CD
:1036B000FFE702E000201090FFE702F0EFB940F6CC
:1036C000E840C4F20240006800F460100E900E98CA
:1036D0000A90A0B1FFE70A98B0F5002F15D0FFE7D8
:1036E0000A98B0F5801F16D0FFE70A98B0F5C01F02
:1036F00017D0FFE70A98B0F5001F18D067E017A8A9
:10370000FFF70AF91898109064E014A8FFF780FA00
:10371000149810905EE011A8FFF7F6FB1198109036
:1037200058E048F20000C0F2BB00109052E040F6B2
:10373000E840C4F20240006800F040400F9040F6BC
:103740000040C4F2024000688007002811D5FFE75E
:103750000F9870B9FFE740F60040C4F202400068DD
:10376000C0F3C10149F20000C0F2D030C84010904F
:103770002CE040F60040C4F20240006880050028BA
:103780000BD5FFE70F98B0F1804F06D1FFE740F669
:103790000010C0F23D00109017E040F60040C4F267
:1037A00002400068800300280BD5FFE70F98B0F1B6
:1037B000004F06D1FFE747F64000C0F27D101090A1
:1037C00002E000201090FFE7FFE7FFE702E00020A3
:1037D0001090FFE702F062B940F6E440C4F2024004
:1037E000006800F040000E900E9830B9FFE717A86F
:1037F000FFF792F8189810900DE00E98402806D127
:10380000FFE714A8FFF704FA1698109002E00020D2
:103810001090FFE7FFE702F041B940F6D840C4F24C
:103820000240006800F007000E900E9820B9FFE7F4
:1038300004F022F810906CE040F60040C4F2024020
:103840000068000100280AD5FFE70E98012806D17C
:10385000FFE714A8FFF7DCF91598109058E040F640
:103860000040C4F202400068800000280AD5FFE74B
:103870000E98022806D1FFE711A8FFF745FB129822
:10388000109044E040F60040C4F202400068800717
:10389000002812D5FFE70E9803280ED1FFE740F667
:1038A0000040C4F202400068C0F3C10149F20000C8
:1038B000C0F2D030C840109028E040F60040C4F27A
:1038C00002400068800500280AD5FFE70E9804280A
:1038D00006D1FFE740F60010C0F23D00109014E062
:1038E00040F6F040C4F2024000688007002808D586
:1038F000FFE70E98052804D1FFE74FF40040109031
:1039000002E000201090FFE7FFE7FFE7FFE7FFE797
:10391000FFE702F0C3B840F6D840C4F202400068A6
:1039200000F038000E900E9820B9FFE703F090FFEA
:10393000109063E040F60040C4F2024000680001CD
:1039400000280AD5FFE70E98082806D1FFE714A83B
:10395000FFF75EF9159810904FE00E98102806D1E9
:10396000FFE711A8FFF7D0FA1298109044E040F654
:103970000040C4F2024000688007002812D5FFE72B
:103980000E9818280ED1FFE740F60040C4F202401E
:103990000068C0F3C10149F20000C0F2D030C84055
:1039A000109028E040F60040C4F202400068800514
:1039B00000280AD5FFE70E98202806D1FFE740F639
:1039C0000010C0F23D00109014E040F6F040C4F248
:1039D000024000688007002808D5FFE70E982828D5
:1039E00004D1FFE74FF40040109002E00020109057
:1039F000FFE7FFE7FFE7FFE7FFE7FFE702F04EB86B
:103A000040F6D840C4F20240006800F4E0700E9026
:103A10000E9820B9FFE703F01BFF10906EE040F610
:103A20000040C4F202400068000100280AD5FFE708
:103A30000E98402806D1FFE714A8FFF7E9F815987B
:103A400010905AE040F60040C4F202400068800046
:103A500000280AD5FFE70E98802806D1FFE711A8B5
:103A6000FFF752FA1298109046E040F60040C4F278
:103A7000024000688007002812D5FFE70E98C02892
:103A80000ED1FFE740F60040C4F202400068C0F3E8
:103A9000C10149F20000C0F2D030C84010902AE0C5
:103AA00040F60040C4F202400068800500280BD5B3
:103AB000FFE70E98B0F5807F06D1FFE740F60010D3
:103AC000C0F23D00109015E040F6F040C4F2024014
:103AD00000688007002809D5FFE70E98B0F5A07FA1
:103AE00004D1FFE74FF40040109002E00020109056
:103AF000FFE7FFE7FFE7FFE7FFE7FFE701F0CEBFE4
:103B000040F6D840C4F20240006800F460600E90B5
:103B10000E9820B9FFE703F09BFE109071E040F68D
:103B20000040C4F202400068000100280BD5FFE706
:103B30000E98B0F5007F06D1FFE714A8FFF768F8EC
:103B4000159810905CE040F60040C4F20240006816
:103B5000800000280BD5FFE70E98B0F5806F06D1E6
:103B6000FFE711A8FFF7D0F91298109047E040F650
:103B70000040C4F2024000688007002813D5FFE728
:103B80000E98B0F5C06F0ED1FFE740F60040C4F2CA
:103B900002400068C0F3C10149F20000C0F2D03019
:103BA000C84010902AE040F60040C4F2024000688D
:103BB000800500280BD5FFE70E98B0F5006F06D101
:103BC000FFE740F60010C0F23D00109015E040F60F
:103BD000F040C4F2024000688007002809D5FFE7E2
:103BE0000E98B0F5206F04D1FFE74FF4004010901D
:103BF00002E000201090FFE7FFE7FFE7FFE7FFE7A5
:103C0000FFE701F04BBF40F6D840C4F20240006825
:103C100000F4E0400E900E9820B9FFE703F018FE84
:103C2000109071E040F60040C4F2024000680001CC
:103C300000280BD5FFE70E98B0F5805F06D1FFE7AF
:103C400014A8FEF7E5FF159810905CE040F60040E0
:103C5000C4F202400068800000280BD5FFE70E98F0
:103C6000B0F5005F06D1FFE711A8FFF74DF91298F4
:103C7000109047E040F60040C4F202400068800720
:103C8000002813D5FFE70E98B0F5405F0ED1FFE78F
:103C900040F60040C4F202400068C0F3C10149F29E
:103CA0000000C0F2D030C84010902AE040F600403A
:103CB000C4F202400068800500280BD5FFE70E988B
:103CC000B0F5804F06D1FFE740F60010C0F23D008E
:103CD000109015E040F6F040C4F202400068800702
:103CE000002809D5FFE70E98B0F5A04F04D1FFE7F3
:103CF0004FF40040109002E000201090FFE7FFE733
:103D0000FFE7FFE7FFE7FFE701F0C8BE40F6D84056
:103D1000C4F20240006800F460300E900E9820B9A2
:103D2000FFE703F095FD109071E040F60040C4F20B
:103D300002400068000100280BD5FFE70E98B0F59F
:103D4000004F06D1FFE714A8FEF762FF1598109008
:103D50005CE040F60040C4F20240006880000028A9
:103D60000BD5FFE70E98B0F5803F06D1FFE711A80D
:103D7000FFF7CAF81298109047E040F60040C4F2EE
:103D8000024000688007002813D5FFE70E98B0F5C1
:103D9000C03F0ED1FFE740F60040C4F20240006889
:103DA000C0F3C10149F20000C0F2D030C840109009
:103DB0002AE040F60040C4F2024000688005002876
:103DC0000BD5FFE70E98B0F5003F06D1FFE740F6B0
:103DD0000010C0F23D00109015E040F6F040C4F233
:103DE000024000688007002809D5FFE70E98B0F56B
:103DF000203F04D1FFE74FF40040109002E0002084
:103E00001090FFE7FFE7FFE7FFE7FFE7FFE701F0BD
:103E100045BE40F6D840C4F20240006800F4E0100D
:103E20000E900E9820B9FFE703F012FD109071E09C
:103E300040F60040C4F202400068000100280BD5A3
:103E4000FFE70E98B0F5802F06D1FFE714A8FEF724
:103E5000DFFE159810905CE040F60040C4F202408E
:103E60000068800000280BD5FFE70E98B0F5002F02
:103E700006D1FFE711A8FFF747F81298109047E026
:103E800040F60040C4F2024000688007002813D5C5
:103E9000FFE70E98B0F5402F0ED1FFE740F6004047
:103EA000C4F202400068C0F3C10149F20000C0F250
:103EB000D030C84010902AE040F60040C4F20240E2
:103EC0000068800500280BD5FFE70E98B0F5801F2D
:103ED00006D1FFE740F60010C0F23D00109015E05B
:103EE00040F6F040C4F2024000688007002809D57F
:103EF000FFE70E98B0F5A01F04D1FFE74FF4004094
:103F0000109002E000201090FFE7FFE7FFE7FFE7D7
:103F1000FFE7FFE701F0C2BD40F6D840C4F202401F
:103F2000006800F460000E900E9820B9FFE703F0DF
:103F30008FFC109071E040F60040C4F2024000682F
:103F4000000100280BD5FFE70E98B0F5001F06D141
:103F5000FFE714A8FEF75CFE159810905CE040F6B1
:103F60000040C4F202400068800000280BD5FFE743
:103F70000E98B0F5800F06D1FFE711A8FEF7C4FF39
:103F80001298109047E040F60040C4F202400068EA
:103F90008007002813D5FFE70E98B0F5C00F0ED1AB
:103FA000FFE740F60040C4F202400068C0F3C101E0
:103FB00049F20000C0F2D030C84010902AE040F62C
:103FC0000040C4F202400068800500280BD5FFE7DE
:103FD0000E98B0F5000F06D1FFE740F60010C0F2D2
:103FE0003D00109015E040F6F040C4F20240006839
:103FF0008007002809D5FFE70E98B0F5200F04D1FF
:10400000FFE74FF40040109002E000201090FFE71F
:10401000FFE7FFE7FFE7FFE7FFE701F03FBD40F6FF
:10402000D840C4F20240006800F0E0600E900E98A4
:1040300020B9FFE703F00CFC109071E040F600405F
:10404000C4F202400068000100280BD5FFE70E987B
:10405000B0F1807F06D1FFE714A8FEF7D9FD1598CF
:1040600010905CE040F60040C4F20240006880001E
:1040700000280BD5FFE70E98B0F1007F06D1FFE7CF
:1040800011A8FEF741FF1298109047E040F600405B
:10409000C4F2024000688007002813D5FFE70E989D
:1040A000B0F1407F0ED1FFE740F60040C4F202407D
:1040B0000068C0F3C10149F20000C0F2D030C8402E
:1040C00010902AE040F60040C4F2024000688005EB
:1040D00000280BD5FFE70E98B0F1806F06D1FFE7FF
:1040E00040F60010C0F23D00109015E040F6F040A0
:1040F000C4F2024000688007002809D5FFE70E9847
:10410000B0F1A06F04D1FFE74FF40040109002E03F
:1041100000201090FFE7FFE7FFE7FFE7FFE7FFE77B
:1041200001F0BCBC40F6D840C4F20240006800F088
:1041300060500E900E9820B9FFE703F089FB1090B5
:1041400071E040F60040C4F202400068000100281F
:104150000BD5FFE70E98B0F1006F06D1FFE714A86A
:10416000FEF756FD159810905CE040F60040C4F252
:1041700002400068800000280BD5FFE70E98B0F1E0
:10418000805F06D1FFE711A8FEF7BEFE12981090DF
:1041900047E040F60040C4F2024000688007002873
:1041A00013D5FFE70E98B0F1C05F0ED1FFE740F6E0
:1041B0000040C4F202400068C0F3C10149F20000AF
:1041C000C0F2D030C84010902AE040F60040C4F25F
:1041D00002400068800500280BD5FFE70E98B0F17B
:1041E000005F06D1FFE740F60010C0F23D001090DE
:1041F00015E040F6F040C4F2024000688007002855
:1042000009D5FFE70E98B0F1205F04D1FFE74FF426
:104210000040109002E000201090FFE7FFE7FFE76A
:10422000FFE7FFE7FFE701F039BC40F6DC40C4F2EE
:104230000240006800F007000E900E9820B9FFE7DA
:1042400003F006FB10906CE040F60040C4F2024020
:104250000068000100280AD5FFE70E98012806D162
:10426000FFE714A8FEF7D4FC1598109058E040F62C
:104270000040C4F202400068800000280AD5FFE731
:104280000E98022806D1FFE711A8FEF73DFE12980E
:10429000109044E040F60040C4F2024000688007FD
:1042A000002812D5FFE70E9803280ED1FFE740F64D
:1042B0000040C4F202400068C0F3C10149F20000AE
:1042C000C0F2D030C840109028E040F60040C4F260
:1042D00002400068800500280AD5FFE70E980428F0
:1042E00006D1FFE740F60010C0F23D00109014E048
:1042F00040F6F040C4F2024000688007002808D56C
:10430000FFE70E98052804D1FFE74FF40040109016
:1043100002E000201090FFE7FFE7FFE7FFE7FFE77D
:10432000FFE701F0BBBB40F6DC40C4F2024000688E
:1043300000F070000E900E9820B9FFE703F088FAA5
:1043400010906CE040F60040C4F2024000680001AA
:1043500000280AD5FFE70E98102806D1FFE714A819
:10436000FEF756FC1598109058E040F60040C4F255
:1043700002400068800000280AD5FFE70E98202838
:1043800006D1FFE711A8FEF7BFFD1298109044E098
:1043900040F60040C4F2024000688007002812D5B1
:1043A000FFE70E9830280ED1FFE740F60040C4F238
:1043B00002400068C0F3C10149F20000C0F2D030F1
:1043C000C840109028E040F60040C4F20240006867
:1043D000800500280AD5FFE70E98402806D1FFE7A0
:1043E00040F60010C0F23D00109014E040F6F0409E
:1043F000C4F2024000688007002808D5FFE70E9845
:10440000502804D1FFE74FF40040109002E0002054
:104410001090FFE7FFE7FFE7FFE7FFE7FFE701F0A7
:104420003DBB40F6E040C4F20240006800F0E060AE
:104430000E900E9820B9FFE703F032FA10905FE07B
:104440000E98B0F1807F06D1FFE714A8FEF7E0FBDD
:104450001598109053E00E98B0F1007F06D1FFE759
:1044600011A8FEF751FD1298109047E040F6004069
:10447000C4F2024000688007002813D5FFE70E98B9
:10448000B0F1407F0ED1FFE740F60040C4F2024099
:104490000068C0F3C10149F20000C0F2D030C8404A
:1044A00010902AE040F60040C4F202400068800507
:1044B00000280BD5FFE70E98B0F1806F06D1FFE71B
:1044C00040F60010C0F23D00109015E040F6F040BC
:1044D000C4F2024000688007002809D5FFE70E9863
:1044E000B0F1A06F04D1FFE74FF40040109002E05C
:1044F00000201090FFE7FFE7FFE7FFE7FFE7FFE798
:1045000001F0CCBA40F6E840C4F20240006800F086
:1045100007000E900E9820B9FFE703F07FF9109086
:104520005AE00E98012804D1FFE703F0CDF910906E
:1045300051E00E98022806D1FFE714A8FEF768FBA9
:104540001698109046E040F60040C4F20240006821
:10455000800300280AD5FFE70E98032806D1FFE75D
:1045600047F64000C0F27D10109032E040F6004067
:10457000C4F2024000688007002812D5FFE70E98B9
:1045800004280ED1FFE740F60040C4F20240006864
:10459000C0F3C10149F20000C0F2D030C840109011
:1045A00016E040F60040C4F2024000688005002892
:1045B0000AD5FFE70E98052806D1FFE740F6001060
:1045C000C0F23D00109002E000201090FFE7FFE7EE
:1045D000FFE7FFE7FFE7FFE701F060BA40F6E840DA
:1045E000C4F20240006800F008000E9040F6F0406F
:1045F000C4F2024000688007002807D5FFE70E9844
:1046000020B9FFE74FF40040109014E040F6F0406E
:10461000C4F2024000680001002808D5FFE70E98A8
:10462000082804D1FFE74FF4FA40109002E0002080
:104630001090FFE7FFE701F031BA40F6E440C4F222
:104640000240006800F440300E900E9820B9FFE759
:1046500003F0FEF8109040E00E98B0F5803F06D1D0
:10466000FFE711A8FEF750FC1398109034E040F6D5
:104670000040C4F2024000688007002813D5FFE71D
:104680000E98B0F5003F0ED1FFE740F60040C4F2AF
:1046900002400068C0F3C10149F20000C0F2D0300E
:1046A000C840109017E040F60040C4F20240006895
:1046B000800500280BD5FFE70E98B0F5403F06D1E6
:1046C000FFE740F60010C0F23D00109002E000202D
:1046D0001090FFE7FFE7FFE7FFE701F0DFB940F6E3
:1046E000E440C4F20240006800F440200E900E98AE
:1046F00020B9FFE703F0ACF8109040E00E98B0F559
:10470000802F06D1FFE711A8FEF7FEFB139810904B
:1047100034E040F60040C4F2024000688007002800
:1047200013D5FFE70E98B0F5002F0ED1FFE740F646
:104730000040C4F202400068C0F3C10149F2000029
:10474000C0F2D030C840109017E040F60040C4F2EC
:1047500002400068800500280BD5FFE70E98B0F5F1
:10476000402F06D1FFE740F60010C0F23D00109048
:1047700002E000201090FFE7FFE7FFE7FFE701F00E
:104780008DB940F6E440C4F20240006800F44010E5
:104790000E900E9820B9FFE703F082F8109040E0E9
:1047A0000E98B0F5801F06D1FFE711A8FEF7ACFB0D
:1047B0001398109034E040F60040C4F202400068C4
:1047C0008007002813D5FFE70E98B0F5001F0ED123
:1047D000FFE740F60040C4F202400068C0F3C101A8
:1047E00049F20000C0F2D030C840109017E040F607
:1047F0000040C4F202400068800500280BD5FFE7A6
:104800000E98B0F5401F06D1FFE740F60010C0F249
:104810003D00109002E000201090FFE7FFE7FFE767
:10482000FFE701F03BB940F6E440C4F20240006803
:1048300000F440000E900E9820B9FFE703F030F826
:10484000109040E00E98B0F5800F06D1FFE711A858
:10485000FEF75AFB1398109034E040F60040C4F283
:10486000024000688007002813D5FFE70E98B0F5D6
:10487000000F0ED1FFE740F60040C4F2024000688E
:10488000C0F3C10149F20000C0F2D030C84010901E
:1048900017E040F60040C4F202400068800500289E
:1048A0000BD5FFE70E98B0F5400F06D1FFE740F6B5
:1048B0000010C0F23D00109002E000201090FFE7D1
:1048C000FFE7FFE7FFE701F0E9B840F6E440C4F294
:1048D0000240006800F040700E900E9820B9FFE78B
:1048E00002F0B6FF10902BE00E98B0F1807F06D159
:1048F000FFE711A8FEF708FB139810901FE040F6A1
:104900000040C4F2024000688007002813D5FFE78A
:104910000E98B0F1007F0ED1FFE740F60040C4F2E0
:1049200002400068C0F3C10149F20000C0F2D0307B
:10493000C840109002E000201090FFE7FFE7FFE77B
:1049400001F0ACB840F6DC40C4F20240006800F46C
:10495000E0600E900E980990C8B1FFE70998B0F595
:10496000807F18D0FFE70998B0F5007F19D0FFE7E6
:104970000998B0F5407F1AD0FFE70998B0F5806F2D
:1049800026D0FFE70998B0F5A06F32D081E002F0A1
:1049900087FF109080E014A8FEF73AF91498109061
:1049A0007AE011A8FEF7B0FA1398109074E040F680
:1049B000F040C4F2024000688007002804D5FFE7F9
:1049C0004FF40040109002E000201090FFE763E0F9
:1049D00040F6F040C4F2024000680001002804D50F
:1049E000FFE74FF4FA40109002E000201090FFE73C
:1049F00052E040F6E840C4F20240006800F0404057
:104A00000F9040F60040C4F2024000688007002882
:104A100011D5FFE70F9870B9FFE740F60040C4F2E8
:104A200002400068C0F3C10149F20000C0F2D0307A
:104A3000C84010902CE040F60040C4F202400068EC
:104A4000800500280BD5FFE70F98B0F1804F06D105
:104A5000FFE740F60010C0F23D00109017E040F66E
:104A60000040C4F202400068800300280BD5FFE735
:104A70000F98B0F1004F06D1FFE747F64000C0F2B3
:104A80007D10109002E000201090FFE7FFE7FFE7A5
:104A900002E000201090FFE701F000B840F6DC4093
:104AA000C4F20240006800F4E0400E900E980890B6
:104AB000C8B1FFE70898B0F5805F18D0FFE7089805
:104AC000B0F5005F19D0FFE70898B0F5405F1AD045
:104AD000FFE70898B0F5804F26D0FFE70898B0F5BB
:104AE000A04F32D081E002F0B3FE109080E014A815
:104AF000FEF78EF8149810907AE011A8FEF704FAE9
:104B00001398109074E040F6F040C4F20240006840
:104B10008007002804D5FFE74FF40040109002E022
:104B200000201090FFE763E040F6F040C4F202403E
:104B300000680001002804D5FFE74FF4FA40109008
:104B400002E000201090FFE752E040F6E840C4F297
:104B50000240006800F040400F9040F60040C4F270
:104B6000024000688007002811D5FFE70F9870B950
:104B7000FFE740F60040C4F202400068C0F3C10104
:104B800049F20000C0F2D030C84010902CE040F64E
:104B90000040C4F202400068800500280BD5FFE702
:104BA0000F98B0F1804F06D1FFE740F60010C0F239
:104BB0003D00109017E040F60040C4F2024000684B
:104BC000800300280BD5FFE70F98B0F1004F06D106
:104BD000FFE747F64000C0F27D10109002E0002091
:104BE0001090FFE7FFE7FFE702E000201090FFE7EB
:104BF00000F054BF40F6DC40C4F20240006800F40C
:104C0000E0200E900E980790C8B1FFE70798B0F526
:104C1000803F18D0FFE70798B0F5003F19D0FFE7B5
:104C20000798B0F5403F1AD0FFE70798B0F5802FFE
:104C300026D0FFE70798B0F5A02F32D081E002F030
:104C40002FFE109080E014A8FDF7E2FF149810905A
:104C50007AE011A8FEF758F91398109074E040F626
:104C6000F040C4F2024000688007002804D5FFE746
:104C70004FF40040109002E000201090FFE763E046
:104C800040F6F040C4F2024000680001002804D55C
:104C9000FFE74FF4FA40109002E000201090FFE789
:104CA00052E040F6E840C4F20240006800F04040A4
:104CB0000F9040F60040C4F20240006880070028D0
:104CC00011D5FFE70F9870B9FFE740F60040C4F236
:104CD00002400068C0F3C10149F20000C0F2D030C8
:104CE000C84010902CE040F60040C4F2024000683A
:104CF000800500280BD5FFE70F98B0F1804F06D153
:104D0000FFE740F60010C0F23D00109017E040F6BB
:104D10000040C4F202400068800300280BD5FFE782
:104D20000F98B0F1004F06D1FFE747F64000C0F200
:104D30007D10109002E000201090FFE7FFE7FFE7F2
:104D400002E000201090FFE700F0A8BE40F6DC4033
:104D5000C4F20240006800F4E0000E900E98069045
:104D6000C8B1FFE70698B0F5801F18D0FFE7069896
:104D7000B0F5001F19D0FFE70698B0F5401F1AD014
:104D8000FFE70698B0F5800F26D0FFE70698B0F54C
:104D9000A00F32D081E002F083FD109080E014A8D3
:104DA000FDF736FF149810907AE011A8FEF7ACF8E2
:104DB0001398109074E040F6F040C4F2024000688E
:104DC0008007002804D5FFE74FF40040109002E070
:104DD00000201090FFE763E040F6F040C4F202408C
:104DE00000680001002804D5FFE74FF4FA40109056
:104DF00002E000201090FFE752E040F6E840C4F2E5
:104E00000240006800F040400F9040F60040C4F2BD
:104E1000024000688007002811D5FFE70F9870B99D
:104E2000FFE740F60040C4F202400068C0F3C10151
:104E300049F20000C0F2D030C84010902CE040F69B
:104E40000040C4F202400068800500280BD5FFE74F
:104E50000F98B0F1804F06D1FFE740F60010C0F286
:104E60003D00109017E040F60040C4F20240006898
:104E7000800300280BD5FFE70F98B0F1004F06D153
:104E8000FFE747F64000C0F27D10109002E00020DE
:104E90001090FFE7FFE7FFE702E000201090FFE738
:104EA00000F0FCBD40F6DC40C4F20240006800F0B7
:104EB000E0600E900E980590C8B1FFE70598B0F13C
:104EC000807F18D0FFE70598B0F1007F19D0FFE789
:104ED0000598B0F1407F1AD0FFE70598B0F1806FD8
:104EE00026D0FFE70598B0F1A06F32D081E002F044
:104EF000D7FC109080E014A8FDF78AFE149810905B
:104F00007AE011A8FEF700F81398109074E040F6CC
:104F1000F040C4F2024000688007002804D5FFE793
:104F20004FF40040109002E000201090FFE763E093
:104F300040F6F040C4F2024000680001002804D5A9
:104F4000FFE74FF4FA40109002E000201090FFE7D6
:104F500052E040F6E840C4F20240006800F04040F1
:104F60000F9040F60040C4F202400068800700281D
:104F700011D5FFE70F9870B9FFE740F60040C4F283
:104F800002400068C0F3C10149F20000C0F2D03015
:104F9000C84010902CE040F60040C4F20240006887
:104FA000800500280BD5FFE70F98B0F1804F06D1A0
:104FB000FFE740F60010C0F23D00109017E040F609
:104FC0000040C4F202400068800300280BD5FFE7D0
:104FD0000F98B0F1004F06D1FFE747F64000C0F24E
:104FE0007D10109002E000201090FFE7FFE7FFE740
:104FF00002E000201090FFE700F050BD40F6DC40DA
:10500000C4F20240006800F0E0400E900E98049058
:10501000C8B1FFE70498B0F1805F18D0FFE70498AB
:10502000B0F1005F19D0FFE70498B0F1405F1AD0EB
:10503000FFE70498B0F1804F26D0FFE70498B0F165
:10504000A04F32D081E002F02BFC109080E014A839
:10505000FDF7DEFD149810907AE011A8FDF754FFDB
:105060001398109074E040F6F040C4F202400068DB
:105070008007002804D5FFE74FF40040109002E0BD
:1050800000201090FFE763E040F6F040C4F20240D9
:1050900000680001002804D5FFE74FF4FA401090A3
:1050A00002E000201090FFE752E040F6E840C4F232
:1050B0000240006800F040400F9040F60040C4F20B
:1050C000024000688007002811D5FFE70F9870B9EB
:1050D000FFE740F60040C4F202400068C0F3C1019F
:1050E00049F20000C0F2D030C84010902CE040F6E9
:1050F0000040C4F202400068800500280BD5FFE79D
:105100000F98B0F1804F06D1FFE740F60010C0F2D3
:105110003D00109017E040F60040C4F202400068E5
:10512000800300280BD5FFE70F98B0F1004F06D1A0
:10513000FFE747F64000C0F27D10109002E000202B
:105140001090FFE7FFE7FFE702E000201090FFE785
:1051500000F0A4BC40F6E840C4F20240006800F44D
:1051600040700E9040F60040C4F202400068800398
:10517000002809D5FFE70E9830B9FFE747F6400051
:10518000C0F27D1010901AE00E98B0F5807F06D125
:10519000FFE717A8FDF7C0FB189810900EE00E98D7
:1051A000B0F5007F06D1FFE714A8FDF731FD159893
:1051B000109002E000201090FFE7FFE7FFE700F00B
:1051C0006DBC40F6E040C4F20240006800F0070009
:1051D0000E900E98039004286DD80399DFE801F033
:1051E00003090F151B0017A8FDF796FB18981090E0
:1051F00064E014A8FDF70CFD149810905EE011A86F
:10520000FDF782FE1198109058E048F20000C0F2BD
:10521000BB00109052E040F6E840C4F20240006843
:1052200000F040400F9040F60040C4F20240006899
:105230008007002811D5FFE70F9870B9FFE740F607
:105240000040C4F202400068C0F3C10149F200000E
:10525000C0F2D030C84010902CE040F60040C4F2BC
:1052600002400068800500280BD5FFE70F98B0F1D9
:10527000804F06D1FFE740F60010C0F23D001090CD
:1052800017E040F60040C4F20240006880030028A6
:105290000BD5FFE70F98B0F1004F06D1FFE747F6B7
:1052A0004000C0F27D10109002E000201090FFE757
:1052B000FFE7FFE702E000201090FFE700F0EEBB01
:1052C00040F6E040C4F20240006800F038000E9062
:1052D0000E980290202800F27C800299DFE801F00D
:1052E00011797979797979791779797979797979F8
:1052F0001D797979797979792379797979797979D0
:10530000290017A8FDF708FB1898109064E014A86E
:10531000FDF77EFC149810905EE011A8FDF7F4FDF7
:105320001198109058E048F20000C0F2BB001090B5
:1053300052E040F6E840C4F20240006800F040400D
:105340000F9040F60040C4F2024000688007002839
:1053500011D5FFE70F9870B9FFE740F60040C4F29F
:1053600002400068C0F3C10149F20000C0F2D03031
:10537000C84010902CE040F60040C4F202400068A3
:10538000800500280BD5FFE70F98B0F1804F06D1BC
:10539000FFE740F60010C0F23D00109017E040F625
:1053A0000040C4F202400068800300280BD5FFE7EC
:1053B0000F98B0F1004F06D1FFE747F64000C0F26A
:1053C0007D10109002E000201090FFE7FFE7FFE75C
:1053D00002E000201090FFE760E340F6E040C4F2F6
:1053E0000240006800F4E0700E900E98019088B1C1
:1053F000FFE70198402813D0FFE70198802815D0D7
:10540000FFE70198C02817D0FFE70198B0F5807F2B
:1054100018D067E017A8FDF77FFA1898109064E09D
:1054200014A8FDF7F5FB149810905EE011A8FDF7A5
:105430006BFD1198109058E048F20000C0F2BB00DC
:10544000109052E040F6E840C4F20240006800F0DC
:1054500040400F9040F60040C4F2024000688007D0
:10546000002811D5FFE70F9870B9FFE740F600401C
:10547000C4F202400068C0F3C10149F20000C0F26A
:10548000D030C84010902CE040F60040C4F20240FA
:105490000068800500280BD5FFE70F98B0F1804F1A
:1054A00006D1FFE740F60010C0F23D00109017E073
:1054B00040F60040C4F202400068800300280BD58B
:1054C000FFE70F98B0F1004F06D1FFE747F6400025
:1054D000C0F27D10109002E000201090FFE7FFE77F
:1054E000FFE702E000201090FFE7D7E240F6E0403F
:1054F000C4F20240006800F460600E900E9820B97B
:10550000FFE702F0B9F9109073E040F60040C4F2F2
:1055100002400068000100280BD5FFE70E98B0F5A7
:10552000007F06D1FFE714A8FDF772FB15981090D5
:105530005EE040F60040C4F20240006880000028AF
:105540000BD5FFE70E98B0F5806F06D1FFE711A8E5
:10555000FDF7DAFC1298109049E040F60040C4F2E2
:10556000024000688007002813D5FFE70E98B0F5C9
:10557000C06F0ED1FFE740F60040C4F20240006861
:10558000C0F3C10149F20000C0F2D030C840109011
:105590002CE040F60040C4F202400068800500287C
:1055A0000BD5FFE70E98B0F5006F06D1FFE740F688
:1055B0000010C0F23D00109017E040F60040C4F229
:1055C00002400068800300280BD5FFE70E98B0F575
:1055D000206F06D1FFE747F64000C0F27D10109023
:1055E00002E000201090FFE7FFE7FFE7FFE7FFE79B
:1055F000FFE753E240F6E040C4F20240006800F4E6
:10560000E0400E900E9820B9FFE702F049F91090A3
:1056100073E040F60040C4F2024000680001002838
:105620000BD5FFE70E98B0F5805F06D1FFE714A811
:10563000FDF7EEFA159810905EE040F60040C4F2D7
:1056400002400068800000280BD5FFE70E98B0F5F7
:10565000005F06D1FFE711A8FDF756FC12981090E5
:1056600049E040F60040C4F202400068800700288C
:1056700013D5FFE70E98B0F5405F0ED1FFE740F677
:105680000040C4F202400068C0F3C10149F20000CA
:10569000C0F2D030C84010902CE040F60040C4F278
:1056A00002400068800500280BD5FFE70E98B0F592
:1056B000804F06D1FFE740F60010C0F23D00109089
:1056C00017E040F60040C4F2024000688003002862
:1056D0000BD5FFE70E98B0F5A04F06D1FFE747F6D0
:1056E0004000C0F27D10109002E000201090FFE713
:1056F000FFE7FFE7FFE7FFE7FFE7CFE140F6E04026
:10570000C4F20240006800F460300E900E9820B998
:10571000FFE702F0B1F8109073E040F60040C4F2E9
:1057200002400068000100280BD5FFE70E98B0F595
:10573000004F06D1FFE714A8FDF76AFA15981090FC
:105740005EE040F60040C4F202400068800000289D
:105750000BD5FFE70E98B0F5803F06D1FFE711A803
:10576000FDF7D2FB1298109049E040F60040C4F2D9
:10577000024000688007002813D5FFE70E98B0F5B7
:10578000C03F0ED1FFE740F60040C4F2024000687F
:10579000C0F3C10149F20000C0F2D030C8401090FF
:1057A0002CE040F60040C4F202400068800500286A
:1057B0000BD5FFE70E98B0F5003F06D1FFE740F6A6
:1057C0000010C0F23D00109017E040F60040C4F217
:1057D00002400068800300280BD5FFE70E98B0F563
:1057E000203F06D1FFE747F64000C0F27D10109041
:1057F00002E000201090FFE7FFE7FFE7FFE7FFE789
:10580000FFE74BE140F6E440C4F20240006800F0DC
:1058100003000E900E980090032864D80099DFE8EA
:1058200001F002060C1201F0F9FF10905EE017A8DB
:10583000FDF772F81898109058E014A8FDF7E8F9F1
:105840001698109052E040F6E840C4F2024000681A
:1058500000F040400F9040F60040C4F20240006863
:105860008007002811D5FFE70F9870B9FFE740F6D1
:105870000040C4F202400068C0F3C10149F20000D8
:10588000C0F2D030C84010902CE040F60040C4F286
:1058900002400068800500280BD5FFE70F98B0F1A3
:1058A000804F06D1FFE740F60010C0F23D00109097
:1058B00017E040F60040C4F2024000688003002870
:1058C0000BD5FFE70F98B0F1004F06D1FFE747F681
:1058D0004000C0F27D10109002E000201090FFE721
:1058E000FFE7FFE702E000201090FFE7D6E040F678
:1058F000E840C4F20240006800F0C0000E9040F69C
:10590000F040C4F2024000688007002807D5FFE796
:105910000E9820B9FFE74FF40040109026E040F6C3
:10592000F040C4F2024000680001002808D5FFE7FB
:105930000E98402804D1FFE74FF4FA40109014E08D
:1059400040F60040C4F2024000688005002808D5F7
:10595000FFE70E98802804D1FFE748F2120010906C
:1059600002E000201090FFE7FFE7FFE796E040F637
:10597000E840C4F20240006800F030000E9040F6AB
:105980000040C4F2024000688004002809D5FFE707
:105990000E9830B9FFE746F60040C0F2DC201090C8
:1059A0003AE040F60040C4F202400068800100285E
:1059B0000AD5FFE70E98102806D1FFE717A8FCF7D5
:1059C000ABFF1898109026E040F6F040C4F2024079
:1059D00000688007002808D5FFE70E98202804D12A
:1059E000FFE74FF40040109014E040F6F040C4F29E
:1059F000024000680001002808D5FFE70E98302813
:105A000004D1FFE74FF4FA40109002E0002010901C
:105A1000FFE7FFE7FFE7FFE740E040F6E440C4F2BE
:105A20000240006800F030000E900E98102806D159
:105A3000FFE717A8FCF770FF189810902EE040F6CB
:105A40000040C4F202400068800000280AD5FFE749
:105A50000E98202806D1FFE711A8FDF755FA1298F5
:105A6000109016E040F60040C4F202400068800446
:105A700000280AD5FFE70E98302806D1FFE746F642
:105A80000040C0F2DC20109002E000201090FFE700
:105A9000FFE7FFE702E000201090FFE7FFE7109824
:105AA0001CB080BD80B5ACB02B9000208DF8A30059
:105AB0008DF8A2002B98C078C00760B1FFE740F6D0
:105AC000E841C4F20241086820F040402B9A926DF0
:105AD00010430860FFE72B980068C007002837D004
