:020000040800F2
:1000000040220020610200088D4900084D4300088D
:1000100089490008510800080154000873020008CB
:10002000000000000000000000000000414E000839
:100030005508000800000000014A0008654E00084D
:100040007D0200087D0200087D0200087D02000894
:100050007D0200087D0200087D0200087D02000884
:100060007D0200087D0200087D0200087D02000874
:10007000590800087D0200087D0200087D02000882
:100080007D0200087D0200087D0200087D02000854
:100090007D0200087D0200087D0200087D02000844
:1000A0007D0200087D0200087D0200087D02000834
:1000B0007D0200087D0200087D0200087D02000824
:1000C0007D0200087D0200087D0200087D02000814
:1000D000000000007D0200087D0200087D0200088B
:1000E0007D0200087D0200087D0200087D020008F4
:1000F0007D020008955000087D0200087D0200087E
:100100007D0200087D0200087D0200087D020008D3
:100110007D0200087D0200087D0200087D020008C3
:100120007D0200087D0200087D0200087D020008B3
:100130007D0200087D0200087D0200087D020008A3
:100140007D0200087D0200087D0200087D02000893
:100150007D0200087D0200087D0200087D02000883
:100160007D0200087D0200087D0200087D02000873
:100170007D0200087D0200087D0200087D02000863
:100180007D0200087D0200087D0200087D02000853
:100190007D0200087D0200087D0200087D02000843
:1001A0007D0200087D0200087D0200087D02000833
:1001B0007D0200087D0200087D0200087D02000823
:1001C0007D0200087D0200087D0200087D02000813
:1001D0007D0200087D020008000000007D0200088A
:1001E0007D0200087D020008000000000000000001
:1001F0007D02000800000000000000007D020008F1
:100200007D0200087D0200087D0200080000000059
:10021000000000007D020008000000007D020008D0
:100220007D0200087D0200087D0200087D020008B2
:100230007D0200087D0200087D0200087D020008A2
:100240007D0200087D0200087D020008DFF80CD066
:1002500000F02CFA00480047B15D00084022002061
:100260000748804707480047FEE7FEE7FEE7FEE74E
:10027000FEE7FEE7FEE7FEE7FEE7FEE7FEE700003B
:100280005D4F00084D020008D2B201E000F8012BDA
:10029000491EFBD270470022F6E710B513460A4606
:1002A00004461946FFF7F0FF204610BD30B50B4657
:1002B000014600202022012409E021FA02F59D4296
:1002C00005D303FA02F5491B04FA02F52844151E6A
:1002D000A2F10102F1DC30BD2DE9F05F05460020FE
:1002E00092469B4688460646814640241BE02846A7
:1002F00041464746224600F000FA53465A46C01A85
:10030000914110D311461846224600F0E7F92D1A04
:1003100067EB01084F4622460120002100F0DEF97C
:1003200017EB00094E41201EA4F10104DFDC484612
:1003300031462A464346BDE8F09F2DE9FE4F8046F0
:1003400081EA0300C00F0C46009021F0004123F029
:100350000045B8EB0200A94105D24046214690462F
:100360001C460B46024623F00040104347D0270DA1
:10037000C7F30A00C3F30A510290401A01904028C3
:100380006BDAC3F3130040F4801B0098924620B14F
:100390000023D2EB030A63EB0B0B01985946C0F123
:1003A0004002504600F09AF906460D46504659461E
:1003B000019A00F0B2F910EB08006141002487EACD
:1003C000115284EAE7731A4340D0009A62B3019A4B
:1003D000012A4FEA075215DC001B61EB02014FF0C6
:1003E000004202EA0752CDE90042001C41F58011AB
:1003F00032462B4600F0B2F903B0BDE8F08F40461C
:100400002146F9E7001B61EB0201001C41F5801356
:1004100000185B412018A2F5001747EB030140EAE2
:10042000D570B6196D4111E06D084FEA360645EA00
:10043000C0754FEA0752001B61EB0201001C41F539
:10044000801149084FEA30000019514132462B46CD
:1004500003B0BDE8F04F00F072B9009801224000EF
:100460000023D0EB020263EBE073009821464FEAD1
:10047000E074B8EB000061EB0401E9E783F00043AE
:100480005BE781F0004158E72DE9FE4F81EA030464
:1004900004F0004421F0004100944FF0000B23F0E1
:1004A000004350EA01045ED052EA03045BD0C3F378
:1004B0000A54C1F30A552C44A4F2F3340194A0FB6E
:1004C0000254C1F3130141F48011C3F3130343F445
:1004D000801301FB024400FB034E840A970A44EA9E
:1004E000815447EA8357A4FB076802958D0A05FBF0
:1004F00007854FEA932C04FB0C542705029D4FEA15
:10050000065847EA1637B5EB08056EEB070C870E61
:10051000920E47EA811742EA8312A7FB0201B6EB6B
:100520000B0164EB00042B0D43EA0C335E1844EB23
:100530001C50DA465146E7FB0201C5F313044FEAAB
:100540000B3343EA14534FEA0432019C43EA060397
:10055000A4F10C040294009CCDE900B400F0FEF874
:1005600003B0BDE8F08F00200146F9E72DE9F04D1A
:1005700081EA030404F0004B21F0004514464FF0DB
:10058000000A23F0004150EA050220D054EA01029B
:100590001DD0C5F30A570246C5F31303C1F3130078
:1005A000C1F30A5640F4801543F48013A7EB060804
:1005B000101BD64608F2FD3873EB050002D308F194
:1005C000010801E092185B41B8F1000F03DA002046
:1005D0000146BDE8F08D00204FF4801106468446A8
:1005E0000EE0171B73EB050705D3121B63EB050326
:1005F00006434CEA010C49084FEA300092185B416F
:1006000050EA0107EDD152EA030012D082EA040059
:1006100083EA0501084305D0101BAB4106D2012235
:10062000002306E000224FF0004302E06FF00102D9
:1006300053101AEB06004CEB085110EB0A0041EB8B
:100640000B01BDE8F04D00F07AB8C1F30A52C1F3D6
:10065000130140F2FF3341F480119A4202DA002084
:100660000146704740F233439A42A2F2334202DC21
:10067000524200F042B800F031B8000030B5041E1C
:1006800071F1000404DB4FF00044404264EB0101CF
:10069000141E73F1000405DB1C464FF00043524268
:1006A00063EB0403994208BF904230BD1CB5094872
:1006B0000090094801900546009C06E0E06840F083
:1006C000010394E8070098471034AC42F6D3FFF7D3
:1006D000C1FD0000C86C0008E86C0008202A04DB9B
:1006E000203A00FA02F1002070479140C2F1200345
:1006F00020FA03F3194390407047202A04DB203A84
:1007000021FA02F00021704721FA02F3D040C2F131
:1007100020029140084319467047202A06DBCB1778
:10072000203A41FA02F043EAE07306E041FA02F3AC
:10073000D040C2F12002914008431946704710B5DD
:10074000141E73F1000408DA401C41F100019218F4
:100750005B411A4301D120F0010010BD2DE9F04D9D
:1007600092469B4611B1B1FA81F202E0B0FA80F2F2
:1007700020329046FFF7B2FF04460F4640EA0A00D7
:1007800041EA0B0153465A46084313D0114653EA37
:10079000010019D0C8F140025046FFF7AEFF0546F0
:1007A0000E46504659464246FFF798FF084305D08B
:1007B000012004E020463946BDE8F08D00200543C5
:1007C00046EAE0762C4337430A986305E40AA0EB37
:1007D00008000022FD0A44EA47540A3002D50020EE
:1007E0000146E9E7010510196941DDE908450019ED
:1007F0006941BDE8F04DA2E770B58C1810F8015BB7
:1008000015F0070301D110F8013B2A1106D110F8A9
:10081000012B03E010F8016B01F8016B5B1EF9D1AD
:100820002B0705D40023521E0DD401F8013BFAE733
:1008300010F8013BCB1A921C03E013F8015B01F89E
:10084000015B521EF9D5A142D8D3002070BD000033
:10085000FFE7FEE77047000080B5022000F07EF859
:1008600080BD000072B6FFE7FEE7000080B584B0EF
:10087000039000F04FFA0290039801900198013024
:1008800048B1FFE741F6F800C2F200000178019894
:1008900008440190FFE7FFE700F03CFA0299401A94
:1008A0000199884201D2FFE7F6E704B080BD00005D
:1008B00081B000208DF8030042F22800C4F202004B
:1008C000016841F0010101600068C00720B9FFE73D
:1008D00001208DF80300FFE79DF8030001B0704789
:1008E00081B000208DF8030042F22800C4F202001B
:1008F0000068C007D8B1FFE742F20401C4F2020168
:1009000040F22310C4F26750086048F6AB10CCF6F2
:10091000EF50086042F22800C4F202000068C007ED
:1009200020B1FFE701208DF80300FFE7FFE79DF806
:10093000030001B07047000081B0ADF80200BDF8BF
:100940000200022807D1FFE741F68C31C2F2000114
:1009500001200870FFE701B07047000080B582B049
:10096000ADF8060042F20C00C4F202400068BDF887
:10097000061008420CD0FFE7BDF8060042F20C0159
:10098000C4F202410860BDF8060000F019F8FFE764
:1009900042F21000C4F202400068BDF8061008429E
:1009A0000CD0FFE7BDF8060042F21001C4F202418C
:1009B0000860BDF80600FFF7BFFFFFE702B080BD8B
:1009C00081B0ADF8020001B07047000085B004901E
:1009D000039100200090FFE7039800680099C84049
:1009E000002800F06681FFE703980068009A012163
:1009F0009140084001900198002800F05681FFE7DF
:100A000003984068022805D0FFE703984068122841
:100A100028D1FFE7049800996FF0030202EA510120
:100A20000844006A0290009800F0070081000F203F
:100A300000FA01F10298884302900398006900F0DF
:100A40000F00009901F00701890000FA01F10298F6
:100A50000843029002980499009B02EA5302114451
:100A60000862FFE7049800680290009841000320A4
:100A700000FA01F10298884302900398406800F060
:100A800003000099490000FA01F10298084302901E
:100A90000298049908600398406801280FD0FFE786
:100AA0000398406802280AD0FFE70398406811289D
:100AB00005D0FFE70398406812282FD1FFE704987C
:100AC0008068029000984100032000FA01F102982A
:100AD000884302900398C0680099490000FA01F128
:100AE000029808430290029804998860049840682C
:100AF00002900099012000FA01F1029888430290C7
:100B000003984068C0F30010009900FA01F10298C0
:100B100008430290029804994860FFE703984068F0
:100B200000F0030003280CD1FFE70398406800F0B1
:100B3000030003281DD1FFE703988068012818D01F
:100B4000FFE70498C068029000984100032000FA73
:100B500001F1029888430290039880680099490047
:100B600000FA01F102980843029002980499C860C3
:100B7000FFE70398C079C006002840F19580FFE7A1
:100B8000009820F0030042F26002C4F20242805852
:100B90000290009800F00300C1000F2000FA01F15C
:100BA00002988843029004984FF60041CBF6FD511D
:100BB0000840800A009901F00301C90000FA01F120
:100BC0000298084302900298009921F0030188508E
:100BD00042F20000C4F202400068029001990298BB
:100BE0008843029003988079C006002805D5FFE766
:100BF0000199029808430290FFE7029842F200012F
:100C0000C4F20241086042F20400C4F202400068EB
:100C10000290019902988843029003988079800697
:100C2000002805D5FFE70199029808430290FFE7E5
:100C3000029842F20401C4F20241086042F28400C8
:100C4000C4F2024000680290019902988843029021
:100C5000039880798007002805D5FFE7019902985D
:100C600008430290FFE7029842F28401C4F2024175
:100C7000086042F28000C4F20240006802900199CC
:100C800002988843029003988079C00728B1FFE753
:100C90000199029808430290FFE7029842F280010E
:100CA000C4F202410860FFE7FFE7009801300090BE
:100CB00092E605B07047000082B00190ADF80210D6
:100CC00001980069BDF80210084204D0FFE7012036
:100CD0008DF8010003E000208DF80100FFE79DF88A
:100CE000010002B07047000082B00190ADF8021020
:100CF0008DF801209DF8010028B1FFE7BDF8020042
:100D00000199886104E0BDF8020001998862FFE75B
:100D100002B0704741F61C60C2F2000000687047E4
:100D200080B584B00290029820B9FFE701208DF8C9
:100D30000F0078E0029800F07BF8029801684CF60A
:100D4000CC4008600298016845F25550086002984E
:100D50000168406848600298016880688860FFF711
:100D6000D9FF0190FFE702980068C068800700285B
:100D700014D5FFE7FFF7CEFF0199401A22280CD3C4
:100D8000FFE702980068C0688007002804D5FFE7E5
:100D900003208DF80F0046E0FFE7E4E702980069C2
:100DA00030B9FFE7029801684FF48040486106E0DF
:100DB00002980168006940F440404861FFE7FFF78E
:100DC000A9FF0190FFE702980068C068000798B18A
:100DD000FFE7FFF79FFF0199401A22280BD3FFE797
:100DE00002980068C068000720B1FFE703208DF873
:100DF0000F0018E0FFE7E6E7029800680069029933
:100E0000C968884205D0FFE702980168C068086198
:100E100005E0029801684AF6AA200860FFE7002072
:100E20008DF80F00FFE79DF80F0004B080BD0000B3
:100E300081B0009001B0704741F6F800C2F20000A6
:100E4000027841F61C61C2F2000108681044086093
:100E50007047000080B582B0032000F0F7F902F07F
:100E6000E7F840F62041C4F20241096801F00F02A0
:100E700046F66C31C0F60001895CC84040F20401BE
:100E8000C2F200010860042002F036FF0F2000F0DB
:100E900011F820B1FFE701208DF8070005E000F010
:100EA000B1F900208DF80700FFE79DF8070002B0B8
:100EB00080BD000080B58EB00D90FFE740F69C40ED
:100EC000C4F20240016841F001010160006800F0D5
:100ED000010001900198FFE707A803A902F044F878
:100EE0000A980590059820B9FFE702F08DF8069062
:100EF00004E002F089F840000690FFE706984009F8
:100F000045F6C521C0F67C21A0FB01014FF0FF3062
:100F100000EBD110049041F64030C2F200004FF0D7
:100F2000804101606321C160049941600021016139
:100F3000816002F04BFF8DF80B009DF80B0010BB99
:100F4000FFE741F64030C2F2000002F097FF8DF853
:100F50000B009DF80B00A8B9FFE70D980F280CD8DF
:100F6000FFE70D992D20002200F058F90D9841F669
:100F7000FC01C2F20001086003E001208DF80B00C3
:100F8000FFE7FFE7FFE72D2000F03EF99DF80B009B
:100F90000EB080BD80B584B00290029820B9FFE702
:100FA00001208DF80F00FAE002984068012806D071
:100FB000FFE70298806AB0F5000F01D1FFE7FFE775
:100FC000029840694FF6FF71884201D0FFE7FFE7C2
:100FD000029890F84A0040B9FFE70299002081F892
:100FE0004900029800F0E0F8FFE70299022081F83A
:100FF0004A0002980168086940F0010008610298FF
:1010000000684FF48071416002980268406B906202
:10101000029803F08DFB032804D1FFE703208DF82D
:101020000F00BCE00298006810214160029802683D
:10103000006A9061029803F07BFB032804D1FFE76C
:1010400003208DF80F00AAE0FFE702980068C06A4D
:10105000800700280FD4FFE702980068C06A800369
:10106000002807D4FFE702980168086920F0010012
:101070000861FFE7FFE7FFE702980068C06801909A
:1010800002984068012806D0FFE70298806AB0F510
:10109000000F05D1FFE7019820F01E000190FFE747
:1010A000029840694FF6FF71884206D0FFE7019829
:1010B0004EF2C00188430190FFE701984FF2FE1104
:1010C000CFF6397108400190029948688B684A6AE6
:1010D000896A18431043014301980843019002981C
:1010E000406840B9FFE702980169C069014301986F
:1010F00008430190FFE702984068012806D0FFE707
:101100000298806AB0F5000F08D1FFE70299C8681D
:1011100009690143019808430190FFE7029840697B
:101120004FF6FF7188420AD0FFE7029948698A6941
:10113000C96910430143019808430190FFE70198F2
:1011400002990968C86002980068B0F1442F09D07C
:10115000FFE70298006849F20041C4F200018842AA
:1011600007D1FFE7029A1168D06A126B10434862F8
:1011700004E002980168C06A4862FFE7FFE702994D
:10118000012081F84B00029981F84C00FFE7029999
:10119000012081F84A0000208DF80F00FFE79DF83C
:1011A0000F0004B080BD000080B5C6B0459002A815
:1011B0004FF48471FFF76FF845980068B0F1442F41
:1011C0001ED1FFE7002003904FF4003102912B90D5
:1011D00002A800F043F818B1FFE7FFF743FBFFE771
:1011E000FFE740F6A840C4F20240016841F4006104
:1011F0000160006800F4006001900198FFE7FFE7DC
:1012000046B080BD7047000080B582B0ADF80600E2
:10121000BDF9060004F0F6F802B080BD80B586B0D6
:10122000ADF816000491039204F004F90290BDF9A0
:101230001600019002980499039A03F0A9FB014655
:10124000019804F0FFF806B080BD000080B582B0C0
:101250000190019804F018F902B080BD80B5ACB0DF
:101260002B9000208DF8A3008DF8A2002B98C07859
:10127000C00760B1FFE740F6E841C4F202410868E8
:1012800020F040402B9A926D10430860FFE72B98A6
:101290000068C007002837D0FFE72B98C06D279063
:1012A000052817D82799DFE801F003040B1213145F
:1012B00014E02B98083003F0CDFB8DF8A3000DE06F
:1012C0002B98303003F07CFC8DF8A30006E005E09D
:1012D00004E003E001208DF8A300FFE79DF8A300E0
:1012E00060B9FFE740F6D841C4F20241086820F037
:1012F00007002B9AD26D1043086004E09DF8A3000C
:101300008DF8A200FFE7FFE72B9800788007002800
:1013100040F14A80FFE72B98006E2690282829D8B4
:101320002699DFE801F015272727272727271627E3
:101330002727272727271D2727272727272724274A
:101340002727272727272527272727272727260057
:1013500014E02B98083003F07DFB8DF8A3000DE01E
:101360002B98303003F02CFC8DF8A30006E005E04C
:1013700004E003E001208DF8A300FFE79DF8A3003F
:1013800060B9FFE740F6D841C4F20241086820F096
:1013900038002B9A126E1043086004E09DF8A300F9
:1013A0008DF8A200FFE7FFE72B98007840070028A0
:1013B00047D5FFE72B98406E2590B0B1FFE7259801
:1013C000402813D0FFE72598802816D0FFE72598FE
:1013D000C02819D0FFE72598B0F5807F15D0FFE72A
:1013E0002598B0F5A07F11D011E014E02B980830BB
:1013F00003F030FB8DF8A3000DE02B98303003F0A4
:10140000DFFB8DF8A30006E005E004E003E0012027
:101410008DF8A300FFE79DF8A30060B9FFE740F651
:10142000D841C4F20241086820F4E0702B9A526E51
:101430001043086004E09DF8A3008DF8A200FFE7C8
:10144000FFE72B980078000700284AD5FFE72B9884
:10145000806E2490C8B1FFE72498B0F5007F15D0C6
:10146000FFE72498B0F5806F17D0FFE72498B0F518
:10147000C06F19D0FFE72498B0F5006F15D0FFE7D3
:101480002498B0F5206F11D011E014E02B980830AB
:1014900003F0E0FA8DF8A3000DE02B98303003F054
:1014A0008FFB8DF8A30006E005E004E003E00120D7
:1014B0008DF8A300FFE79DF8A30060B9FFE740F6B1
:1014C000D841C4F20241086820F460602B9A926E01
:1014D0001043086004E09DF8A3008DF8A200FFE728
:1014E000FFE72B980078C00600284AD5FFE72B9825
:1014F000C06E2390C8B1FFE72398B0F5805F15D088
:10150000FFE72398B0F5005F17D0FFE72398B0F509
:10151000405F19D0FFE72398B0F5804F15D0FFE763
:101520002398B0F5A04F11D011E014E02B980830AB
:1015300003F090FA8DF8A3000DE02B98303003F003
:101540003FFB8DF8A30006E005E004E003E0012086
:101550008DF8A300FFE79DF8A30060B9FFE740F610
:10156000D841C4F20241086820F4E0402B9AD26EC0
:101570001043086004E09DF8A3008DF8A200FFE787
:10158000FFE72B980078800600284AD5FFE72B98C4
:10159000006F2290C8B1FFE72298B0F5004F15D038
:1015A000FFE72298B0F5803F17D0FFE72298B0F50B
:1015B000C03F19D0FFE72298B0F5003F15D0FFE7F4
:1015C0002298B0F5203F11D011E014E02B9808309C
:1015D00003F040FA8DF8A3000DE02B98303003F0B3
:1015E000EFFA8DF8A30006E005E004E003E0012037
:1015F0008DF8A300FFE79DF8A30060B9FFE740F670
:10160000D841C4F20241086820F460302B9A126F6E
:101610001043086004E09DF8A3008DF8A200FFE7E6
:10162000FFE72B980078400600284AD5FFE72B9863
:10163000406F2190C8B1FFE72198B0F5802F15D0F9
:10164000FFE72198B0F5002F17D0FFE72198B0F5FC
:10165000402F19D0FFE72198B0F5801F15D0FFE784
:101660002198B0F5A01F11D011E014E02B9808309C
:1016700003F0F0F98DF8A3000DE02B98303003F063
:101680009FFA8DF8A30006E005E004E003E00120E6
:101690008DF8A300FFE79DF8A30060B9FFE740F6CF
:1016A000D841C4F20241086820F4E0102B9A526F2E
:1016B0001043086004E09DF8A3008DF8A200FFE746
:1016C000FFE72B980078000600284AD5FFE72B9803
:1016D000806F2090C8B1FFE72098B0F5001F15D0AB
:1016E000FFE72098B0F5800F17D0FFE72098B0F5FE
:1016F000C00F19D0FFE72098B0F5000F15D0FFE715
:101700002098B0F5200F11D011E014E02B9808308C
:1017100003F0A0F98DF8A3000DE02B98303003F012
:101720004FFA8DF8A30006E005E004E003E0012095
:101730008DF8A300FFE79DF8A30060B9FFE740F62E
:10174000D841C4F20241086820F460002B9A926FDD
:101750001043086004E09DF8A3008DF8A200FFE7A5
:10176000FFE72B984078C00700284AD0FFE72B9866
:10177000C06F1F90C8B1FFE71F98B0F1807F15D0F0
:10178000FFE71F98B0F1007F17D0FFE71F98B0F177
:10179000407F19D0FFE71F98B0F1806F15D0FFE7A9
:1017A0001F98B0F1A06F11D011E014E02B98083011
:1017B00003F050F98DF8A3000DE02B98303003F0C2
:1017C000FFF98DF8A30006E005E004E003E0012046
:1017D0008DF8A300FFE79DF8A30060B9FFE740F68E
:1017E000D841C4F20241086820F0E0602B9AD26F21
:1017F0001043086004E09DF8A3008DF8A200FFE705
:10180000FFE72B984078800700284CD5FFE72B98FE
:10181000D0F880001E90C8B1FFE71E98B0F1006FAD
:1018200015D0FFE71E98B0F1805F17D0FFE71E9834
:10183000B0F1C05F19D0FFE71E98B0F1005F15D07E
:10184000FFE71E98B0F1205F11D011E014E02B9853
:10185000083003F0FFF88DF8A3000DE02B9830302E
:1018600003F0AEF98DF8A30006E005E004E003E024
:1018700001208DF8A300FFE79DF8A30068B9FFE7FA
:1018800040F6D841C4F20241086820F060502B9A1B
:10189000D2F880201043086004E09DF8A3008DF882
:1018A000A200FFE7FFE72B9840784007002839D5D2
:1018B000FFE72B98D0F884001D90052817D81D99B4
:1018C000DFE801F003040B12131414E02B98083026
:1018D00003F0C0F88DF8A3000DE02B98303003F032
:1018E0006FF98DF8A30006E005E004E003E00120B5
:1018F0008DF8A300FFE79DF8A30068B9FFE740F665
:10190000DC41C4F20241086820F007002B9AD2F8AB
:1019100084201043086004E09DF8A3008DF8A20025
:10192000FFE7FFE72B9840780007002847D5FFE73F
:101930002B98D0F888001C90A0B1FFE71C981028C5
:1019400011D0FFE71C98202814D0FFE71C983028FE
:1019500017D0FFE71C98402814D0FFE71C985028A8
:1019600011D011E014E02B98083003F073F88DF8D3
:10197000A3000DE02B98303003F022F98DF8A3007E
:1019800006E005E004E003E001208DF8A300FFE796
:101990009DF8A30068B9FFE740F6DC41C4F20241BC
:1019A000086820F070002B9AD2F888201043086055
:1019B00004E09DF8A3008DF8A200FFE7FFE72B9855
:1019C0004078C00600284CD5FFE72B98D0F88C0053
:1019D0001B90C8B1FFE71B98B0F1807F15D0FFE7DF
:1019E0001B98B0F1007F17D0FFE71B98B0F1407F44
:1019F00019D0FFE71B98B0F1806F15D0FFE71B9857
:101A0000B0F1A06F11D011E014E02B98083003F072
:101A100021F88DF8A3000DE02B98303003F0D0F8BA
:101A20008DF8A30006E005E004E003E001208DF856
:101A3000A300FFE79DF8A30068B9FFE740F6E04187
:101A4000C4F20241086820F0E0602B9AD2F88C20A2
:101A50001043086004E09DF8A3008DF8A200FFE7A2
:101A6000FFE72B984078800600283AD5FFE72B98AF
:101A7000D0F890001A9078B1FFE71A98B0F5803F3F
:101A80000BD0FFE71A98B0F5003F0DD0FFE71A988A
:101A9000B0F5403F09D009E00CE02B98303003F05E
:101AA0008FF88DF8A30005E004E003E001208DF835
:101AB000A300FFE79DF8A30068B9FFE740F6E44103
:101AC000C4F20241086820F440302B9AD2F89020EA
:101AD0001043086004E09DF8A3008DF8A200FFE722
:101AE000FFE72B984078400600283AD5FFE72B986F
:101AF000D0F89400199078B1FFE71998B0F5802FCD
:101B00000BD0FFE71998B0F5002F0DD0FFE719981B
:101B1000B0F5402F09D009E00CE02B98303003F0ED
:101B20004FF88DF8A30005E004E003E001208DF8F4
:101B3000A300FFE79DF8A30068B9FFE740F6E44182
:101B4000C4F20241086820F440202B9AD2F8942075
:101B50001043086004E09DF8A3008DF8A200FFE7A1
:101B6000FFE72B984078000600283AD5FFE72B982E
:101B7000D0F89800189078B1FFE71898B0F5801F5A
:101B80000BD0FFE71898B0F5001F0DD0FFE71898AD
:101B9000B0F5401F09D009E00CE02B98303003F07D
:101BA0000FF88DF8A30005E004E003E001208DF8B4
:101BB000A300FFE79DF8A30068B9FFE740F6E44102
:101BC000C4F20241086820F440102B9AD2F8982001
:101BD0001043086004E09DF8A3008DF8A200FFE721
:101BE000FFE72B984079400700283AD5FFE72B986C
:101BF000D0F89C00179078B1FFE71798B0F5800FE8
:101C00000BD0FFE71798B0F5000F0DD0FFE717983E
:101C1000B0F5400F09D009E00CE02B98303002F00D
:101C2000CFFF8DF8A30005E004E003E001208DF86C
:101C3000A300FFE79DF8A30068B9FFE740F6E44181
:101C4000C4F20241086820F440002B9AD2F89C208C
:101C50001043086004E09DF8A3008DF8A200FFE7A0
:101C6000FFE72B988078C007A0B3FFE72B98D0F848
:101C7000A000169050B1FFE71698B0F1807F06D013
:101C8000FFE71698B0F1007F08D008E00BE02B9832
:101C9000303002F095FF8DF8A30004E003E001204E
:101CA0008DF8A300FFE79DF8A30068B9FFE740F6B1
:101CB000E441C4F20241086820F040702B9AD2F847
:101CC000A0201043086004E09DF8A3008DF8A20056
:101CD000FFE7FFE72B9840790007002811D5FFE7C1
:101CE000FFE740F61C41C4F20241086820F40040BE
:101CF00008602B98D0F80021086810430860FFE7BF
:101D0000FFE72B988078800700284CD5FFE72B98B9
:101D1000D0F8A4001590C8B1FFE71598B0F5807F02
:101D200015D0FFE71598B0F5007F17D0FFE715989D
:101D3000B0F5407F19D0FFE71598B0F5806F15D04A
:101D4000FFE71598B0F5A06F11D011E014E02B98C3
:101D5000083002F07FFE8DF8A3000DE02B983030A4
:101D600002F02EFF8DF8A30006E005E004E003E09A
:101D700001208DF8A300FFE79DF8A30068B9FFE7F5
:101D800040F6DC41C4F20241086820F4E0602B9A7E
:101D9000D2F8A4201043086004E09DF8A3008DF859
:101DA000A200FFE7FFE72B988078400700284CD57A
:101DB000FFE72B98D0F8A8001490C8B1FFE714985B
:101DC000B0F5805F15D0FFE71498B0F5005F17D02D
:101DD000FFE71498B0F5405F19D0FFE71498B0F50D
:101DE000804F15D0FFE71498B0F5A04F11D011E047
:101DF00014E02B98083002F02DFE8DF8A3000DE0C2
:101E00002B98303002F0DCFE8DF8A30006E005E0F0
:101E100004E003E001208DF8A300FFE79DF8A30094
:101E200068B9FFE740F6DC41C4F20241086820F4DB
:101E3000E0402B9AD2F8A8201043086004E09DF8F7
:101E4000A3008DF8A200FFE7FFE72B98007980063A
:101E500000284CD5FFE72B98D0F8AC001390C8B100
:101E6000FFE71398B0F5803F15D0FFE71398B0F562
:101E7000003F17D0FFE71398B0F5403F19D0FFE7B8
:101E80001398B0F5802F15D0FFE71398B0F5A02F69
:101E900011D011E014E02B98083002F0DBFD8DF832
:101EA000A3000DE02B98303002F08AFE8DF8A300DD
:101EB00006E005E004E003E001208DF8A300FFE761
:101EC0009DF8A30068B9FFE740F6DC41C4F2024187
:101ED000086820F4E0202B9AD2F8AC201043086068
:101EE00004E09DF8A3008DF8A200FFE7FFE72B9820
:101EF0000079400600284CD5FFE72B98D0F8B000B9
:101F00001290C8B1FFE71298B0F5801F15D0FFE717
:101F10001298B0F5001F17D0FFE71298B0F5401FD8
:101F200019D0FFE71298B0F5800F15D0FFE712988F
:101F3000B0F5A00F11D011E014E02B98083002F09A
:101F400089FD8DF8A3000DE02B98303002F038FEAB
:101F50008DF8A30006E005E004E003E001208DF821
:101F6000A300FFE79DF8A30068B9FFE740F6DC4156
:101F7000C4F20241086820F4E0002B9AD2F8B020A5
:101F80001043086004E09DF8A3008DF8A200FFE76D
:101F9000FFE72B980079000600284CD5FFE72B9827
:101FA000D0F8B4001190C8B1FFE71198B0F1807F6C
:101FB00015D0FFE71198B0F1007F17D0FFE7119817
:101FC000B0F1407F19D0FFE71198B0F1806F15D0C4
:101FD000FFE71198B0F1A06F11D011E014E02B9839
:101FE000083002F037FD8DF8A3000DE02B9830305B
:101FF00002F0E6FD8DF8A30006E005E004E003E052
:1020000001208DF8A300FFE79DF8A30068B9FFE762
:1020100040F6DC41C4F20241086820F0E0602B9AEF
:10202000D2F8B4201043086004E09DF8A3008DF8B6
:10203000A200FFE7FFE72B984079C00700284CD0AB
:10204000FFE72B98D0F8B8001090C8B1FFE71098C0
:10205000B0F1805F15D0FFE71098B0F1005F17D0A6
:10206000FFE71098B0F1405F19D0FFE71098B0F18A
:10207000804F15D0FFE71098B0F1A04F11D011E0BC
:1020800014E02B98083002F0E5FC8DF8A3000DE079
:102090002B98303002F094FD8DF8A30006E005E0A7
:1020A00004E003E001208DF8A300FFE79DF8A30002
:1020B00068B9FFE740F6DC41C4F20241086820F04D
:1020C000E0402B9AD2F8B8201043086004E09DF855
:1020D000A3008DF8A200FFE7FFE72B9880780007A8
:1020E00000284ED5FFE72B98D0F8C0000F90A0B184
:1020F000FFE70F98B0F5803F18D0FFE70F98B0F5D5
:10210000003F1AD0FFE70F98B0F5403F1CD0FFE723
:102110000F98B0F5802F18D018E040F62841C4F28F
:102120000241086840F40030086013E02B98083042
:1021300002F090FC8DF8A3000CE02B98303002F0F8
:102140003FFD8DF8A30005E004E003E001208DF8D9
:10215000A300FFE79DF8A30068B9FFE740F6E84158
:10216000C4F20241086820F4E0202B9AD2F8C02083
:102170001043086004E09DF8A3008DF8A200FFE77B
:10218000FFE72B988078C00600284DD5FFE72B98F5
:10219000D0F8C4000E90A0B1FFE70E98B0F5002F64
:1021A00018D0FFE70E98B0F5801F1AD0FFE70E9801
:1021B000B0F5C01F1CD0FFE70E98B0F5001F17D078
:1021C00017E040F62841C4F20241086840F40030AC
:1021D000086012E02B98083002F03CFC8DF8A30058
:1021E0000BE02B98303002F0EBFC8DF8A30004E0FC
:1021F00003E001208DF8A300FFE79DF8A30068B974
:10220000FFE740F6E841C4F20241086820F460109C
:102210002B9AD2F8C4201043086004E09DF8A30074
:102220008DF8A200FFE7FFE72B9880788006002852
:1022300034D5FFE72B98D0F8D0000D90022809D3B1
:10224000FFE70D98022806D0FFE70D980338032812
:1022500008D308E00BE02B98083002F0FBFB8DF868
:10226000A30004E003E001208DF8A300FFE79DF840
:10227000A30068B9FFE740F6E841C4F202410868EC
:1022800020F007002B9AD2F8D0201043086004E019
:102290009DF8A3008DF8A200FFE7FFE72B98407997
:1022A0008007002827D5FFE72B98D0F8D4000C90A2
:1022B00020B1FFE70C98082801D001E004E003E01A
:1022C00001208DF8A300FFE79DF8A30068B9FFE7A0
:1022D00040F6E841C4F20241086820F008002B9A59
:1022E000D2F8D4201043086004E09DF8A3008DF8D4
:1022F000A200FFE7FFE72B98C0788007002840F195
:10230000B580FFE740F62401C4F20241086840F0BE
:1023100001000860FEF7FEFC2990FFE740F624006C
:10232000C4F202400068C00760B9FFE7FEF7F2FCA4
:102330002999401A032804D3FFE703208DF8A3004E
:1023400000E0EBE79DF8A300002840F08980FFE75C
:1023500040F6F040C4F20240006800F440702A9059
:102360002A98D0B1FFE72A982B99D1F8F410884227
:1023700013D0FFE740F6F041C4F20241086820F4B0
:1023800040702A90086840F480300860086820F4A3
:10239000803008602A980860FFE79DF8A800C00711
:1023A000E0B1FFE7FEF7B6FC2990FFE740F6F0400A
:1023B000C4F202400068800700280ED4FFE7FEF751
:1023C000A9FC2999401A41F28931884204D3FFE7D8
:1023D00003208DF8A30000E0E8E7FFE79DF8A300E5
:1023E000C0BBFFE7FFE72B98D0F8F40000F4407083
:1023F000B0F5407F13D1FFE740F61C41C4F2024123
:10240000086820F47C502B9AD2F8F4204FF6F04361
:10241000C0F6FF731A4040EA1210086008E040F668
:102420001C41C4F20241086820F47C500860FFE7B8
:1024300040F6F041C4F20241086820F440700860A0
:102440002B98D0F8F4206FF31F320868104308600F
:10245000FFE704E09DF8A3008DF8A200FFE704E089
:102460009DF8A3008DF8A200FFE7FFE72B98C07846
:102470004007002839D5FFE72B98D0F8C8000B900B
:1024800060B1FFE70B98102809D0FFE70B982028D0
:102490000ED0FFE70B9830280BD00BE00EE040F693
:1024A0002841C4F20241086840F40030086005E0A9
:1024B00004E003E001208DF8A300FFE79DF8A300EE
:1024C00068B9FFE740F6E841C4F20241086820F02D
:1024D00030002B9AD2F8C8201043086004E09DF821
:1024E000A3008DF8A200FFE7FFE72B988078400655
:1024F000002835D5FFE72B98D0F8CC000A9020B102
:10250000FFE70A98402809D00FE040F62841C4F2BE
:102510000241086840F4003008600AE02B98083057
:1025200002F098FA8DF8A30003E001208DF8A300D3
:10253000FFE79DF8A30068B9FFE740F6E441C4F265
:102540000241086820F040002B9AD2F8CC201043BA
:10255000086004E09DF8A3008DF8A200FFE7FFE704
:102560002B98C0780007002840D5FFE72B98D0F8BB
:10257000DC00099004281ED80999DFE801F0030C5B
:10258000131A1B0040F62841C4F20241086840F4C7
:102590000030086013E02B98083002F05BFA8DF8E9
:1025A000A3000CE02B98303002F00AFB8DF8A3005A
:1025B00005E004E003E001208DF8A300FFE79DF8AB
:1025C000A30068B9FFE740F6E041C4F202410868A1
:1025D00020F007002B9AD2F8DC201043086004E0BA
:1025E0009DF8A3008DF8A200FFE7FFE72B98C078C5
:1025F000C006002840F14F80FFE72B98D0F8E0009C
:10260000089020282CD80899DFE801F0112A2A2AFE
:102610002A2A2A2A1A2A2A2A2A2A2A2A212A2A2A33
:102620002A2A2A2A282A2A2A2A2A2A2A290040F655
:102630002841C4F20241086840F40030086013E009
:102640002B98083002F006FA8DF8A3000CE02B98C6
:10265000303002F0B5FA8DF8A30005E004E003E0A5
:1026600001208DF8A300FFE79DF8A30068B9FFE7FC
:1026700040F6E041C4F20241086820F038002B9A8D
:10268000D2F8E0201043086004E09DF8A3008DF824
:10269000A200FFE7FFE72B98C078800600284BD503
:1026A000FFE72B98D0F8E400079088B1FFE7079880
:1026B000402816D0FFE70798802819D0FFE7079831
:1026C000C0281CD0FFE70798B0F5807F18D018E02D
:1026D00040F62841C4F20241086840F40030086026
:1026E00013E02B98083002F0B5F98DF8A3000CE048
:1026F0002B98303002F064FA8DF8A30005E004E076
:1027000003E001208DF8A300FFE79DF8A30068B95E
:10271000FFE740F6E041C4F20241086820F4E070AF
:102720002B9AD2F8E4201043086004E09DF8A3003F
:102730008DF8A200FFE7FFE72B98C078400600283D
:102740004CD5FFE72B98D0F8E8000690C8B1FFE71A
:102750000698B0F5007F15D0FFE70698B0F5806FBA
:1027600017D0FFE70698B0F5C06F19D0FFE70698BD
:10277000B0F5006F15D0FFE70698B0F5206F11D0C7
:1027800011E014E02B98083002F064F98DF8A300F2
:102790000DE02B98303002F013FA8DF8A30006E01C
:1027A00005E004E003E001208DF8A300FFE79DF8B9
:1027B000A30068B9FFE740F6E041C4F202410868AF
:1027C00020F460602B9AD2F8E8201043086004E0FF
:1027D0009DF8A3008DF8A200FFE7FFE72B98C078D3
:1027E000000600284CD5FFE72B98D0F8EC000590A8
:1027F000C8B1FFE70598B0F5805F15D0FFE70598F1
:10280000B0F5005F17D0FFE70598B0F5405F19D02D
:10281000FFE70598B0F5804F15D0FFE70598B0F5B4
:10282000A04F11D011E014E02B98083002F012F9FB
:102830008DF8A3000DE02B98303002F0C1F98DF82F
:10284000A30006E005E004E003E001208DF8A3000A
:10285000FFE79DF8A30068B9FFE740F6E041C4F246
:102860000241086820F4E0402B9AD2F8EC20104393
:10287000086004E09DF8A3008DF8A200FFE7FFE7E1
:102880002B980079C00700284CD0FFE72B98D0F890
:10289000F0000490C8B1FFE70498B0F5004F15D0E0
:1028A000FFE70498B0F5803F17D0FFE70498B0F534
:1028B000C03F19D0FFE70498B0F5003F15D0FFE7FF
:1028C0000498B0F5203F11D011E014E02B980830A7
:1028D00002F0C0F88DF8A3000DE02B98303002F024
:1028E0006FF98DF8A30006E005E004E003E00120A5
:1028F0008DF8A300FFE79DF8A30068B9FFE740F655
:10290000E041C4F20241086820F460302B9AD2F80A
:10291000F0201043086004E09DF8A3008DF8A200A9
:10292000FFE7FFE72B9800798007002838D5FFE7FD
:102930002B98D0F8D8000390032816D80399DFE825
:1029400001F002030C1314E040F62841C4F20241E6
:10295000086840F4003008600BE02B98083002F063
:1029600079F88DF8A30004E003E001208DF8A300BE
:10297000FFE79DF8A30068B9FFE740F6E441C4F221
:102980000241086820F003002B9AD2F8D8201043A7
:10299000086004E09DF8A3008DF8A200FFE7FFE7C0
:1029A0002B980079400700283CD5FFE72B98D0F8FA
:1029B000BC00029050B1FFE70298B0F5807F06D0CE
:1029C000FFE70298B0F5007F0AD010E013E040F670
:1029D0002841C4F20241086840F4003008600AE06F
:1029E0002B98083002F036F88DF8A30003E00120A0
:1029F0008DF8A300FFE79DF8A30068B9FFE740F654
:102A0000E841C4F20241086820F440702B9AD2F8E1
:102A1000BC201043086004E09DF8A3008DF8A200DC
:102A2000FFE7FFE72B980079C00600283BD5FFE7BA
:102A30002B98D0F8FC000190102808D0FFE70198EF
:102A400020280DD0FFE70198302810D010E040F684
:102A50002841C4F20241086840F4003008600BE0ED
:102A60002B98303002F0ACF88DF8A30004E003E0BE
:102A700001208DF8A300FFE79DF8A30068B9FFE7E8
:102A800040F6E441C4F20241086820F030002B9A7D
:102A9000D2F8FC201043086004E09DF8A3008DF8F4
:102AA000A200FFE7FFE72B980079000700280DD56B
:102AB000FFE740F6E841C4F20241086820F0C00098
:102AC0002B9AD2F8F82010430860FFE79DF8A20087
:102AD0002CB080BD80B586B004900391049820B9D5
:102AE000FFE701208DF817003AE2039842F2000157
:102AF000C4F20201096801F00F01884216D9FFE70C
:102B000042F20000C4F20200016821F00F01039AB2
:102B100011430160006800F00F000399884204D05F
:102B2000FFE701208DF817001AE2FFE7049800780C
:102B3000C00600281BD5FFE70498406940F62041F5
:102B4000C4F20241096801F4E041B0EB112F0DD944
:102B5000FFE740F62041C4F20241086820F4E0405B
:102B6000049A526940EA02200860FFE7FFE70498F0
:102B70000078000700281BD5FFE70498006940F69D
:102B80002041C4F20241096801F4E061B0EB111F79
:102B90000DD9FFE740F62041C4F20241086820F455
:102BA000E060049A126940EA02100860FFE7FFE75C
:102BB000049800784007002819D5FFE70498C068FA
:102BC00040F62041C4F20241096801F070018842D8
:102BD0000CD9FFE740F62041C4F20241086820F01A
:102BE0007000049AD26810430860FFE7FFE704987A
:102BF00000788007002819D5FFE70498806840F620
:102C00002041C4F20241096801F00F0188420CD949
:102C1000FFE740F62041C4F20241086820F00F00AF
:102C2000049A926810430860FFE7FFE70498007871
:102C3000C007002800F0D180FFE70498406803280F
:102C40000ED1FFE740F60040C4F202400068800168
:102C5000002804D4FFE701208DF8170080E135E05B
:102C60000498406802280ED1FFE740F60040C4F205
:102C7000024000688003002804D4FFE701208DF89B
:102C800017006DE121E00498406801280ED1FFE7AC
:102C900040F60040C4F2024000688005002804D4D9
:102CA000FFE701208DF817005AE10DE040F60040E3
:102CB000C4F2024000688007002804D4FFE7012026
:102CC0008DF817004CE1FFE7FFE7FFE740F61C41F6
:102CD000C4F20241086820F00300049A52681043CD
:102CE0000860FEF717F801900498406803281AD18D
:102CF000FFE7FFE740F61C40C4F20240006800F026
:102D0000180018280ED0FFE7FEF704F80199401AC2
:102D100041F28931884204D3FFE703208DF8170080
:102D20001EE1E7E758E00498406802281AD1FFE75F
:102D3000FFE740F61C40C4F20240006800F01800B3
:102D400010280ED0FFE7FDF7E5FF0199401A41F288
:102D50008931884204D3FFE703208DF81700FFE094
:102D6000E7E738E00498406801281AD1FFE7FFE759
:102D700040F61C40C4F20240006800F01800082829
:102D80000ED0FFE7FDF7C6FF0199401A41F28931E5
:102D9000884204D3FFE703208DF81700E0E0E7E75F
:102DA00018E0FFE740F61C40C4F20240006810F053
:102DB000180F0ED0FFE7FDF7ADFF0199401A41F261
:102DC0008931884204D3FFE703208DF81700C7E05C
:102DD000E8E7FFE7FFE7FFE7FFE7049800788007F1
:102DE000002819D5FFE70498806840F62041C4F216
:102DF0000241096801F00F0188420CD2FFE740F65A
:102E00002041C4F20241086820F00F00049A926841
:102E100010430860FFE7FFE7039842F20001C4F2A5
:102E20000201096801F00F01884216D2FFE742F261
:102E30000000C4F20200016821F00F01039A11435F
:102E40000160006800F00F000399884204D0FFE79A
:102E500001208DF8170083E0FFE704980078400711
:102E6000002819D5FFE70498C06840F62041C4F255
:102E70000241096801F0700188420CD2FFE740F678
:102E80002041C4F20241086820F07000049AD26820
:102E900010430860FFE7FFE7049800780007002868
:102EA0001BD5FFE70498006940F62041C4F20241B7
:102EB000096801F4E061B0EB111F0DD2FFE740F6A5
:102EC0002041C4F20241086820F4E060049A1269CB
:102ED00040EA02100860FFE7FFE704980078C006A8
:102EE00000281BD5FFE70498406940F62041C4F252
:102EF0000241096801F4E041B0EB112F0DD2FFE768
:102F000040F62041C4F20241086820F4E040049AEF
:102F1000526940EA02200860FFE7FFE700F088F806
:102F200040F62041C4F20241096801F00F0246F662
:102F30006C31C0F60001895CC84040F20401C2F265
:102F40000001086041F6FC00C2F200000068FDF7D5
:102F5000B1FF8DF80B009DF80B008DF81700FFE70F
:102F60009DF8170006B080BD83B0029001910299D0
:102F70001F20086040F61C40C4F20240006800F0C8
:102F800003000299486040F62040C4F20240006805
:102F90000090009800F00F0002998860009800F0FF
:102FA00070000299C860009800F4E060000902997E
:102FB0000861009800F4E040000A0299486142F27A
:102FC0000000C4F20200006800F00F0001990860E0
:102FD00003B0704780B500F02BF840F62041C4F2F2
:102FE0000241096801F00F0246F66C31C0F600019B
:102FF000895C01F01F0120FA01F140F20400C2F2E5
:1030000000000160006880BD80B5FFF7E3FF40F677
:103010002041C4F202410968C1F3021246F67C3134
:10302000C0F60001895C01F01F01C84080BD0000AE
:1030300089B040F61C40C4F20240006800F018005D
:10304000082806D1FFE740F60010C0F23D000490CA
:1030500048E140F61C40C4F20240006810F0180F2E
:1030600021D1FFE740F60040C4F20240006800F0C2
:1030700020010020B0EB511F0ED0FFE740F60040CA
:10308000C4F202400068C0F3C10149F20000C0F27E
:10309000D030C840049005E049F20000C0F2D030C2
:1030A0000490FFE71DE140F61C40C4F202400068B6
:1030B00000F01800102806D1FFE747F64000C0F2E4
:1030C0007D1004900CE140F61C40C4F20240006800
:1030D00000F01800182840F0FC80FFE740F6284078
:1030E000C4F20240016801F0030108910168C1F3D4
:1030F000052106910068C0F300100590059840F680
:103100003841C4F20241096889B2C90800FB01F0E4
:1031100000EE100AB8EE400A8DED020A069800286B
:1031200000F0D380FFE708980090012809D0FFE75E
:103130000098022800F08D80FFE70098032864D0F3
:1031400088E040F60040C4F20240006800F0200130
:103150000020B0EB511F33D0FFE740F60040C4F22F
:1031600002400068C0F3C10149F20000C0F2D03053
:10317000C84003909DED030AB8EE400A9DED061A83
:10318000B8EE411A80EE010A40F63440C4F2024023
:1031900000686FF35F2001EE100AB8EE411A9DED52
:1031A000022A9FED533A22EE032A31EE021AB7EEBD
:1031B000002A31EE021A20EE010A8DED010A23E009
:1031C0009DED060AB8EE401A9FED4A0A80EE010A0C
:1031D00040F63440C4F2024000686FF35F2001EE15
:1031E000100AB8EE411A9DED022A9FED413A22EEF7
:1031F000032A31EE021AB7EE002A31EE021A20EE4F
:10320000010A8DED010AFFE748E09DED060AB8EEE0
:10321000401A9FED360A80EE010A40F63440C4F2AF
:10322000024000686FF35F2001EE100AB8EE411A09
:103230009DED022A9FED2E3A22EE032A31EE021A6C
:10324000B7EE002A31EE021A20EE010A8DED010AD6
:1032500024E0FFE79DED060AB8EE401A9FED260A2E
:1032600080EE010A40F63440C4F2024000686FF379
:103270005F2001EE100AB8EE411A9DED022A9FED83
:103280001C3A22EE032A31EE021AB7EE002A31EE82
:10329000021A20EE010A8DED010AFFE740F63440E4
:1032A000C4F20240006881B2012000EB5120079077
:1032B0009DED010A9DED071AB8EE411A80EE010A54
:1032C000BCEEC00A8DED040A02E000200490FFE786
:1032D00005E049F20000C0F2D0300490FFE7FFE7BC
:1032E000FFE7FFE7049809B0704700BF20BCBE4B62
:1032F000000000390024744C0024744A80B588B062
:103300000690069828B9FFE701208DF81F0000F00D
:10331000EFBC40F61C40C4F20240006800F0180008
:10332000049040F62840C4F20240006800F0030018
:10333000039006980078C006002840F18080FFE7DF
:103340000498082808D0FFE7049818281DD1FFE743
:103350000398022819D1FFE70698C06928B9FFE74A
:1033600001208DF81F0000F0C3BCFFE740F61841B4
:10337000C4F20241086820F47C10069A126A40EAFE
:1033800002400860FFE7FFE758E00698C06988B38D
:10339000FFE740F60041C4F20241086840F4807043
:1033A0000860FDF7B7FC0590FFE740F60040C4F267
:1033B00002400068800500280DD4FFE7FDF7AAFC55
:1033C0000599401A032805D3FFE703208DF81F0055
:1033D00000F08EBCE9E7FFE740F61841C4F2024175
:1033E000086820F47C10069A126A40EA02400860DD
:1033F000FFE722E040F60041C4F20241086820F4F1
:1034000080700860FDF786FC0590FFE740F60040FD
:10341000C4F202400068800500280DD5FFE7FDF7E3
:1034200079FC0599401A032805D3FFE703208DF89E
:103430001F0000F05DBCE9E7FFE7FFE7FFE7069844
:103440000078C007002800F0B980FFE70498102832
:1034500008D0FFE7049818280ED1FFE70398032847
:103460000AD1FFE70698406828B9FFE701208DF8E8
:103470001F0000F03DBCA0E0FFE706984068B0F5F3
:10348000803F09D1FFE740F60041C4F202410868DD
:1034900040F48030086056E00698406888B9FFE73D
:1034A00040F60041C4F20241086820F48030086010
:1034B000086820F480100860086820F48020086004
:1034C00040E006984068B0F5A02F11D1FFE740F624
:1034D0000041C4F20241086840F480200860086896
:1034E00020F480100860086840F48030086028E00C
:1034F00006984068B0F5A81F11D1FFE740F60041DB
:10350000C4F20241086840F480200860086840F472
:1035100080100860086840F48030086010E040F6D1
:103520000041C4F20241086820F480300860086855
:1035300020F480200860086820F480100860FFE70D
:10354000FFE7FFE7FFE7FFE706984068D0B1FFE736
:10355000FDF7E0FB0590FFE740F60040C4F20240B3
:103560000068800300280CD4FFE7FDF7D3FB059922
:10357000401A652804D3FFE703208DF81F00B7E346
:10358000EAE719E0FDF7C6FB0590FFE740F60040CB
:10359000C4F202400068800300280CD5FFE7FDF765
:1035A000B9FB0599401A652804D3FFE703208DF87D
:1035B0001F009DE3EAE7FFE7FFE7FFE706980078D3
:1035C0008007002840F1C380FFE7049840B1FFE77F
:1035D000049818285ED1FFE7039801285AD1FFE725
:1035E0000698C06820B9FFE701208DF81F007FE32F
:1035F000049840BBFFE740F60040C4F20240006878
:1036000000F018000699096988421BD0FFE740F6D0
:103610000041C4F20241086820F01800069A1269BD
:1036200010430860FFF7D6FC41F6FC00C2F2000030
:103630000068FDF73FFC20B1FFE701208DF81F0077
:1036400056E3FFE7FFE7FDF765FB0590FFE740F670
:103650000040C4F202400068800700280CD4FFE755
:10366000FDF758FB0599401A032804D3FFE7032010
:103670008DF81F003CE3EAE740F61041C4F2024136
:10368000086820F4FE00069A526940EA0240086089
:10369000FFE75BE00698C068A8B3FFE740F600418B
:1036A000C4F20241086820F01800069A126910431B
:1036B0000860086840F001000860FDF72BFB0590EA
:1036C000FFE740F60040C4F202400068800700288F
:1036D0000CD4FFE7FDF71EFB0599401A032804D31D
:1036E000FFE703208DF81F0002E3EAE740F61041F0
:1036F000C4F20241086820F4FE00069A526940EACA
:103700000240086021E040F60041C4F2024108682E
:1037100020F001000860FDF7FDFA0590FFE740F694
:103720000040C4F202400068800700280CD5FFE783
:10373000FDF7F0FA0599401A032804D3FFE70320A8
:103740008DF81F00D4E2EAE7FFE7FFE7FFE70698FE
:1037500000780007002849D5FFE70698806910B374
:10376000FFE740F6F041C4F20241086840F0806093
:103770000860FDF7CFFA0590FFE740F6F040C4F28D
:1037800002400068000100280CD4FFE7FDF7C2FAF0
:103790000599401A032804D3FFE703208DF81F0082
:1037A000A6E2EAE721E040F6F041C4F202410868EF
:1037B00020F080600860FDF7ADFA0590FFE740F665
:1037C000F040C4F202400068000100280CD5FFE779
:1037D000FDF7A0FA0599401A032804D3FFE7032058
:1037E0008DF81F0084E2EAE7FFE7FFE7069800781C
:1037F0004007002840F1CC80FFE740F62400C4F2E7
:1038000002400068C00708BBFFE740F62401C4F28D
:103810000241086840F001000860FDF77BFA05905E
:10382000FFE740F62400C4F202400068C00760B918
:10383000FFE7FDF76FFA0599401A032804D3FFE765
:1038400003208DF81F0053E2EBE7FFE7FFE7069840
:103850008068012809D1FFE740F6F041C4F2024137
:10386000086840F00100086054E00698806888B954
:10387000FFE740F6F041C4F20241086820F0010081
:103880000860086820F080000860086820F00400E4
:1038900008603EE006988068052811D1FFE740F6F1
:1038A000F041C4F20241086840F004000860086872
:1038B00020F080000860086840F00100086027E000
:1038C00006988068852811D1FFE740F6F041C4F2E0
:1038D0000241086840F004000860086840F0800079
:1038E0000860086840F00100086010E040F6F04110
:1038F000C4F20241086820F001000860086820F066
:1039000004000860086820F080000860FFE7FFE717
:10391000FFE7FFE7FFE706988068E0B1FFE7FDF704
:10392000F9F90590FFE740F6F040C4F20240006864
:10393000800700280ED4FFE7FDF7ECF90599401A3F
:1039400041F28931884204D3FFE703208DF81F003C
:10395000CEE1E8E71BE0FDF7DDF90590FFE740F673
:10396000F040C4F202400068800700280ED5FFE74F
:10397000FDF7D0F90599401A41F28931884204D304
:10398000FFE703208DF81F00B2E1E8E7FFE7FFE75C
:10399000069800788006002849D5FFE70698406A17
:1039A00010B3FFE740F60041C4F20241086840F45A
:1039B00080500860FDF7AEF90590FFE740F6004043
:1039C000C4F202400068800400280CD4FFE7FDF731
:1039D000A1F90599401A032804D3FFE703208DF8C5
:1039E0001F0085E1EAE721E040F60041C4F2024110
:1039F000086820F480500860FDF78CF90590FFE717
:103A000040F60040C4F202400068800400280CD553
:103A1000FFE7FDF77FF90599401A032804D3FFE774
:103A200003208DF81F0063E1EAE7FFE7FFE7069850
:103A3000806A002800F05881FFE70498182800F0F9
:103A4000D580FFE70698806A022840F0A180FFE752
:103A500040F60041C4F20241086820F0807008601E
:103A6000FDF758F90590FFE740F60040C4F2024028
:103A70000068800100280CD5FFE7FDF74BF9059998
:103A8000401A032804D3FFE703208DF81F002FE11D
:103A9000EAE7FFE740F62841C4F20241086843F62E
:103AA00003729043069BDA6A1B6B42EA03221043BF
:103AB00008600699486BD1F838C0CB6B0A6C0138A6
:103AC0006FF35F204FF60061CFF6FF7101EB4C21E1
:103AD00089B208440021CFF6FF7101EB034101F4E4
:103AE000FE0108444FF07F4101EB026101F0FE410D
:103AF000084440F63441C4F202410860FFE740F652
:103B00002841C4F202410091086820F010000860CA
:103B10000698C06CC00040F63842C4F20242106001
:103B2000086840F010000860086820F00C00069A51
:103B3000526C10430860086820F02000069A926CCE
:103B400010430860086840F48030086040F6004187
:103B5000C4F20241086840F080700860FDF7DAF8AE
:103B60000590FFE740F60040C4F202400068800183
:103B700000280CD4FFE7FDF7CDF80599401A03287B
:103B800004D3FFE703208DF81F00B1E0EAE72CE043
:103B900040F60041C4F20241086820F080700860DD
:103BA000FDF7B8F80590FFE740F60040C4F2024088
:103BB0000068800100280CD5FFE7FDF7ABF80599F8
:103BC000401A032804D3FFE703208DF81F008FE07D
:103BD000EAE740F62841C4F2024108684FF6FC7259
:103BE000CFF6F87210400860FFE77CE040F628400E
:103BF000C4F202400068029040F63440C4F2024031
:103C0000006801900698806A012837D0FFE7029883
:103C100000F003000699C96A88422FD1FFE7029895
:103C200000F47C510698006BB0EB112F26D1FFE712
:103C300001986FF35F200699496B013988421DD1C5
:103C4000FFE7BDF804100698806B0138B0EB512FE8
:103C500014D1FFE7019800F4FE010698C06B01380B
:103C6000B0EB114F0AD1FFE7019800F0FE41069832
:103C7000006C0138B0EB116F04D0FFE701208DF824
:103C80001F0035E040F63840C4F20240006881B2BF
:103C90000698C06CB0EBD10F24D0FFE740F6284166
:103CA000C4F20241086820F010000860FDF732F805
:103CB0000590FFE7FDF72EF80599401A08B9FFE7D0
:103CC000F8E70698C06CC00040F63841C4F20241E3
:103CD000086040F62841C4F20241086840F0100034
:103CE0000860FFE7FFE7FFE700208DF81F00FFE710
:103CF0009DF81F0008B080BD82B00190019800902F
:103D0000042843D80099DFE801F00C1D2F4103007F
:103D10004EF21001CEF20001086840F00400086085
:103D200035E04EF21001CEF20001086820F00400E8
:103D3000086040F6E441C4F20241086820F00C003B
:103D4000086024E04EF21001CEF20001086820F075
:103D50000400086040F6E441C4F202410868012210
:103D600062F38300086012E04EF21001CEF200010F
:103D7000086820F00400086040F6E441C4F2024103
:103D80000868022262F38300086000E0FFE702B0E7
:103D90007047000081B0009001B0704781B0009082
:103DA00001B0704781B0009001B0704781B00090C1
:103DB00001B0704781B0009001B0704781B00090B1
:103DC00001B0704781B0009001B0704780B582B0FB
:103DD0000090009820B9FFE701208DF8070045E02A
:103DE000009890F83D0040B9FFE70099002081F865
:103DF0003C00009800F03EF8FFE70099022081F8AF
:103E00003D00009951F8040B01F04CF90099012094
:103E100081F84800FFE70099012081F83E000099F1
:103E200081F83F00009981F84000009981F8410035
:103E3000009981F84200009981F84300FFE7FFE70D
:103E40000099012081F84400009981F8450000990B
:103E500081F84600009981F84700FFE700990120AA
:103E600081F83D0000208DF80700FFE79DF807006E
:103E700002B080BD81B0009001B0704783B0019066
:103E8000019890F83D00012804D0FFE701208DF84B
:103E90000B00B8E00199022081F83D00019801680B
:103EA000C86840F00100C8600198006842F600410F
:103EB000C4F20101884200F08280FFE701980068A7
:103EC00042F60041C5F20101884278D0FFE701982F
:103ED0000068B0F1804F72D0FFE701980068B0F140
:103EE000A04F6CD0FFE70198006840F20041C4F297
:103EF0000001884263D0FFE70198006840F200416A
:103F0000C5F2000188425AD0FFE70198006840F6E8
:103F10000001C4F20001884251D0FFE70198006817
:103F200040F60001C5F20001884248D0FFE7019841
:103F3000006840F60041C4F2000188423FD0FFE72C
:103F40000198006840F60041C5F20001884236D071
:103F5000FFE70198006843F20041C4F20101884282
:103F60002DD0FFE70198006843F20041C5F201013E
:103F7000884224D0FFE70198006841F60001C4F2AE
:103F8000000188421BD0FFE70198006841F600015C
:103F9000C5F20001884212D0FFE70198006844F2A0
:103FA0000001C4F20101884209D0FFE701980068CE
:103FB00044F20001C5F20101884219D1FFE70198DE
:103FC000006880680721C0F2010108400090009855
:103FD00006280CD0FFE70098B0F5803F07D0FFE738
:103FE00001980168086840F001000860FFE706E0FA
:103FF00001980168086840F001000860FFE70020B0
:104000008DF80B00FFE79DF80B0003B07047000030
:1040100081B0009001B0704780B584B003900398E0
:104020000068C068029003980068006901909DF8DC
:1040300004008007002824D5FFE79DF808008007CA
:1040400000281DD5FFE7039801686FF002000861A2
:10405000039901200877039800688069800720B1E0
:10406000FFE70398FFF7D4FF06E0039800F054F948
:10407000039800F055F9FFE7039900200877FFE760
:10408000FFE79DF804004007002825D5FFE79DF8CD
:104090000800400700281ED5FFE7039801686FF06D
:1040A000040008610399022008770398006880697A
:1040B00010F4407F04D0FFE70398FFF7A9FF06E064
:1040C000039800F029F9039800F02AF9FFE7039913
:1040D00000200877FFE7FFE79DF8040000070028AD
:1040E00024D5FFE79DF80800000700281DD5FFE74D
:1040F000039801686FF008000861039904200877AD
:1041000003980068C069800720B1FFE70398FFF7B4
:104110007FFF06E0039800F0FFF8039800F000F935
:10412000FFE7039900200877FFE7FFE79DF8040009
:10413000C006002825D5FFE79DF80800C006002826
:104140001ED5FFE7039801686FF01000086103991E
:104150000820087703980068C06910F4407F04D0F5
:10416000FFE70398FFF754FF06E0039800F0D4F848
:10417000039800F0D5F8FFE7039900200877FFE7E0
:10418000FFE79DF80400C00778B1FFE79DF808003D
:10419000C00748B1FFE7039801686FF001000861AC
:1041A000039800F0C1F8FFE7FFE7019800F08000F6
:1041B000802806D0FFE79DF805008006002810D56E
:1041C000FFE79DF808000006002809D5FFE70398DF
:1041D00001686FF4025008610398FFF7DFFDFFE705
:1041E000FFE79DF80500C00780B1FFE79DF80800D4
:1041F0000006002809D5FFE7039801686FF4807076
:1042000008610398FFF7C6FDFFE7FFE79DF804008C
:104210004006002810D5FFE79DF80800400600285A
:1042200009D5FFE7039801686FF040000861039823
:1042300000F088F8FFE7FFE79DF8040080060028FB
:1042400010D5FFE79DF808008006002809D5FFE794
:10425000039801686FF0200008610398FFF7A2FD42
:10426000FFE7FFE79DF80600C006002810D5FFE72E
:104270009DF80A00C006002809D5FFE703980168E9
:104280006FF4801008610398FFF794FDFFE7FFE7E4
:104290009DF806008006002810D5FFE79DF80A006B
:1042A0008006002809D5FFE7039801686FF4001025
:1042B00008610398FFF77AFDFFE7FFE79DF8060026
:1042C0004006002810D5FFE79DF80A0040060028A8
:1042D00009D5FFE7039801686FF48000086103982F
:1042E000FFF76CFDFFE7FFE79DF8060000060028DA
:1042F00010D5FFE79DF80A000006002809D5FFE762
:10430000039801686FF4000008610398FFF75AFDF5
:10431000FFE7FFE704B080BD81B0009001B07047B7
:1043200081B0009001B0704780B582B001900198D3
:104330000068B0F1804F03D1FFE7FCF77DFDFFE798
:1043400002B080BD81B0009001B07047FFE7FEE78A
:1043500081B028200090FFE70098411E009110B125
:10436000FFE700BFF8E701B07047000080B584B0F8
:104370000020C4F2022002904FF400610122019259
:10438000FCF7B2FC019A02984FF480510391FCF7BC
:10439000ABFCFFF7DDFF029803990022FCF7A4FCB9
:1043A000FFF7D6FF04B080BD80B584B00020C4F212
:1043B000022001904FF4006101220392FCF794FC6B
:1043C00001984FF4805102910022FCF78DFCFFF719
:1043D000BFFF01980299039AFCF786FCFFF7B8FF2C
:1043E00004B080BD80B588B08DF81F000020069015
:1043F000FFE7069807283FDCFFE70020C4F2022011
:104400004FF400610022FCF76FFCFFF7A1FF9DF85D
:104410001F000006002809D5FFE70020C4F2022093
:104420004FF480510122FCF75FFC08E00020C4F249
:1044300002204FF480510022FCF756FCFFE7FFF703
:1044400087FF0020C4F2022004904FF40061059120
:104450000122FCF749FCFFF77BFF04980599002235
:10446000FCF742FC9DF81F0040008DF81F00FFE79D
:10447000069801300690BCE70020C4F202200290AA
:104480004FF4805101220192FCF72EFCFFF760FFF0
:10449000019A02984FF400610391FCF725FCFFF7A5
:1044A00057FF029803990022FCF71EFCFFF750FF0C
:1044B00008B080BD80B582B00020C4F20220009018
:1044C0004FF4004101910022FCF70EFC642001F042
:1044D0003DF8009801990122FCF706FC01F040FC30
:1044E00002B080BD80B58AB000F0ECFF40F6080253
:1044F000C2F2000201210991084601F053F901F0CE
:104500005FFD099940F20842C2F20002084601F03C
:1045100049F901F055FD099940F20802C2F2000282
:10452000084601F03FF901F04BFD00F0CBFF09997F
:1045300041F6BC12C2F20002084601F013FA0998D3
:1045400041F62012C2F200023121029101F00AFA72
:10455000099841F65822C2F20002612101F002FAE4
:10456000099941F66802C2F200020520079001F0A5
:104570008BF9079841F6D802C2F20002112100918E
:1045800001F082F9079841F69802C2F20002212157
:10459000019101F079F90299079841F68802C2F277
:1045A0000002039201F0B2FA079841F62802C2F223
:1045B00000023921049101F067F9079841F6B80229
:1045C000C2F200024921059101F05EF9099941F614
:1045D0009C12C2F200020720089001F055F90099E0
:1045E000089841F60802C2F2000201F04DF9019963
:1045F000089841F63822C2F2000201F045F902990A
:10460000039A089801F082FA0499089841F600127A
:10461000C2F2000201F038F90599089841F6480203
:10462000C2F2000201F030F901F0CAFC00F04AFFCA
:10463000099946F61842C0F60002084600F090FFBD
:10464000099946F60742C0F600020320069000F0E2
:1046500087FF0798099946F6F632C0F6000200F087
:104660007FFF0898099946F65942C0F6000200F00B
:1046700077FF01F0A5FC00F025FF099946F63F42BF
:10468000C0F60002084600F06BFF0698099946F64E
:104690002942C0F6000201F0A7FA099946F6CA328B
:1046A000C0F60002042001F09FFA0798099946F627
:1046B000B432C0F6000201F097FA099946F6E032EA
:1046C000C0F60002062001F08FFA0898099946F614
:1046D0008432C0F6000201F087FA099946F69E324C
:1046E000C0F60002082001F07FFA01F069FC099988
:1046F00040F60842C2F20002084601F053F801F009
:104700005FFC099941F20802C2F20002084601F07A
:1047100049F801F055FC099941F20842C2F2000241
:10472000084601F03FF801F04BFC0AB080BD0000E4
:1047300085B00490039100208DF80B0040F2040036
:10474000C2F2000000684CF6CD41CCF6CC41A0FB93
:104750000110000944F6D351C1F26201A0FB01101F
:1047600080094FF47A7100FB01F00190FFE7019896
:1047700001380190019820B9FFE703208DF80B0064
:10478000FFE7FFE7049800680068039A00EA020167
:1047900000209142009006D0FFE70198002818BF42
:1047A00001200090FFE70098C0070028DFD1FFE755
:1047B0009DF80B0005B0704780B5FCF791F818B173
:1047C000FFE7FCF74FF8FFE7FCF772F818B1FFE7D7
:1047D000FCF748F8FFE780BD80B590B000200F904F
:1047E0000E900D900C900B90FFE740F68C40C4F2B9
:1047F0000240016841F004010160006800F004001B
:104800000A900A98FFE7FFE740F68C40C4F20240A6
:10481000016841F080010160006800F080000990AB
:104820000998FFE7FFE740F68C40C4F202400168B8
:1048300041F001010160006800F001000890089853
:10484000FFE740F60000C4F2022001900C2107911E
:1048500000220692FCF748FA0198102101220292E8
:10486000FCF742FA069A0020C4F2022003904FF4AB
:104870001841FCF739FA0198029A06991C230B9308
:104880000C920D910E910BA90491FCF79FF8029ADE
:1048900003980499022305930B930023C1F221038B
:1048A0000C930D92FCF792F8029A03980499069BD8
:1048B0004FF4807CCDF82CC00C930D92FCF786F859
:1048C000029B03980499059A4FF4C05CCDF82CC064
:1048D0004FF0110CCDF830C00D930E92FCF776F826
:1048E000DDF808C003980499059B069A4FF4004E22
:1048F000CDF82CE0CDF830C00D930E92FCF766F8A1
:104900000599069A0798FCF789FC0798FCF77CFC48
:1049100010B080BD80B541F6DC20C2F2000043F249
:104920000001C4F2000101600321416040F6FF7103
:10493000C160816000210161FCF7F2F918B1FFE765
:10494000FBF790FFFFE780BD80B582B041F6F02015
:10495000C2F2000001904FF044210160002141604B
:1049600081604FF6FF724261026241628162C16200
:1049700001634163FCF70EFB18B1FFE7FBF772FF21
:10498000FFE702B080BD0000FFE7FEE7FFE7FEE7BC
:1049900088B0079006910592079800F007000490F0
:1049A0000498C0F10700052803D3FFE70420019015
:1049B00004E00498C0F107000190FFE7019803901C
:1049C00004980430062803D8FFE70020009003E095
:1049D000049803380090FFE7009802900698039926
:1049E000012202FA01F101390840029B9840059921
:1049F0009A40013A1140084308B070470000000097
:104A0000EFF30980EFF30B82734620E9FC0F104AA5
:104A1000116808604FF0500080F31188BFF34F8F8A
:104A2000BFF36F8F01F066FA4FF0000080F311883A
:104A3000074A11680868B0E8FC0F82F30B8880F31E
:104A40000988184700BF00BF00BF00BF00BF00BFFC
:104A5000901B002080B584B0029040F60041C4F263
:104A60000241086820F080600860FCF753F901906B
:104A7000FFE740F60040C4F20240006800F0006129
:104A80000020B0EBD16F0CD0FFE7FCF743F90199A0
:104A9000401A032804D3FFE703208DF80F008BE0B2
:104AA000E7E7FFE740F62C41C4F20241086843F60D
:104AB00003729043029B1A685B6842EA0322104328
:104AC000086002998868D1F80CC00B694A690138FE
:104AD0006FF35F204FF60061CFF6FF7101EB4C21C1
:104AE00089B208440021CFF6FF7101EB034101F4C4
:104AF000FE0108444FF07F4101EB026101F0FE41ED
:104B0000084440F63C41C4F202410860FFE740F629
:104B10002C41C4F202410091086820F00C00029A76
:104B2000926910430860086820F02000029AD26958
:104B3000104308600298426A0868104308600868D9
:104B400020F01000086040F64042C4F202421068B3
:104B50004FF6F8739843029B1B6A40EAC30010604B
:104B6000086840F01000086040F60041C4F20241BD
:104B7000086840F080600860FCF7CCF80190FFE71F
:104B800040F60040C4F20240006800F000610020DE
:104B9000B0EBD16F0CD1FFE7FCF7BCF80199401ADC
:104BA000032804D3FFE703208DF80F0004E0E7E7B4
:104BB00000208DF80F00FFE79DF80F0004B080BDC6
:104BC00080B584B0029040F60041C4F2024108680A
:104BD00020F080500860FCF79DF80190FFE740F658
:104BE0000040C4F20240006800F000510020B0EB29
:104BF000517F0CD0FFE7FCF78DF80199401A03288C
:104C000004D3FFE703208DF80F008BE0E7E7FFE711
:104C100040F63041C4F20241086843F60372904303
:104C2000029B1A685B6842EA0322104308600299FB
:104C30008868D1F80CC00B694A6901386FF35F20AE
:104C40004FF60061CFF6FF7101EB4C2189B20844A9
:104C50000021CFF6FF7101EB034101F4FE0108448E
:104C60004FF07F4101EB026101F0FE41084440F644
:104C70004441C4F202410860FFE740F63041C4F20B
:104C800002410091086820F00C00029A92691043DA
:104C90000860086820F02000029AD269104308607A
:104CA0000298426A086810430860086820F0100003
:104CB000086040F64842C4F2024210684FF6F873AA
:104CC0009843029B1B6A40EAC3001060086840F0EA
:104CD0001000086040F60041C4F20241086840F04C
:104CE00080500860FCF716F80190FFE740F600409E
:104CF000C4F20240006800F000510020B0EB517F88
:104D00000CD1FFE7FCF706F80199401A032804D3F9
:104D1000FFE703208DF80F0004E0E7E700208DF89F
:104D20000F00FFE79DF80F0004B080BD80B582B092
:104D3000002000908DF8060040F60000C4F202202A
:104D400004210122FBF7D0FF00988DF80700FFE750
:104D50009DF8070007282DDCFFE740F60000C4F2AD
:104D6000022004210022FBF7BFFF9DF8060040004F
:104D70008DF806000020C4F202204FF48071FBF78A
:104D80009BFF012806D1FFE79DF8060001308DF852
:104D9000060000E0FFE740F60000C4F20220042114
:104DA0000122FBF7A1FFFFE79DF8070001308DF816
:104DB0000700CDE79DF8060002B080BD80B584B045
:104DC0008DF80F0000208DF80E00FFE79DF80E0013
:104DD000072833DCFFE79DF80F000006002809D5FF
:104DE000FFE740F60000C4F2022008210122FBF791
:104DF0007BFF08E040F60000C4F2022008210022F8
:104E0000FBF772FFFFE79DF80F0040008DF80F00E1
:104E100040F60000C4F20220019004210291002219
:104E2000FBF762FF019802990122FBF75DFFFFE7A4
:104E30009DF80E0001308DF80E00C7E704B080BD6C
:104E40001EF0040F0CBFEFF30880EFF30980044954
:104E5000084700BF00BF00BF00BF00BF00BF00BFCA
:104E6000795E000880B582B000F0F2FF019001F099
:104E7000C3F840B1FFE74EF60451CEF200014FF007
:104E800080500860FFE7019800F0EEFF02B080BD9F
:104E900080B59CB008A85021FBF7FDF900200790D1
:104EA00006900590049003900290FFE740F61000F2
:104EB000C4F20240016841F030010160006800F076
:104EC000300001900198FFE7FFE740F61400C4F2BC
:104ED0000240006800F00800082801D0FFE7F4E76E
:104EE000182008904FF080600E904FF480700F9063
:104EF00020201090022012901390012114917D2106
:104F000015911690179018900820199000201A906B
:104F10001B9008A8FEF7F2F918B1FFE7FBF7A2FC17
:104F2000FFE71F20029003200390002004900590CB
:104F30000690079002A80521FDF7CCFD18B1FFE708
:104F4000FBF790FCFFE742F20001C4F2020108689F
:104F5000022262F3051008601CB080BD82B04EF6DC
:104F60008851CEF20001086840F47000086040F6F5
:104F70000042C4F202420120106040F61C41C4F21B
:104F8000024100200090086040F62041C4F2024136
:104F9000086011684EF6E323CEF6E2231940116053
:104FA00040F62841C4F20241086040F62C41C4F2A8
:104FB0000241086040F63041C4F20241086040F608
:104FC0003443C4F2024340F28021C0F2011119605F
:104FD00040F63843C4F20243186040F63C43C4F242
:104FE0000243196040F64043C4F20243186040F6A1
:104FF0004443C4F20243196040F64841C4F20241FE
:105000000860116821F48021116040F65041C4F21B
:10501000024108604EF60851CEF200014FF00060E8
:10502000086042F21800C4F20200006800F060401C
:1050300001900198B0F1604F05D0FFE70198B0F101
:10504000404F24D1FFE742F21C00C4F20200006886
:10505000C00778B1FFE742F20C01C4F2020142F648
:105060003B20C0F61900086046F67F60C4F65D403C
:105070000860FFE742F21C01C4F20201086840F038
:1050800002000860086840F001000860FFE702B015
:105090007047000080B541F64030C2F20000FEF7D4
:1050A000BBFF80BD83B00290019102980068009020
:1050B000029842F60041C4F20101884252D0FFE753
:1050C000029842F60041C5F2010188424AD0FFE74A
:1050D0000298B0F1804F45D0FFE70298B0F1A04FA1
:1050E00040D0FFE7029840F20041C4F2000188423C
:1050F00038D0FFE7029840F20041C5F20001884233
:1051000030D0FFE7029840F60001C4F20001884267
:1051100028D0FFE7029840F60001C5F2000188425E
:1051200020D0FFE7029840F60041C4F20001884217
:1051300018D0FFE7029840F60041C5F2000188420E
:1051400010D0FFE7029843F20041C4F20101884207
:1051500008D0FFE7029843F20041C5F201018842FE
:105160000AD1FFE7009820F0700000900198416894
:10517000009808430090FFE7029842F60041C4F20D
:105180000101884200F0BA80FFE7029842F6004130
:10519000C5F20101884200F0B180FFE70298B0F14A
:1051A000804F00F0AB80FFE70298B0F1A04F00F015
:1051B000A580FFE7029840F20041C4F20001884256
:1051C00000F09C80FFE7029840F20041C5F2000128
:1051D000884200F09380FFE7029840F60001C4F295
:1051E0000001884200F08A80FFE7029840F6000143
:1051F000C5F20001884200F08180FFE7029840F686
:105200000041C4F20001884278D0FFE7029840F6DE
:105210000041C5F20001884270D0FFE7029843F2D6
:105220000041C4F20101884268D0FFE7029843F2CE
:105230000041C5F20101884260D0FFE7029841F6C3
:105240000001C4F20001884258D0FFE7029841F6FD
:105250000001C5F20001884250D0FFE7029841F6F4
:105260000041C4F20001884248D0FFE7029841F6AD
:105270000041C5F20001884240D0FFE7029842F2A7
:105280000001C4F20001884238D0FFE7029842F2E0
:105290000001C5F20001884230D0FFE7029844F2D5
:1052A0000001C4F20101884228D0FFE7029844F2CD
:1052B0000001C5F20101884220D0FFE7029844F2C4
:1052C0000041C4F20101884218D0FFE7029844F27D
:1052D0000041C5F20101884210D0FFE7029844F670
:1052E0000001C4F20101884208D0FFE7029844F6A9
:1052F0000001C5F2010188420AD1FFE7009820F4BD
:10530000407000900198C168009808430090FFE742
:10531000009820F0800001994969084300900098A6
:1053200002990860019880680299C8620198006833
:1053300002998862029842F60041C4F20101884253
:1053400048D0FFE7029842F60041C5F201018842C9
:1053500040D0FFE7029843F20041C4F201018842C5
:1053600038D0FFE7029843F20041C5F201018842BC
:1053700030D0FFE7029844F20001C4F201018842F4
:1053800028D0FFE7029844F20001C5F201018842EB
:1053900020D0FFE7029844F20041C4F201018842A4
:1053A00018D0FFE7029844F20041C5F2010188429B
:1053B00010D0FFE7029844F60001C4F201018842D0
:1053C00008D0FFE7029844F60001C5F201018842C7
:1053D00005D1FFE70198006902990863FFE7029988
:1053E0000120486102980069C00730B1FFE70299C7
:1053F000086920F001000861FFE703B07047000072
:10540000FFE7FEE781B0ADF80200BDF90200002819
:105410000ED4FFE7BDF9021001F01F0201209040F9
:105420004A094EF20011CEF2000141F82200FFE7D6
:1054300001B070474EF60C50CEF200000068C0F389
:105440000220704782B0ADF806000091BDF9060059
:1054500000280AD4FFE700980001BDF906104EF2BB
:105460000042CEF2000288540BE000980001BDF823
:10547000061001F00F014EF61452CEF200028854CD
:10548000FFE702B07047000083B00290029800F07E
:10549000070000904EF60C51CEF200010868019012
:1054A00001984FF6FF02104001900198009A40EADF
:1054B00002200022C0F2FA521043019001980860C5
:1054C00003B0704780B584B000200290FFE70298D7
:1054D000092838DCFFE700F0A9FC7E20009000F0EE
:1054E000ADFC0020019000F0A9FC382000F0A6FCE3
:1054F00002984030C0B200F0A1FCE02000F09EFC19
:10550000F02000F09BFC00F095FC00F08FFC009870
:1055100000F094FC402000F091FC01980390FFE71C
:105520000398832808DCFFE7002000F087FCFFE7F2
:10553000039801300390F3E700F07CFCFFE702984A
:1055400001300290C3E704B080BD000080B582B096
:10555000ADF80600BDF80600FBF788F902B080BD83
:1055600080B596B08DF857008DF856101492002033
:105570008DF84F00FFE714989DF84F10405C01280C
:10558000C0F20D81FFE714989DF84F10405CB028E1
:1055900054DBFFE714989DF84F10405CF7284DDC72
:1055A000FFE714999DF84F0008444078A12845DB97
:1055B000FFE714989DF84F10405CB0385E2100FB67
:1055C00001F141F6D820C2F2000005900160149A62
:1055D0009DF84F10114449780268114401F2AD2141
:1055E000016001684901016041888DF84E10016831
:1055F000090A8DF84D1000688DF84C009DF84E009A
:105600009DF84D109DF84C20EC462023CCF800303E
:105610000BAB069300F056FB069A9DF857009DF8D9
:10562000561000F031F99DF84F0002308DF84F0010
:105630009DF8560010308DF85600AFE014989DF894
:105640004F10405CA12853DBFFE714989DF84F10E2
:10565000405CA3284CDCFFE714999DF84F000844F8
:105660004078A12844DBFFE714989DF84F10405C78
:10567000A1385E2100FB01F141F6D820C2F2000002
:1056800003900160149A9DF84F1011444978026804
:105690001144A139016001684901016041888DF818
:1056A0004E100168090A8DF84D1000688DF84C0005
:1056B0009DF84E009DF84D109DF84C20EC4620239F
:1056C000CCF800300BAB049300F0FCFA049A9DF880
:1056D00057009DF8561000F0D7F89DF84F000230A3
:1056E0008DF84F009DF8560010308DF8560054E0AC
:1056F00014989DF84F10405C202847DBFFE7149872
:105700009DF84F10405C7E2840DCFFE714989DF820
:105710004F10405CA0F1200141F6D820C2F20000F9
:105720000190016001680901016001684CF6807216
:10573000C0F203021144016041888DF84E100168E7
:10574000090A8DF84D1000688DF84C009DF84E0048
:105750009DF84D109DF84C20EC461023CCF80030FD
:1057600007AB029300F0AEFA029A9DF857009DF83D
:10577000561000F0CBF99DF84F0001308DF84F0026
:105780009DF8560008308DF8560005E09DF84F0052
:1057900001308DF84F00FFE7FFE7FFE7EBE616B0BB
:1057A00080BD000080B588B0ADF81E00ADF81C10BB
:1057B0000692BDF81E000138ADF81E00BDF81E00AF
:1057C00040308DF80F00BDF81C000330ADF81C0010
:1057D000BDF81C000E2161F31F108DF80E00BDF8FE
:1057E0001C0000090F2161F31F108DF80D0000202F
:1057F0000490FFE70498072843DCFFE700F016FB5E
:105800007E20019000F01AFB0020029000F016FBB1
:10581000382000F013FB9DF80F0004990844C0B233
:1058200000F00CFB9DF80E0000F008FB9DF80D0049
:1058300000F004FB00F0FEFA00F0F8FA019800F026
:10584000FDFA402000F0FAFA02980590FFE705986B
:105850007F280CDCFFE70698007800F0EFFA069846
:1058600001300690FFE7059801300590EFE7002032
:1058700000F0E4FA00F0DEFAFFE70498013004904B
:10588000B8E708B080BD000080B588B0ADF81E0054
:10589000ADF81C100692BDF81E000138ADF81E00D0
:1058A000BDF81E0040308DF80F00BDF81C0003301D
:1058B000ADF81C00BDF81C000E2161F31F108DF81F
:1058C0000E00BDF81C0000090F2161F31F108DF8B8
:1058D0000D0000200490FFE70498012840DCFFE75A
:1058E00000F0A4FA7E20019000F0A8FA00200290B7
:1058F00000F0A4FA382000F0A1FA9DF80F000499F6
:105900000844C0B200F09AFA9DF80E0000F096FA32
:105910009DF80D0000F092FA00F08CFA00F086FA83
:10592000019800F08BFA402000F088FA0298059068
:10593000FFE705980F280CDCFFE70698007800F0D9
:105940007DFA069801300690FFE705980130059032
:10595000EFE700F06FFAFFE7049801300490BBE72F
:1059600008B080BD80B588B0ADF81E00ADF81C1041
:105970000692BDF81E000138ADF81E00BDF81E00ED
:1059800040308DF80F00BDF81C000330ADF81C004E
:10599000BDF81C000E2161F31F108DF80E00BDF83C
:1059A0001C0000090F2161F31F108DF80D0000206D
:1059B0000490FFE70498032843DCFFE700F036FA81
:1059C0007E20019000F03AFA0020029000F036FAB2
:1059D000382000F033FA9DF80F0004990844C0B253
:1059E00000F02CFA9DF80E0000F028FA9DF80D004A
:1059F00000F024FA00F01EFA00F018FA019800F006
:105A00001DFA402000F01AFA02980590FFE7059869
:105A10001E280CDCFFE70698007800F00FFA0698C5
:105A200001300690FFE7059801300590EFE7002070
:105A300000F004FA00F0FEF9FFE70498013004904A
:105A4000B8E708B080BD000080B586B0ADF816009C
:105A50008DF815100492BDF816000138ADF8160047
:105A6000BDF8160040308DF80D009DF8150003308C
:105A70008DF815009DF815000E2161F31F108DF8AB
:105A80000C009DF81510F02040EA11108DF80B0065
:105A900000F0CCF97E20009000F0D0F900200190B9
:105AA00000F0CCF9382000F0C9F99DF80D0000F0A5
:105AB000C5F99DF80B0000F0C1F99DF80C0000F04D
:105AC000BDF900F0B7F900F0B1F9009800F0B6F9AF
:105AD000402000F0B3F90198ADF80E00FFE7BDF8E3
